{
  "_format": "hh-sol-artifact-1",
  "contractName": "MyEpicGame",
  "sourceName": "contracts/MyEpicGame.sol",
  "abi": [
    {
      "inputs": [
        {
          "internalType": "string",
          "name": "bossName",
          "type": "string"
        },
        {
          "internalType": "string",
          "name": "bossImageURI",
          "type": "string"
        },
        {
          "internalType": "uint256",
          "name": "bossHp",
          "type": "uint256"
        },
        {
          "internalType": "uint256",
          "name": "bossAttackDamage",
          "type": "uint256"
        },
        {
          "internalType": "uint256[]",
          "name": "characterIds",
          "type": "uint256[]"
        },
        {
          "internalType": "string[]",
          "name": "characterNames",
          "type": "string[]"
        },
        {
          "internalType": "string[]",
          "name": "characterImageURIs",
          "type": "string[]"
        },
        {
          "internalType": "uint256[]",
          "name": "characterHp",
          "type": "uint256[]"
        },
        {
          "internalType": "uint256[]",
          "name": "characterAttackDmg",
          "type": "uint256[]"
        },
        {
          "internalType": "uint256[]",
          "name": "characterShield",
          "type": "uint256[]"
        }
      ],
      "stateMutability": "nonpayable",
      "type": "constructor"
    },
    {
      "anonymous": false,
      "inputs": [
        {
          "indexed": true,
          "internalType": "address",
          "name": "owner",
          "type": "address"
        },
        {
          "indexed": true,
          "internalType": "address",
          "name": "approved",
          "type": "address"
        },
        {
          "indexed": true,
          "internalType": "uint256",
          "name": "tokenId",
          "type": "uint256"
        }
      ],
      "name": "Approval",
      "type": "event"
    },
    {
      "anonymous": false,
      "inputs": [
        {
          "indexed": true,
          "internalType": "address",
          "name": "owner",
          "type": "address"
        },
        {
          "indexed": true,
          "internalType": "address",
          "name": "operator",
          "type": "address"
        },
        {
          "indexed": false,
          "internalType": "bool",
          "name": "approved",
          "type": "bool"
        }
      ],
      "name": "ApprovalForAll",
      "type": "event"
    },
    {
      "anonymous": false,
      "inputs": [
        {
          "indexed": false,
          "internalType": "uint256",
          "name": "newBossHp",
          "type": "uint256"
        },
        {
          "indexed": false,
          "internalType": "uint256",
          "name": "newPlayerHp",
          "type": "uint256"
        }
      ],
      "name": "AttackComplete",
      "type": "event"
    },
    {
      "anonymous": false,
      "inputs": [
        {
          "indexed": false,
          "internalType": "address",
          "name": "sender",
          "type": "address"
        },
        {
          "indexed": false,
          "internalType": "uint256",
          "name": "tokenId",
          "type": "uint256"
        },
        {
          "indexed": false,
          "internalType": "uint256",
          "name": "characterIndex",
          "type": "uint256"
        }
      ],
      "name": "CharacterNFTMinted",
      "type": "event"
    },
    {
      "anonymous": false,
      "inputs": [
        {
          "indexed": true,
          "internalType": "address",
          "name": "from",
          "type": "address"
        },
        {
          "indexed": true,
          "internalType": "address",
          "name": "to",
          "type": "address"
        },
        {
          "indexed": true,
          "internalType": "uint256",
          "name": "tokenId",
          "type": "uint256"
        }
      ],
      "name": "Transfer",
      "type": "event"
    },
    {
      "inputs": [
        {
          "internalType": "address",
          "name": "to",
          "type": "address"
        },
        {
          "internalType": "uint256",
          "name": "tokenId",
          "type": "uint256"
        }
      ],
      "name": "approve",
      "outputs": [],
      "stateMutability": "nonpayable",
      "type": "function"
    },
    {
      "inputs": [],
      "name": "attackBoss",
      "outputs": [],
      "stateMutability": "nonpayable",
      "type": "function"
    },
    {
      "inputs": [
        {
          "internalType": "address",
          "name": "owner",
          "type": "address"
        }
      ],
      "name": "balanceOf",
      "outputs": [
        {
          "internalType": "uint256",
          "name": "",
          "type": "uint256"
        }
      ],
      "stateMutability": "view",
      "type": "function"
    },
    {
      "inputs": [],
      "name": "bigBoss",
      "outputs": [
        {
          "internalType": "string",
          "name": "name",
          "type": "string"
        },
        {
          "internalType": "string",
          "name": "imageURI",
          "type": "string"
        },
        {
          "internalType": "uint256",
          "name": "hp",
          "type": "uint256"
        },
        {
          "internalType": "uint256",
          "name": "maxHp",
          "type": "uint256"
        },
        {
          "internalType": "uint256",
          "name": "attackDamage",
          "type": "uint256"
        }
      ],
      "stateMutability": "view",
      "type": "function"
    },
    {
      "inputs": [],
      "name": "checkIfUserHasNFT",
      "outputs": [
        {
          "components": [
            {
              "internalType": "string",
              "name": "name",
              "type": "string"
            },
            {
              "internalType": "string",
              "name": "imageURI",
              "type": "string"
            },
            {
              "internalType": "uint256",
              "name": "hp",
              "type": "uint256"
            },
            {
              "internalType": "uint256",
              "name": "attackDamage",
              "type": "uint256"
            },
            {
              "internalType": "uint256",
              "name": "shield",
              "type": "uint256"
            }
          ],
          "internalType": "struct MyEpicGame.CharacterAttributes",
          "name": "",
          "type": "tuple"
        }
      ],
      "stateMutability": "view",
      "type": "function"
    },
    {
      "inputs": [
        {
          "internalType": "uint256",
          "name": "",
          "type": "uint256"
        }
      ],
      "name": "defaultAttributes",
      "outputs": [
        {
          "internalType": "string",
          "name": "name",
          "type": "string"
        },
        {
          "internalType": "string",
          "name": "imageURI",
          "type": "string"
        },
        {
          "internalType": "uint256",
          "name": "hp",
          "type": "uint256"
        },
        {
          "internalType": "uint256",
          "name": "attackDamage",
          "type": "uint256"
        },
        {
          "internalType": "uint256",
          "name": "shield",
          "type": "uint256"
        }
      ],
      "stateMutability": "view",
      "type": "function"
    },
    {
      "inputs": [],
      "name": "getAllDefaultCharacters",
      "outputs": [
        {
          "components": [
            {
              "internalType": "string",
              "name": "name",
              "type": "string"
            },
            {
              "internalType": "string",
              "name": "imageURI",
              "type": "string"
            },
            {
              "internalType": "uint256",
              "name": "hp",
              "type": "uint256"
            },
            {
              "internalType": "uint256",
              "name": "attackDamage",
              "type": "uint256"
            },
            {
              "internalType": "uint256",
              "name": "shield",
              "type": "uint256"
            }
          ],
          "internalType": "struct MyEpicGame.CharacterAttributes[]",
          "name": "",
          "type": "tuple[]"
        }
      ],
      "stateMutability": "view",
      "type": "function"
    },
    {
      "inputs": [
        {
          "internalType": "uint256",
          "name": "tokenId",
          "type": "uint256"
        }
      ],
      "name": "getApproved",
      "outputs": [
        {
          "internalType": "address",
          "name": "",
          "type": "address"
        }
      ],
      "stateMutability": "view",
      "type": "function"
    },
    {
      "inputs": [],
      "name": "getBigBoss",
      "outputs": [
        {
          "components": [
            {
              "internalType": "string",
              "name": "name",
              "type": "string"
            },
            {
              "internalType": "string",
              "name": "imageURI",
              "type": "string"
            },
            {
              "internalType": "uint256",
              "name": "hp",
              "type": "uint256"
            },
            {
              "internalType": "uint256",
              "name": "maxHp",
              "type": "uint256"
            },
            {
              "internalType": "uint256",
              "name": "attackDamage",
              "type": "uint256"
            }
          ],
          "internalType": "struct MyEpicGame.BigBoss",
          "name": "",
          "type": "tuple"
        }
      ],
      "stateMutability": "view",
      "type": "function"
    },
    {
      "inputs": [
        {
          "internalType": "address",
          "name": "owner",
          "type": "address"
        },
        {
          "internalType": "address",
          "name": "operator",
          "type": "address"
        }
      ],
      "name": "isApprovedForAll",
      "outputs": [
        {
          "internalType": "bool",
          "name": "",
          "type": "bool"
        }
      ],
      "stateMutability": "view",
      "type": "function"
    },
    {
      "inputs": [
        {
          "internalType": "uint256",
          "name": "_characterId",
          "type": "uint256"
        }
      ],
      "name": "mintCharacterNFT",
      "outputs": [],
      "stateMutability": "nonpayable",
      "type": "function"
    },
    {
      "inputs": [],
      "name": "name",
      "outputs": [
        {
          "internalType": "string",
          "name": "",
          "type": "string"
        }
      ],
      "stateMutability": "view",
      "type": "function"
    },
    {
      "inputs": [
        {
          "internalType": "uint256",
          "name": "",
          "type": "uint256"
        }
      ],
      "name": "nftHolderAttributes",
      "outputs": [
        {
          "internalType": "string",
          "name": "name",
          "type": "string"
        },
        {
          "internalType": "string",
          "name": "imageURI",
          "type": "string"
        },
        {
          "internalType": "uint256",
          "name": "hp",
          "type": "uint256"
        },
        {
          "internalType": "uint256",
          "name": "attackDamage",
          "type": "uint256"
        },
        {
          "internalType": "uint256",
          "name": "shield",
          "type": "uint256"
        }
      ],
      "stateMutability": "view",
      "type": "function"
    },
    {
      "inputs": [
        {
          "internalType": "address",
          "name": "",
          "type": "address"
        }
      ],
      "name": "nftHolders",
      "outputs": [
        {
          "internalType": "uint256",
          "name": "",
          "type": "uint256"
        }
      ],
      "stateMutability": "view",
      "type": "function"
    },
    {
      "inputs": [
        {
          "internalType": "uint256",
          "name": "tokenId",
          "type": "uint256"
        }
      ],
      "name": "ownerOf",
      "outputs": [
        {
          "internalType": "address",
          "name": "",
          "type": "address"
        }
      ],
      "stateMutability": "view",
      "type": "function"
    },
    {
      "inputs": [
        {
          "internalType": "address",
          "name": "from",
          "type": "address"
        },
        {
          "internalType": "address",
          "name": "to",
          "type": "address"
        },
        {
          "internalType": "uint256",
          "name": "tokenId",
          "type": "uint256"
        }
      ],
      "name": "safeTransferFrom",
      "outputs": [],
      "stateMutability": "nonpayable",
      "type": "function"
    },
    {
      "inputs": [
        {
          "internalType": "address",
          "name": "from",
          "type": "address"
        },
        {
          "internalType": "address",
          "name": "to",
          "type": "address"
        },
        {
          "internalType": "uint256",
          "name": "tokenId",
          "type": "uint256"
        },
        {
          "internalType": "bytes",
          "name": "_data",
          "type": "bytes"
        }
      ],
      "name": "safeTransferFrom",
      "outputs": [],
      "stateMutability": "nonpayable",
      "type": "function"
    },
    {
      "inputs": [
        {
          "internalType": "address",
          "name": "operator",
          "type": "address"
        },
        {
          "internalType": "bool",
          "name": "approved",
          "type": "bool"
        }
      ],
      "name": "setApprovalForAll",
      "outputs": [],
      "stateMutability": "nonpayable",
      "type": "function"
    },
    {
      "inputs": [
        {
          "internalType": "bytes4",
          "name": "interfaceId",
          "type": "bytes4"
        }
      ],
      "name": "supportsInterface",
      "outputs": [
        {
          "internalType": "bool",
          "name": "",
          "type": "bool"
        }
      ],
      "stateMutability": "view",
      "type": "function"
    },
    {
      "inputs": [],
      "name": "symbol",
      "outputs": [
        {
          "internalType": "string",
          "name": "",
          "type": "string"
        }
      ],
      "stateMutability": "view",
      "type": "function"
    },
    {
      "inputs": [
        {
          "internalType": "uint256",
          "name": "_tokenId",
          "type": "uint256"
        }
      ],
      "name": "tokenURI",
      "outputs": [
        {
          "internalType": "string",
          "name": "",
          "type": "string"
        }
      ],
      "stateMutability": "view",
      "type": "function"
    },
    {
      "inputs": [
        {
          "internalType": "address",
          "name": "from",
          "type": "address"
        },
        {
          "internalType": "address",
          "name": "to",
          "type": "address"
        },
        {
          "internalType": "uint256",
          "name": "tokenId",
          "type": "uint256"
        }
      ],
      "name": "transferFrom",
      "outputs": [],
      "stateMutability": "nonpayable",
      "type": "function"
    }
  ],
  "bytecode": "0x60806040523480156200001157600080fd5b5060405162005ac238038062005ac2833981810160405281019062000037919062000a75565b6040518060400160405280600681526020017f4865726f657300000000000000000000000000000000000000000000000000008152506040518060400160405280600481526020017f4845524f000000000000000000000000000000000000000000000000000000008152508160009080519060200190620000bb929190620007dd565b508060019080519060200190620000d4929190620007dd565b5050506040518060a001604052808b81526020018a815260200189815260200189815260200188815250600660008201518160000190805190602001906200011e929190620007dd565b5060208201518160010190805190602001906200013d929190620007dd565b50604082015181600201556060820151816003015560808201518160040155905050620002c06040518060600160405280602a815260200162005a98602a9139600660000180546200018f9062000e57565b80601f0160208091040260200160405190810160405280929190818152602001828054620001bd9062000e57565b80156200020e5780601f10620001e2576101008083540402835291602001916200020e565b820191906000526020600020905b815481529060010190602001808311620001f057829003601f168201915b5050505050600660020154600660010180546200022b9062000e57565b80601f0160208091040260200160405190810160405280929190818152602001828054620002599062000e57565b8015620002aa5780601f106200027e57610100808354040283529160200191620002aa565b820191906000526020600020905b8154815290600101906020018083116200028c57829003601f168201915b50505050506200070860201b62001c601760201c565b60005b8651811015620006f7576040518060a0016040528087838151811062000312577f4e487b7100000000000000000000000000000000000000000000000000000000600052603260045260246000fd5b6020026020010151815260200186838151811062000359577f4e487b7100000000000000000000000000000000000000000000000000000000600052603260045260246000fd5b60200260200101518152602001858381518110620003a0577f4e487b7100000000000000000000000000000000000000000000000000000000600052603260045260246000fd5b60200260200101518152602001848381518110620003e7577f4e487b7100000000000000000000000000000000000000000000000000000000600052603260045260246000fd5b602002602001015181526020018383815181106200042e577f4e487b7100000000000000000000000000000000000000000000000000000000600052603260045260246000fd5b6020026020010151815250600e600089848151811062000477577f4e487b7100000000000000000000000000000000000000000000000000000000600052603260045260246000fd5b602002602001015181526020019081526020016000206000820151816000019080519060200190620004ab929190620007dd565b506020820151816001019080519060200190620004ca929190620007dd565b506040820151816002015560608201518160030155608082015181600401559050506000600e60008984815181106200052c577f4e487b7100000000000000000000000000000000000000000000000000000000600052603260045260246000fd5b602002602001015181526020019081526020016000206040518060a00160405290816000820180546200055f9062000e57565b80601f01602080910402602001604051908101604052809291908181526020018280546200058d9062000e57565b8015620005de5780601f10620005b257610100808354040283529160200191620005de565b820191906000526020600020905b815481529060010190602001808311620005c057829003601f168201915b50505050508152602001600182018054620005f99062000e57565b80601f0160208091040260200160405190810160405280929190818152602001828054620006279062000e57565b8015620006785780601f106200064c5761010080835404028352916020019162000678565b820191906000526020600020905b8154815290600101906020018083116200065a57829003601f168201915b5050505050815260200160028201548152602001600382015481526020016004820154815250509050620006df60405180606001604052806025815260200162005a73602591398260000151836040015184602001516200070860201b62001c601760201c565b50600181620006ef919062000dba565b9050620002c3565b505050505050505050505062000f7b565b620007ae8484848460405160240162000725949392919062000c7f565b6040516020818303038152906040527f8d142cdd000000000000000000000000000000000000000000000000000000007bffffffffffffffffffffffffffffffffffffffffffffffffffffffff19166020820180517bffffffffffffffffffffffffffffffffffffffffffffffffffffffff8381831617835250505050620007b460201b60201c565b50505050565b60008151905060006a636f6e736f6c652e6c6f679050602083016000808483855afa5050505050565b828054620007eb9062000e57565b90600052602060002090601f0160209004810192826200080f57600085556200085b565b82601f106200082a57805160ff19168380011785556200085b565b828001600101855582156200085b579182015b828111156200085a5782518255916020019190600101906200083d565b5b5090506200086a91906200086e565b5090565b5b80821115620008895760008160009055506001016200086f565b5090565b6000620008a46200089e8462000d0a565b62000ce1565b90508083825260208201905082856020860282011115620008c457600080fd5b60005b858110156200091357815167ffffffffffffffff811115620008e857600080fd5b808601620008f7898262000a31565b85526020850194506020840193505050600181019050620008c7565b5050509392505050565b6000620009346200092e8462000d39565b62000ce1565b905080838252602082019050828560208602820111156200095457600080fd5b60005b858110156200098857816200096d888262000a5e565b84526020840193506020830192505060018101905062000957565b5050509392505050565b6000620009a9620009a38462000d68565b62000ce1565b905082815260208101848484011115620009c257600080fd5b620009cf84828562000e21565b509392505050565b600082601f830112620009e957600080fd5b8151620009fb8482602086016200088d565b91505092915050565b600082601f83011262000a1657600080fd5b815162000a288482602086016200091d565b91505092915050565b600082601f83011262000a4357600080fd5b815162000a5584826020860162000992565b91505092915050565b60008151905062000a6f8162000f61565b92915050565b6000806000806000806000806000806101408b8d03121562000a9657600080fd5b60008b015167ffffffffffffffff81111562000ab157600080fd5b62000abf8d828e0162000a31565b9a505060208b015167ffffffffffffffff81111562000add57600080fd5b62000aeb8d828e0162000a31565b995050604062000afe8d828e0162000a5e565b985050606062000b118d828e0162000a5e565b97505060808b015167ffffffffffffffff81111562000b2f57600080fd5b62000b3d8d828e0162000a04565b96505060a08b015167ffffffffffffffff81111562000b5b57600080fd5b62000b698d828e01620009d7565b95505060c08b015167ffffffffffffffff81111562000b8757600080fd5b62000b958d828e01620009d7565b94505060e08b015167ffffffffffffffff81111562000bb357600080fd5b62000bc18d828e0162000a04565b9350506101008b015167ffffffffffffffff81111562000be057600080fd5b62000bee8d828e0162000a04565b9250506101208b015167ffffffffffffffff81111562000c0d57600080fd5b62000c1b8d828e0162000a04565b9150509295989b9194979a5092959850565b600062000c3a8262000d9e565b62000c46818562000da9565b935062000c5881856020860162000e21565b62000c638162000f50565b840191505092915050565b62000c798162000e17565b82525050565b6000608082019050818103600083015262000c9b818762000c2d565b9050818103602083015262000cb1818662000c2d565b905062000cc2604083018562000c6e565b818103606083015262000cd6818462000c2d565b905095945050505050565b600062000ced62000d00565b905062000cfb828262000e8d565b919050565b6000604051905090565b600067ffffffffffffffff82111562000d285762000d2762000f21565b5b602082029050602081019050919050565b600067ffffffffffffffff82111562000d575762000d5662000f21565b5b602082029050602081019050919050565b600067ffffffffffffffff82111562000d865762000d8562000f21565b5b62000d918262000f50565b9050602081019050919050565b600081519050919050565b600082825260208201905092915050565b600062000dc78262000e17565b915062000dd48362000e17565b9250827fffffffffffffffffffffffffffffffffffffffffffffffffffffffffffffffff0382111562000e0c5762000e0b62000ec3565b5b828201905092915050565b6000819050919050565b60005b8381101562000e4157808201518184015260208101905062000e24565b8381111562000e51576000848401525b50505050565b6000600282049050600182168062000e7057607f821691505b6020821081141562000e875762000e8662000ef2565b5b50919050565b62000e988262000f50565b810181811067ffffffffffffffff8211171562000eba5762000eb962000f21565b5b80604052505050565b7f4e487b7100000000000000000000000000000000000000000000000000000000600052601160045260246000fd5b7f4e487b7100000000000000000000000000000000000000000000000000000000600052602260045260246000fd5b7f4e487b7100000000000000000000000000000000000000000000000000000000600052604160045260246000fd5b6000601f19601f8301169050919050565b62000f6c8162000e17565b811462000f7857600080fd5b50565b614ae88062000f8b6000396000f3fe608060405234801561001057600080fd5b50600436106101425760003560e01c806395d89b41116100b8578063b953084e1161007c578063b953084e146103a7578063c87b56dd146103c5578063c8cf27f4146103f5578063d4f24c5b14610413578063e985e9c51461041d578063f8b81ef71461044d57610142565b806395d89b41146102fb57806398da4c9514610319578063a22cb4651461034d578063a9c3267914610369578063b88d4fde1461038b57610142565b806323b872dd1161010a57806323b872dd146101ff57806342842e0e1461021b5780636352211e146102375780636a9081521461026757806370a082311461029b5780637df124a1146102cb57610142565b806301ffc9a7146101475780630665f9611461017757806306fdde0314610195578063081812fc146101b3578063095ea7b3146101e3575b600080fd5b610161600480360381019061015c91906131bf565b610469565b60405161016e91906139fe565b60405180910390f35b61017f61054b565b60405161018c9190613e1a565b60405180910390f35b61019d6106a7565b6040516101aa9190613a19565b60405180910390f35b6101cd60048036038101906101c89190613211565b610739565b6040516101da919061393e565b60405180910390f35b6101fd60048036038101906101f89190613183565b6107be565b005b6102196004803603810190610214919061307d565b6108d6565b005b6102356004803603810190610230919061307d565b610936565b005b610251600480360381019061024c9190613211565b610956565b60405161025e919061393e565b60405180910390f35b610281600480360381019061027c9190613211565b610a08565b604051610292959493929190613b1f565b60405180910390f35b6102b560048036038101906102b09190613018565b610b4e565b6040516102c29190613e5e565b60405180910390f35b6102e560048036038101906102e09190613018565b610c06565b6040516102f29190613e5e565b60405180910390f35b610303610c1e565b6040516103109190613a19565b60405180910390f35b610333600480360381019061032e9190613211565b610cb0565b604051610344959493929190613b1f565b60405180910390f35b61036760048036038101906103629190613147565b610df6565b005b610371610e0c565b604051610382959493929190613b1f565b60405180910390f35b6103a560048036038101906103a091906130cc565b610f40565b005b6103af610fa2565b6040516103bc91906139dc565b60405180910390f35b6103df60048036038101906103da9190613211565b611143565b6040516103ec9190613a19565b60405180910390f35b6103fd611354565b60405161040a9190613e3c565b60405180910390f35b61041b611522565b005b61043760048036038101906104329190613041565b6118f1565b60405161044491906139fe565b60405180910390f35b61046760048036038101906104629190613211565b611985565b005b60007f80ac58cd000000000000000000000000000000000000000000000000000000007bffffffffffffffffffffffffffffffffffffffffffffffffffffffff1916827bffffffffffffffffffffffffffffffffffffffffffffffffffffffff1916148061053457507f5b5e139f000000000000000000000000000000000000000000000000000000007bffffffffffffffffffffffffffffffffffffffffffffffffffffffff1916827bffffffffffffffffffffffffffffffffffffffffffffffffffffffff1916145b80610544575061054382611d02565b5b9050919050565b610553612e46565b60066040518060a001604052908160008201805461057090614150565b80601f016020809104026020016040519081016040528092919081815260200182805461059c90614150565b80156105e95780601f106105be576101008083540402835291602001916105e9565b820191906000526020600020905b8154815290600101906020018083116105cc57829003601f168201915b5050505050815260200160018201805461060290614150565b80601f016020809104026020016040519081016040528092919081815260200182805461062e90614150565b801561067b5780601f106106505761010080835404028352916020019161067b565b820191906000526020600020905b81548152906001019060200180831161065e57829003601f168201915b505050505081526020016002820154815260200160038201548152602001600482015481525050905090565b6060600080546106b690614150565b80601f01602080910402602001604051908101604052809291908181526020018280546106e290614150565b801561072f5780601f106107045761010080835404028352916020019161072f565b820191906000526020600020905b81548152906001019060200180831161071257829003601f168201915b5050505050905090565b600061074482611d6c565b610783576040517f08c379a000000000000000000000000000000000000000000000000000000000815260040161077a90613d9a565b60405180910390fd5b6004600083815260200190815260200160002060009054906101000a900473ffffffffffffffffffffffffffffffffffffffff169050919050565b60006107c982610956565b90508073ffffffffffffffffffffffffffffffffffffffff168373ffffffffffffffffffffffffffffffffffffffff16141561083a576040517f08c379a000000000000000000000000000000000000000000000000000000000815260040161083190613dda565b60405180910390fd5b8073ffffffffffffffffffffffffffffffffffffffff16610859611dd8565b73ffffffffffffffffffffffffffffffffffffffff161480610888575061088781610882611dd8565b6118f1565b5b6108c7576040517f08c379a00000000000000000000000000000000000000000000000000000000081526004016108be90613cfa565b60405180910390fd5b6108d18383611de0565b505050565b6108e76108e1611dd8565b82611e99565b610926576040517f08c379a000000000000000000000000000000000000000000000000000000000815260040161091d90613dfa565b60405180910390fd5b610931838383611f77565b505050565b61095183838360405180602001604052806000815250610f40565b505050565b6000806002600084815260200190815260200160002060009054906101000a900473ffffffffffffffffffffffffffffffffffffffff169050600073ffffffffffffffffffffffffffffffffffffffff168173ffffffffffffffffffffffffffffffffffffffff1614156109ff576040517f08c379a00000000000000000000000000000000000000000000000000000000081526004016109f690613d3a565b60405180910390fd5b80915050919050565b600e602052806000526040600020600091509050806000018054610a2b90614150565b80601f0160208091040260200160405190810160405280929190818152602001828054610a5790614150565b8015610aa45780601f10610a7957610100808354040283529160200191610aa4565b820191906000526020600020905b815481529060010190602001808311610a8757829003601f168201915b505050505090806001018054610ab990614150565b80601f0160208091040260200160405190810160405280929190818152602001828054610ae590614150565b8015610b325780601f10610b0757610100808354040283529160200191610b32565b820191906000526020600020905b815481529060010190602001808311610b1557829003601f168201915b5050505050908060020154908060030154908060040154905085565b60008073ffffffffffffffffffffffffffffffffffffffff168273ffffffffffffffffffffffffffffffffffffffff161415610bbf576040517f08c379a0000000000000000000000000000000000000000000000000000000008152600401610bb690613d1a565b60405180910390fd5b600360008373ffffffffffffffffffffffffffffffffffffffff1673ffffffffffffffffffffffffffffffffffffffff168152602001908152602001600020549050919050565b600f6020528060005260406000206000915090505481565b606060018054610c2d90614150565b80601f0160208091040260200160405190810160405280929190818152602001828054610c5990614150565b8015610ca65780601f10610c7b57610100808354040283529160200191610ca6565b820191906000526020600020905b815481529060010190602001808311610c8957829003601f168201915b5050505050905090565b600d602052806000526040600020600091509050806000018054610cd390614150565b80601f0160208091040260200160405190810160405280929190818152602001828054610cff90614150565b8015610d4c5780601f10610d2157610100808354040283529160200191610d4c565b820191906000526020600020905b815481529060010190602001808311610d2f57829003601f168201915b505050505090806001018054610d6190614150565b80601f0160208091040260200160405190810160405280929190818152602001828054610d8d90614150565b8015610dda5780601f10610daf57610100808354040283529160200191610dda565b820191906000526020600020905b815481529060010190602001808311610dbd57829003601f168201915b5050505050908060020154908060030154908060040154905085565b610e08610e01611dd8565b83836121d3565b5050565b6006806000018054610e1d90614150565b80601f0160208091040260200160405190810160405280929190818152602001828054610e4990614150565b8015610e965780601f10610e6b57610100808354040283529160200191610e96565b820191906000526020600020905b815481529060010190602001808311610e7957829003601f168201915b505050505090806001018054610eab90614150565b80601f0160208091040260200160405190810160405280929190818152602001828054610ed790614150565b8015610f245780601f10610ef957610100808354040283529160200191610f24565b820191906000526020600020905b815481529060010190602001808311610f0757829003601f168201915b5050505050908060020154908060030154908060040154905085565b610f51610f4b611dd8565b83611e99565b610f90576040517f08c379a0000000000000000000000000000000000000000000000000000000008152600401610f8790613dfa565b60405180910390fd5b610f9c84848484612340565b50505050565b6060600c805480602002602001604051908101604052809291908181526020016000905b8282101561113a57838290600052602060002090600502016040518060a0016040529081600082018054610ff990614150565b80601f016020809104026020016040519081016040528092919081815260200182805461102590614150565b80156110725780601f1061104757610100808354040283529160200191611072565b820191906000526020600020905b81548152906001019060200180831161105557829003601f168201915b5050505050815260200160018201805461108b90614150565b80601f01602080910402602001604051908101604052809291908181526020018280546110b790614150565b80156111045780601f106110d957610100808354040283529160200191611104565b820191906000526020600020905b8154815290600101906020018083116110e757829003601f168201915b50505050508152602001600282015481526020016003820154815260200160048201548152505081526020019060010190610fc6565b50505050905090565b60606000600d60008481526020019081526020016000206040518060a001604052908160008201805461117590614150565b80601f01602080910402602001604051908101604052809291908181526020018280546111a190614150565b80156111ee5780601f106111c3576101008083540402835291602001916111ee565b820191906000526020600020905b8154815290600101906020018083116111d157829003601f168201915b5050505050815260200160018201805461120790614150565b80601f016020809104026020016040519081016040528092919081815260200182805461123390614150565b80156112805780601f1061125557610100808354040283529160200191611280565b820191906000526020600020905b81548152906001019060200180831161126357829003601f168201915b505050505081526020016002820154815260200160038201548152602001600482015481525050905060006112b8826040015161239c565b905060006112c9836060015161239c565b905060006112da846080015161239c565b9050600061132085600001516112ef8961239c565b876020015187878760405160200161130c96959493929190613877565b604051602081830303815290604052612549565b9050600081604051602001611335919061391c565b6040516020818303038152906040529050809650505050505050919050565b61135c612e75565b6000600f60003373ffffffffffffffffffffffffffffffffffffffff1673ffffffffffffffffffffffffffffffffffffffff168152602001908152602001600020549050600081111561151157600d60008281526020019081526020016000206040518060a00160405290816000820180546113d790614150565b80601f016020809104026020016040519081016040528092919081815260200182805461140390614150565b80156114505780601f1061142557610100808354040283529160200191611450565b820191906000526020600020905b81548152906001019060200180831161143357829003601f168201915b5050505050815260200160018201805461146990614150565b80601f016020809104026020016040519081016040528092919081815260200182805461149590614150565b80156114e25780601f106114b7576101008083540402835291602001916114e2565b820191906000526020600020905b8154815290600101906020018083116114c557829003601f168201915b50505050508152602001600282015481526020016003820154815260200160048201548152505091505061151f565b611519612e75565b80925050505b90565b6000600f60003373ffffffffffffffffffffffffffffffffffffffff1673ffffffffffffffffffffffffffffffffffffffff1681526020019081526020016000205490506000600d6000838152602001908152602001600020905061162b604051806060016040528060278152602001614a61602791398260000180546115a890614150565b80601f01602080910402602001604051908101604052809291908181526020018280546115d490614150565b80156116215780601f106115f657610100808354040283529160200191611621565b820191906000526020600020905b81548152906001019060200180831161160457829003601f168201915b50505050506126e8565b61165b604051806060016040528060228152602001614a3f60229139826002015483600301548460040154612784565b6117336040518060400160405280601b81526020017f426f73732025732068617320257320485020616e642025732041440000000000815250600660000180546116a490614150565b80601f01602080910402602001604051908101604052809291908181526020018280546116d090614150565b801561171d5780601f106116f25761010080835404028352916020019161171d565b820191906000526020600020905b81548152906001019060200180831161170057829003601f168201915b5050505050600660020154600660040154612826565b600081600201541161177a576040517f08c379a000000000000000000000000000000000000000000000000000000000815260040161177190613d5a565b60405180910390fd5b6000600660020154116117c2576040517f08c379a00000000000000000000000000000000000000000000000000000000081526004016117b990613c5a565b60405180910390fd5b806003015460066002015410156117e3576000600660020181905550611802565b80600301546006600201546117f89190614066565b6006600201819055505b6006600401548160040154826002015461181c9190613f85565b1015611831576000816002018190555061185e565b6006600401548160040154826002015461184b9190613f85565b6118559190614066565b81600201819055505b6118856040518060600160405280602581526020016149b2602591396006600201546128c8565b6118ab604051806060016040528060288152602001614a176028913982600201546128c8565b7f838ab28464562786a6c4ab2311964b82fa60bd9b14aa7e856af1f3f18d41a41460066002015482600201546040516118e5929190613e79565b60405180910390a15050565b6000600560008473ffffffffffffffffffffffffffffffffffffffff1673ffffffffffffffffffffffffffffffffffffffff16815260200190815260200160002060008373ffffffffffffffffffffffffffffffffffffffff1673ffffffffffffffffffffffffffffffffffffffff16815260200190815260200160002060009054906101000a900460ff16905092915050565b6000611991600b612964565b905061199d3382612972565b6040518060a00160405280600e600085815260200190815260200160002060000180546119c990614150565b80601f01602080910402602001604051908101604052809291908181526020018280546119f590614150565b8015611a425780601f10611a1757610100808354040283529160200191611a42565b820191906000526020600020905b815481529060010190602001808311611a2557829003601f168201915b50505050508152602001600e60008581526020019081526020016000206001018054611a6d90614150565b80601f0160208091040260200160405190810160405280929190818152602001828054611a9990614150565b8015611ae65780601f10611abb57610100808354040283529160200191611ae6565b820191906000526020600020905b815481529060010190602001808311611ac957829003601f168201915b50505050508152602001600e6000858152602001908152602001600020600201548152602001600e6000858152602001908152602001600020600301548152602001600e600085815260200190815260200160002060040154815250600d60008381526020019081526020016000206000820151816000019080519060200190611b71929190612ea4565b506020820151816001019080519060200190611b8e929190612ea4565b5060408201518160020155606082015181600301556080820151816004015590505080600f60003373ffffffffffffffffffffffffffffffffffffffff1673ffffffffffffffffffffffffffffffffffffffff16815260200190815260200160002081905550611c176040518060600160405280602b8152602001614a88602b91398284612990565b611c21600b612a2f565b7f4bc303fd457a97b4691b9af582ce71868a3d258638c8d4f8c60988a0f0bfb8cd338284604051611c54939291906139a5565b60405180910390a15050565b611cfc84848484604051602401611c7a9493929190613a72565b6040516020818303038152906040527f8d142cdd000000000000000000000000000000000000000000000000000000007bffffffffffffffffffffffffffffffffffffffffffffffffffffffff19166020820180517bffffffffffffffffffffffffffffffffffffffffffffffffffffffff8381831617835250505050612a45565b50505050565b60007f01ffc9a7000000000000000000000000000000000000000000000000000000007bffffffffffffffffffffffffffffffffffffffffffffffffffffffff1916827bffffffffffffffffffffffffffffffffffffffffffffffffffffffff1916149050919050565b60008073ffffffffffffffffffffffffffffffffffffffff166002600084815260200190815260200160002060009054906101000a900473ffffffffffffffffffffffffffffffffffffffff1673ffffffffffffffffffffffffffffffffffffffff1614159050919050565b600033905090565b816004600083815260200190815260200160002060006101000a81548173ffffffffffffffffffffffffffffffffffffffff021916908373ffffffffffffffffffffffffffffffffffffffff160217905550808273ffffffffffffffffffffffffffffffffffffffff16611e5383610956565b73ffffffffffffffffffffffffffffffffffffffff167f8c5be1e5ebec7d5bd14f71427d1e84f3dd0314c0f7b2291e5b200ac8c7c3b92560405160405180910390a45050565b6000611ea482611d6c565b611ee3576040517f08c379a0000000000000000000000000000000000000000000000000000000008152600401611eda90613cda565b60405180910390fd5b6000611eee83610956565b90508073ffffffffffffffffffffffffffffffffffffffff168473ffffffffffffffffffffffffffffffffffffffff161480611f5d57508373ffffffffffffffffffffffffffffffffffffffff16611f4584610739565b73ffffffffffffffffffffffffffffffffffffffff16145b80611f6e5750611f6d81856118f1565b5b91505092915050565b8273ffffffffffffffffffffffffffffffffffffffff16611f9782610956565b73ffffffffffffffffffffffffffffffffffffffff1614611fed576040517f08c379a0000000000000000000000000000000000000000000000000000000008152600401611fe490613dba565b60405180910390fd5b600073ffffffffffffffffffffffffffffffffffffffff168273ffffffffffffffffffffffffffffffffffffffff16141561205d576040517f08c379a000000000000000000000000000000000000000000000000000000000815260040161205490613c9a565b60405180910390fd5b612068838383612a6e565b612073600082611de0565b6001600360008573ffffffffffffffffffffffffffffffffffffffff1673ffffffffffffffffffffffffffffffffffffffff16815260200190815260200160002060008282546120c39190614066565b925050819055506001600360008473ffffffffffffffffffffffffffffffffffffffff1673ffffffffffffffffffffffffffffffffffffffff168152602001908152602001600020600082825461211a9190613f85565b92505081905550816002600083815260200190815260200160002060006101000a81548173ffffffffffffffffffffffffffffffffffffffff021916908373ffffffffffffffffffffffffffffffffffffffff160217905550808273ffffffffffffffffffffffffffffffffffffffff168473ffffffffffffffffffffffffffffffffffffffff167fddf252ad1be2c89b69c2b068fc378daa952ba7f163c4a11628f55a4df523b3ef60405160405180910390a4505050565b8173ffffffffffffffffffffffffffffffffffffffff168373ffffffffffffffffffffffffffffffffffffffff161415612242576040517f08c379a000000000000000000000000000000000000000000000000000000000815260040161223990613cba565b60405180910390fd5b80600560008573ffffffffffffffffffffffffffffffffffffffff1673ffffffffffffffffffffffffffffffffffffffff16815260200190815260200160002060008473ffffffffffffffffffffffffffffffffffffffff1673ffffffffffffffffffffffffffffffffffffffff16815260200190815260200160002060006101000a81548160ff0219169083151502179055508173ffffffffffffffffffffffffffffffffffffffff168373ffffffffffffffffffffffffffffffffffffffff167f17307eab39ab6107e8899845ad3d59bd9653f200f220920489ca2b5937696c318360405161233391906139fe565b60405180910390a3505050565b61234b848484611f77565b61235784848484612a73565b612396576040517f08c379a000000000000000000000000000000000000000000000000000000000815260040161238d90613c3a565b60405180910390fd5b50505050565b606060008214156123e4576040518060400160405280600181526020017f30000000000000000000000000000000000000000000000000000000000000008152509050612544565b600082905060005b600082146124165780806123ff906141b3565b915050600a8261240f9190613fdb565b91506123ec565b60008167ffffffffffffffff811115612458577f4e487b7100000000000000000000000000000000000000000000000000000000600052604160045260246000fd5b6040519080825280601f01601f19166020018201604052801561248a5781602001600182028036833780820191505090505b5090505b6000851461253d576001826124a39190614066565b9150600a856124b291906141fc565b60306124be9190613f85565b60f81b8183815181106124fa577f4e487b7100000000000000000000000000000000000000000000000000000000600052603260045260246000fd5b60200101907effffffffffffffffffffffffffffffffffffffffffffffffffffffffffffff1916908160001a905350600a856125369190613fdb565b945061248e565b8093505050505b919050565b606060008251141561256c576040518060200160405280600081525090506126e3565b60006040518060600160405280604081526020016149d7604091399050600060036002855161259b9190613f85565b6125a59190613fdb565b60046125b1919061400c565b905060006020826125c29190613f85565b67ffffffffffffffff811115612601577f4e487b7100000000000000000000000000000000000000000000000000000000600052604160045260246000fd5b6040519080825280601f01601f1916602001820160405280156126335781602001600182028036833780820191505090505b509050818152600183018586518101602084015b818310156126a2576003830192508251603f8160121c168501518253600182019150603f81600c1c168501518253600182019150603f8160061c168501518253600182019150603f8116850151825360018201915050612647565b6003895106600181146126bc57600281146126cc576126d7565b613d3d60f01b60028303526126d7565b603d60f81b60018303525b50505050508093505050505b919050565b61278082826040516024016126fe929190613a3b565b6040516020818303038152906040527f4b5c4277000000000000000000000000000000000000000000000000000000007bffffffffffffffffffffffffffffffffffffffffffffffffffffffff19166020820180517bffffffffffffffffffffffffffffffffffffffffffffffffffffffff8381831617835250505050612a45565b5050565b6128208484848460405160240161279e9493929190613bee565b6040516020818303038152906040527f08ee5666000000000000000000000000000000000000000000000000000000007bffffffffffffffffffffffffffffffffffffffffffffffffffffffff19166020820180517bffffffffffffffffffffffffffffffffffffffffffffffffffffffff8381831617835250505050612a45565b50505050565b6128c2848484846040516024016128409493929190613acc565b6040516020818303038152906040527fd5cf17d0000000000000000000000000000000000000000000000000000000007bffffffffffffffffffffffffffffffffffffffffffffffffffffffff19166020820180517bffffffffffffffffffffffffffffffffffffffffffffffffffffffff8381831617835250505050612a45565b50505050565b61296082826040516024016128de929190613b80565b6040516020818303038152906040527f9710a9d0000000000000000000000000000000000000000000000000000000007bffffffffffffffffffffffffffffffffffffffffffffffffffffffff19166020820180517bffffffffffffffffffffffffffffffffffffffffffffffffffffffff8381831617835250505050612a45565b5050565b600081600001549050919050565b61298c828260405180602001604052806000815250612c0a565b5050565b612a2a8383836040516024016129a893929190613bb0565b6040516020818303038152906040527f969cdd03000000000000000000000000000000000000000000000000000000007bffffffffffffffffffffffffffffffffffffffffffffffffffffffff19166020820180517bffffffffffffffffffffffffffffffffffffffffffffffffffffffff8381831617835250505050612a45565b505050565b6001816000016000828254019250508190555050565b60008151905060006a636f6e736f6c652e6c6f679050602083016000808483855afa5050505050565b505050565b6000612a948473ffffffffffffffffffffffffffffffffffffffff16612c65565b15612bfd578373ffffffffffffffffffffffffffffffffffffffff1663150b7a02612abd611dd8565b8786866040518563ffffffff1660e01b8152600401612adf9493929190613959565b602060405180830381600087803b158015612af957600080fd5b505af1925050508015612b2a57506040513d601f19601f82011682018060405250810190612b2791906131e8565b60015b612bad573d8060008114612b5a576040519150601f19603f3d011682016040523d82523d6000602084013e612b5f565b606091505b50600081511415612ba5576040517f08c379a0000000000000000000000000000000000000000000000000000000008152600401612b9c90613c3a565b60405180910390fd5b805181602001fd5b63150b7a0260e01b7bffffffffffffffffffffffffffffffffffffffffffffffffffffffff1916817bffffffffffffffffffffffffffffffffffffffffffffffffffffffff191614915050612c02565b600190505b949350505050565b612c148383612c78565b612c216000848484612a73565b612c60576040517f08c379a0000000000000000000000000000000000000000000000000000000008152600401612c5790613c3a565b60405180910390fd5b505050565b600080823b905060008111915050919050565b600073ffffffffffffffffffffffffffffffffffffffff168273ffffffffffffffffffffffffffffffffffffffff161415612ce8576040517f08c379a0000000000000000000000000000000000000000000000000000000008152600401612cdf90613d7a565b60405180910390fd5b612cf181611d6c565b15612d31576040517f08c379a0000000000000000000000000000000000000000000000000000000008152600401612d2890613c7a565b60405180910390fd5b612d3d60008383612a6e565b6001600360008473ffffffffffffffffffffffffffffffffffffffff1673ffffffffffffffffffffffffffffffffffffffff1681526020019081526020016000206000828254612d8d9190613f85565b92505081905550816002600083815260200190815260200160002060006101000a81548173ffffffffffffffffffffffffffffffffffffffff021916908373ffffffffffffffffffffffffffffffffffffffff160217905550808273ffffffffffffffffffffffffffffffffffffffff16600073ffffffffffffffffffffffffffffffffffffffff167fddf252ad1be2c89b69c2b068fc378daa952ba7f163c4a11628f55a4df523b3ef60405160405180910390a45050565b6040518060a0016040528060608152602001606081526020016000815260200160008152602001600081525090565b6040518060a0016040528060608152602001606081526020016000815260200160008152602001600081525090565b828054612eb090614150565b90600052602060002090601f016020900481019282612ed25760008555612f19565b82601f10612eeb57805160ff1916838001178555612f19565b82800160010185558215612f19579182015b82811115612f18578251825591602001919060010190612efd565b5b509050612f269190612f2a565b5090565b5b80821115612f43576000816000905550600101612f2b565b5090565b6000612f5a612f5584613ec7565b613ea2565b905082815260208101848484011115612f7257600080fd5b612f7d84828561410e565b509392505050565b600081359050612f9481614955565b92915050565b600081359050612fa98161496c565b92915050565b600081359050612fbe81614983565b92915050565b600081519050612fd381614983565b92915050565b600082601f830112612fea57600080fd5b8135612ffa848260208601612f47565b91505092915050565b6000813590506130128161499a565b92915050565b60006020828403121561302a57600080fd5b600061303884828501612f85565b91505092915050565b6000806040838503121561305457600080fd5b600061306285828601612f85565b925050602061307385828601612f85565b9150509250929050565b60008060006060848603121561309257600080fd5b60006130a086828701612f85565b93505060206130b186828701612f85565b92505060406130c286828701613003565b9150509250925092565b600080600080608085870312156130e257600080fd5b60006130f087828801612f85565b945050602061310187828801612f85565b935050604061311287828801613003565b925050606085013567ffffffffffffffff81111561312f57600080fd5b61313b87828801612fd9565b91505092959194509250565b6000806040838503121561315a57600080fd5b600061316885828601612f85565b925050602061317985828601612f9a565b9150509250929050565b6000806040838503121561319657600080fd5b60006131a485828601612f85565b92505060206131b585828601613003565b9150509250929050565b6000602082840312156131d157600080fd5b60006131df84828501612faf565b91505092915050565b6000602082840312156131fa57600080fd5b600061320884828501612fc4565b91505092915050565b60006020828403121561322357600080fd5b600061323184828501613003565b91505092915050565b6000613246838361375f565b905092915050565b6132578161409a565b82525050565b600061326882613f08565b6132728185613f36565b93508360208202850161328485613ef8565b8060005b858110156132c057848403895281516132a1858261323a565b94506132ac83613f29565b925060208a01995050600181019050613288565b50829750879550505050505092915050565b6132db816140ac565b82525050565b60006132ec82613f13565b6132f68185613f47565b935061330681856020860161411d565b61330f816142e9565b840191505092915050565b600061332582613f1e565b61332f8185613f58565b935061333f81856020860161411d565b613348816142e9565b840191505092915050565b600061335e82613f1e565b6133688185613f69565b935061337881856020860161411d565b613381816142e9565b840191505092915050565b600061339782613f1e565b6133a18185613f7a565b93506133b181856020860161411d565b80840191505092915050565b60006133ca600b83613f7a565b91506133d5826142fa565b600b82019050919050565b60006133ed603283613f69565b91506133f882614323565b604082019050919050565b6000613410602883613f69565b915061341b82614372565b604082019050919050565b6000613433601c83613f69565b915061343e826143c1565b602082019050919050565b6000613456602483613f69565b9150613461826143ea565b604082019050919050565b6000613479601983613f69565b915061348482614439565b602082019050919050565b600061349c602c83613f69565b91506134a782614462565b604082019050919050565b60006134bf603883613f69565b91506134ca826144b1565b604082019050919050565b60006134e2602a83613f69565b91506134ed82614500565b604082019050919050565b6000613505602983613f69565b91506135108261454f565b604082019050919050565b6000613528602d83613f69565b91506135338261459e565b604082019050919050565b600061354b602083613f69565b9150613556826145ed565b602082019050919050565b600061356e602c83613f69565b915061357982614616565b604082019050919050565b6000613591602983613f69565b915061359c82614665565b604082019050919050565b60006135b4600a83613f7a565b91506135bf826146b4565b600a82019050919050565b60006135d7606d83613f7a565b91506135e2826146dd565b606d82019050919050565b60006135fa602183613f69565b915061360582614778565b604082019050919050565b600061361d601d83613f7a565b9150613628826147c7565b601d82019050919050565b6000613640603183613f69565b915061364b826147f0565b604082019050919050565b6000613663601683613f7a565b915061366e8261483f565b601682019050919050565b6000613686604083613f7a565b915061369182614868565b604082019050919050565b60006136a9603d83613f7a565b91506136b4826148b7565b603d82019050919050565b60006136cc603883613f7a565b91506136d782614906565b603882019050919050565b600060a08301600083015184820360008601526136ff828261331a565b91505060208301518482036020860152613719828261331a565b915050604083015161372e6040860182613859565b5060608301516137416060860182613859565b5060808301516137546080860182613859565b508091505092915050565b600060a083016000830151848203600086015261377c828261331a565b91505060208301518482036020860152613796828261331a565b91505060408301516137ab6040860182613859565b5060608301516137be6060860182613859565b5060808301516137d16080860182613859565b508091505092915050565b600060a08301600083015184820360008601526137f9828261331a565b91505060208301518482036020860152613813828261331a565b91505060408301516138286040860182613859565b50606083015161383b6060860182613859565b50608083015161384e6080860182613859565b508091505092915050565b61386281614104565b82525050565b61387181614104565b82525050565b6000613882826135a7565b915061388e828961338c565b9150613899826133bd565b91506138a5828861338c565b91506138b0826135ca565b91506138bc828761338c565b91506138c78261369c565b91506138d3828661338c565b91506138de82613679565b91506138ea828561338c565b91506138f5826136bf565b9150613901828461338c565b915061390c82613656565b9150819050979650505050505050565b600061392782613610565b9150613933828461338c565b915081905092915050565b6000602082019050613953600083018461324e565b92915050565b600060808201905061396e600083018761324e565b61397b602083018661324e565b6139886040830185613868565b818103606083015261399a81846132e1565b905095945050505050565b60006060820190506139ba600083018661324e565b6139c76020830185613868565b6139d46040830184613868565b949350505050565b600060208201905081810360008301526139f6818461325d565b905092915050565b6000602082019050613a1360008301846132d2565b92915050565b60006020820190508181036000830152613a338184613353565b905092915050565b60006040820190508181036000830152613a558185613353565b90508181036020830152613a698184613353565b90509392505050565b60006080820190508181036000830152613a8c8187613353565b90508181036020830152613aa08186613353565b9050613aaf6040830185613868565b8181036060830152613ac18184613353565b905095945050505050565b60006080820190508181036000830152613ae68187613353565b90508181036020830152613afa8186613353565b9050613b096040830185613868565b613b166060830184613868565b95945050505050565b600060a0820190508181036000830152613b398188613353565b90508181036020830152613b4d8187613353565b9050613b5c6040830186613868565b613b696060830185613868565b613b766080830184613868565b9695505050505050565b60006040820190508181036000830152613b9a8185613353565b9050613ba96020830184613868565b9392505050565b60006060820190508181036000830152613bca8186613353565b9050613bd96020830185613868565b613be66040830184613868565b949350505050565b60006080820190508181036000830152613c088187613353565b9050613c176020830186613868565b613c246040830185613868565b613c316060830184613868565b95945050505050565b60006020820190508181036000830152613c53816133e0565b9050919050565b60006020820190508181036000830152613c7381613403565b9050919050565b60006020820190508181036000830152613c9381613426565b9050919050565b60006020820190508181036000830152613cb381613449565b9050919050565b60006020820190508181036000830152613cd38161346c565b9050919050565b60006020820190508181036000830152613cf38161348f565b9050919050565b60006020820190508181036000830152613d13816134b2565b9050919050565b60006020820190508181036000830152613d33816134d5565b9050919050565b60006020820190508181036000830152613d53816134f8565b9050919050565b60006020820190508181036000830152613d738161351b565b9050919050565b60006020820190508181036000830152613d938161353e565b9050919050565b60006020820190508181036000830152613db381613561565b9050919050565b60006020820190508181036000830152613dd381613584565b9050919050565b60006020820190508181036000830152613df3816135ed565b9050919050565b60006020820190508181036000830152613e1381613633565b9050919050565b60006020820190508181036000830152613e3481846136e2565b905092915050565b60006020820190508181036000830152613e5681846137dc565b905092915050565b6000602082019050613e736000830184613868565b92915050565b6000604082019050613e8e6000830185613868565b613e9b6020830184613868565b9392505050565b6000613eac613ebd565b9050613eb88282614182565b919050565b6000604051905090565b600067ffffffffffffffff821115613ee257613ee16142ba565b5b613eeb826142e9565b9050602081019050919050565b6000819050602082019050919050565b600081519050919050565b600081519050919050565b600081519050919050565b6000602082019050919050565b600082825260208201905092915050565b600082825260208201905092915050565b600082825260208201905092915050565b600082825260208201905092915050565b600081905092915050565b6000613f9082614104565b9150613f9b83614104565b9250827fffffffffffffffffffffffffffffffffffffffffffffffffffffffffffffffff03821115613fd057613fcf61422d565b5b828201905092915050565b6000613fe682614104565b9150613ff183614104565b9250826140015761400061425c565b5b828204905092915050565b600061401782614104565b915061402283614104565b9250817fffffffffffffffffffffffffffffffffffffffffffffffffffffffffffffffff048311821515161561405b5761405a61422d565b5b828202905092915050565b600061407182614104565b915061407c83614104565b92508282101561408f5761408e61422d565b5b828203905092915050565b60006140a5826140e4565b9050919050565b60008115159050919050565b60007fffffffff0000000000000000000000000000000000000000000000000000000082169050919050565b600073ffffffffffffffffffffffffffffffffffffffff82169050919050565b6000819050919050565b82818337600083830152505050565b60005b8381101561413b578082015181840152602081019050614120565b8381111561414a576000848401525b50505050565b6000600282049050600182168061416857607f821691505b6020821081141561417c5761417b61428b565b5b50919050565b61418b826142e9565b810181811067ffffffffffffffff821117156141aa576141a96142ba565b5b80604052505050565b60006141be82614104565b91507fffffffffffffffffffffffffffffffffffffffffffffffffffffffffffffffff8214156141f1576141f061422d565b5b600182019050919050565b600061420782614104565b915061421283614104565b9250826142225761422161425c565b5b828206905092915050565b7f4e487b7100000000000000000000000000000000000000000000000000000000600052601160045260246000fd5b7f4e487b7100000000000000000000000000000000000000000000000000000000600052601260045260246000fd5b7f4e487b7100000000000000000000000000000000000000000000000000000000600052602260045260246000fd5b7f4e487b7100000000000000000000000000000000000000000000000000000000600052604160045260246000fd5b6000601f19601f8301169050919050565b7f202d2d204e465420233a20000000000000000000000000000000000000000000600082015250565b7f4552433732313a207472616e7366657220746f206e6f6e20455243373231526560008201527f63656976657220696d706c656d656e7465720000000000000000000000000000602082015250565b7f4572726f723a20626f7373206d757374206861766520485020746f206174746160008201527f636b20626f73732e000000000000000000000000000000000000000000000000602082015250565b7f4552433732313a20746f6b656e20616c7265616479206d696e74656400000000600082015250565b7f4552433732313a207472616e7366657220746f20746865207a65726f2061646460008201527f7265737300000000000000000000000000000000000000000000000000000000602082015250565b7f4552433732313a20617070726f766520746f2063616c6c657200000000000000600082015250565b7f4552433732313a206f70657261746f7220717565727920666f72206e6f6e657860008201527f697374656e7420746f6b656e0000000000000000000000000000000000000000602082015250565b7f4552433732313a20617070726f76652063616c6c6572206973206e6f74206f7760008201527f6e6572206e6f7220617070726f76656420666f7220616c6c0000000000000000602082015250565b7f4552433732313a2062616c616e636520717565727920666f7220746865207a6560008201527f726f206164647265737300000000000000000000000000000000000000000000602082015250565b7f4552433732313a206f776e657220717565727920666f72206e6f6e657869737460008201527f656e7420746f6b656e0000000000000000000000000000000000000000000000602082015250565b7f4572726f723a20636861726163746572206d757374206861766520485020746f60008201527f2061747461636b20626f73732e00000000000000000000000000000000000000602082015250565b7f4552433732313a206d696e7420746f20746865207a65726f2061646472657373600082015250565b7f4552433732313a20617070726f76656420717565727920666f72206e6f6e657860008201527f697374656e7420746f6b656e0000000000000000000000000000000000000000602082015250565b7f4552433732313a207472616e73666572206f6620746f6b656e2074686174206960008201527f73206e6f74206f776e0000000000000000000000000000000000000000000000602082015250565b7f7b226e616d65223a202200000000000000000000000000000000000000000000600082015250565b7f222c20226465736372697074696f6e223a2022437269746963616c486974206960008201527f732061207475726e2d6261736564204e46542067616d6520776865726520796f60208201527f752074616b65207475726e7320746f2061747461636b2074686520626f6f732e60408201527f222c2022696d616765223a202200000000000000000000000000000000000000606082015250565b7f4552433732313a20617070726f76616c20746f2063757272656e74206f776e6560008201527f7200000000000000000000000000000000000000000000000000000000000000602082015250565b7f646174613a6170706c69636174696f6e2f6a736f6e3b6261736536342c000000600082015250565b7f4552433732313a207472616e736665722063616c6c6572206973206e6f74206f60008201527f776e6572206e6f7220617070726f766564000000000000000000000000000000602082015250565b7f2c20226d61785f76616c7565223a203130307d205d7d00000000000000000000600082015250565b7f2c20226d61785f76616c7565223a20333030207d2c207b202274726169745f7460008201527f797065223a202241747461636b2044616d616765222c202276616c7565223a20602082015250565b7f222c202261747472696275746573223a205b207b202274726169745f7479706560008201527f223a20224865616c746820506f696e7473222c202276616c7565223a20000000602082015250565b7f2c20226d61785f76616c7565223a203430307d2c207b202274726169745f747960008201527f7065223a2022536869656c64222c202276616c7565223a200000000000000000602082015250565b61495e8161409a565b811461496957600080fd5b50565b614975816140ac565b811461498057600080fd5b50565b61498c816140b8565b811461499757600080fd5b50565b6149a381614104565b81146149ae57600080fd5b5056fe506c617965722061747461636b656420626f73732e204e657720626f73732068703a2025734142434445464748494a4b4c4d4e4f505152535455565758595a6162636465666768696a6b6c6d6e6f707172737475767778797a303132333435363738392b2f426f73732061747461636b656420706c617965722e204e657720706c617965722068703a2025730a506c61796572206861732025732048502c20257320414420616e642025732053680a0a506c6179657220772f206368617261637465722025732061626f757420746f2061747461636b4d696e746564204e465420772f20746f6b656e496420257320616e64206368617261637465724964202573a26469706673582212200229d7dc271c2f176cd73658cbf594afb75bc427d80965cc6fccf008107f08d264736f6c63430008040033446f6e6520696e697469616c697a696e6720257320772f2048502025732c20696d67202573446f6e6520696e697469616c697a696e6720626f737320257320772f2048502025732c20696d67202573",
  "linkReferences": {},
  "deployedLinkReferences": {}
}