{
  "_format": "hh-sol-artifact-1",
  "contractName": "MyEpicGame",
  "sourceName": "contracts/MyEpicGame.sol",
  "abi": [
    {
      "inputs": [
        {
          "internalType": "string",
          "name": "bossName",
          "type": "string"
        },
        {
          "internalType": "string",
          "name": "bossImageURI",
          "type": "string"
        },
        {
          "internalType": "uint256",
          "name": "bossHp",
          "type": "uint256"
        },
        {
          "internalType": "uint256",
          "name": "bossAttackDamage",
          "type": "uint256"
        },
        {
          "internalType": "string[]",
          "name": "characterNames",
          "type": "string[]"
        },
        {
          "internalType": "string[]",
          "name": "characterImageURIs",
          "type": "string[]"
        },
        {
          "internalType": "uint256[]",
          "name": "characterHp",
          "type": "uint256[]"
        },
        {
          "internalType": "uint256[]",
          "name": "characterAttackDmg",
          "type": "uint256[]"
        },
        {
          "internalType": "uint256[]",
          "name": "characterShield",
          "type": "uint256[]"
        }
      ],
      "stateMutability": "nonpayable",
      "type": "constructor"
    },
    {
      "anonymous": false,
      "inputs": [
        {
          "indexed": true,
          "internalType": "address",
          "name": "owner",
          "type": "address"
        },
        {
          "indexed": true,
          "internalType": "address",
          "name": "approved",
          "type": "address"
        },
        {
          "indexed": true,
          "internalType": "uint256",
          "name": "tokenId",
          "type": "uint256"
        }
      ],
      "name": "Approval",
      "type": "event"
    },
    {
      "anonymous": false,
      "inputs": [
        {
          "indexed": true,
          "internalType": "address",
          "name": "owner",
          "type": "address"
        },
        {
          "indexed": true,
          "internalType": "address",
          "name": "operator",
          "type": "address"
        },
        {
          "indexed": false,
          "internalType": "bool",
          "name": "approved",
          "type": "bool"
        }
      ],
      "name": "ApprovalForAll",
      "type": "event"
    },
    {
      "anonymous": false,
      "inputs": [
        {
          "indexed": false,
          "internalType": "uint256",
          "name": "newBossHp",
          "type": "uint256"
        },
        {
          "indexed": false,
          "internalType": "uint256",
          "name": "newPlayerHp",
          "type": "uint256"
        }
      ],
      "name": "AttackBossComplete",
      "type": "event"
    },
    {
      "anonymous": false,
      "inputs": [
        {
          "indexed": false,
          "internalType": "uint256",
          "name": "newBossHp",
          "type": "uint256"
        },
        {
          "indexed": false,
          "internalType": "uint256",
          "name": "newPlayerHp",
          "type": "uint256"
        }
      ],
      "name": "AttackCharacterComplete",
      "type": "event"
    },
    {
      "anonymous": false,
      "inputs": [
        {
          "indexed": false,
          "internalType": "address",
          "name": "sender",
          "type": "address"
        },
        {
          "indexed": false,
          "internalType": "uint256",
          "name": "tokenId",
          "type": "uint256"
        },
        {
          "indexed": false,
          "internalType": "uint256",
          "name": "characterIndex",
          "type": "uint256"
        }
      ],
      "name": "CharacterNFTMinted",
      "type": "event"
    },
    {
      "anonymous": false,
      "inputs": [
        {
          "indexed": true,
          "internalType": "address",
          "name": "from",
          "type": "address"
        },
        {
          "indexed": true,
          "internalType": "address",
          "name": "to",
          "type": "address"
        },
        {
          "indexed": true,
          "internalType": "uint256",
          "name": "tokenId",
          "type": "uint256"
        }
      ],
      "name": "Transfer",
      "type": "event"
    },
    {
      "inputs": [
        {
          "internalType": "address",
          "name": "to",
          "type": "address"
        },
        {
          "internalType": "uint256",
          "name": "tokenId",
          "type": "uint256"
        }
      ],
      "name": "approve",
      "outputs": [],
      "stateMutability": "nonpayable",
      "type": "function"
    },
    {
      "inputs": [],
      "name": "attackBoss",
      "outputs": [],
      "stateMutability": "nonpayable",
      "type": "function"
    },
    {
      "inputs": [],
      "name": "attackCharacter",
      "outputs": [],
      "stateMutability": "nonpayable",
      "type": "function"
    },
    {
      "inputs": [
        {
          "internalType": "address",
          "name": "owner",
          "type": "address"
        }
      ],
      "name": "balanceOf",
      "outputs": [
        {
          "internalType": "uint256",
          "name": "",
          "type": "uint256"
        }
      ],
      "stateMutability": "view",
      "type": "function"
    },
    {
      "inputs": [],
      "name": "bigBoss",
      "outputs": [
        {
          "internalType": "string",
          "name": "name",
          "type": "string"
        },
        {
          "internalType": "string",
          "name": "imageURI",
          "type": "string"
        },
        {
          "internalType": "uint256",
          "name": "hp",
          "type": "uint256"
        },
        {
          "internalType": "uint256",
          "name": "maxHp",
          "type": "uint256"
        },
        {
          "internalType": "uint256",
          "name": "attackDamage",
          "type": "uint256"
        }
      ],
      "stateMutability": "view",
      "type": "function"
    },
    {
      "inputs": [],
      "name": "checkIfUserHasNFT",
      "outputs": [
        {
          "components": [
            {
              "internalType": "uint256",
              "name": "characterIndex",
              "type": "uint256"
            },
            {
              "internalType": "string",
              "name": "name",
              "type": "string"
            },
            {
              "internalType": "string",
              "name": "imageURI",
              "type": "string"
            },
            {
              "internalType": "uint256",
              "name": "hp",
              "type": "uint256"
            },
            {
              "internalType": "uint256",
              "name": "maxHp",
              "type": "uint256"
            },
            {
              "internalType": "uint256",
              "name": "attackDamage",
              "type": "uint256"
            },
            {
              "internalType": "uint256",
              "name": "shield",
              "type": "uint256"
            }
          ],
          "internalType": "struct MyEpicGame.CharacterAttributes",
          "name": "",
          "type": "tuple"
        }
      ],
      "stateMutability": "view",
      "type": "function"
    },
    {
      "inputs": [
        {
          "internalType": "uint256",
          "name": "",
          "type": "uint256"
        }
      ],
      "name": "defaultAttributes",
      "outputs": [
        {
          "internalType": "uint256",
          "name": "characterIndex",
          "type": "uint256"
        },
        {
          "internalType": "string",
          "name": "name",
          "type": "string"
        },
        {
          "internalType": "string",
          "name": "imageURI",
          "type": "string"
        },
        {
          "internalType": "uint256",
          "name": "hp",
          "type": "uint256"
        },
        {
          "internalType": "uint256",
          "name": "maxHp",
          "type": "uint256"
        },
        {
          "internalType": "uint256",
          "name": "attackDamage",
          "type": "uint256"
        },
        {
          "internalType": "uint256",
          "name": "shield",
          "type": "uint256"
        }
      ],
      "stateMutability": "view",
      "type": "function"
    },
    {
      "inputs": [],
      "name": "getAllDefaultCharacters",
      "outputs": [
        {
          "components": [
            {
              "internalType": "uint256",
              "name": "characterIndex",
              "type": "uint256"
            },
            {
              "internalType": "string",
              "name": "name",
              "type": "string"
            },
            {
              "internalType": "string",
              "name": "imageURI",
              "type": "string"
            },
            {
              "internalType": "uint256",
              "name": "hp",
              "type": "uint256"
            },
            {
              "internalType": "uint256",
              "name": "maxHp",
              "type": "uint256"
            },
            {
              "internalType": "uint256",
              "name": "attackDamage",
              "type": "uint256"
            },
            {
              "internalType": "uint256",
              "name": "shield",
              "type": "uint256"
            }
          ],
          "internalType": "struct MyEpicGame.CharacterAttributes[]",
          "name": "",
          "type": "tuple[]"
        }
      ],
      "stateMutability": "view",
      "type": "function"
    },
    {
      "inputs": [
        {
          "internalType": "uint256",
          "name": "tokenId",
          "type": "uint256"
        }
      ],
      "name": "getApproved",
      "outputs": [
        {
          "internalType": "address",
          "name": "",
          "type": "address"
        }
      ],
      "stateMutability": "view",
      "type": "function"
    },
    {
      "inputs": [],
      "name": "getBigBoss",
      "outputs": [
        {
          "components": [
            {
              "internalType": "string",
              "name": "name",
              "type": "string"
            },
            {
              "internalType": "string",
              "name": "imageURI",
              "type": "string"
            },
            {
              "internalType": "uint256",
              "name": "hp",
              "type": "uint256"
            },
            {
              "internalType": "uint256",
              "name": "maxHp",
              "type": "uint256"
            },
            {
              "internalType": "uint256",
              "name": "attackDamage",
              "type": "uint256"
            }
          ],
          "internalType": "struct MyEpicGame.BigBoss",
          "name": "",
          "type": "tuple"
        }
      ],
      "stateMutability": "view",
      "type": "function"
    },
    {
      "inputs": [
        {
          "internalType": "address",
          "name": "owner",
          "type": "address"
        },
        {
          "internalType": "address",
          "name": "operator",
          "type": "address"
        }
      ],
      "name": "isApprovedForAll",
      "outputs": [
        {
          "internalType": "bool",
          "name": "",
          "type": "bool"
        }
      ],
      "stateMutability": "view",
      "type": "function"
    },
    {
      "inputs": [
        {
          "internalType": "uint256",
          "name": "_characterIndex",
          "type": "uint256"
        }
      ],
      "name": "mintCharacterNFT",
      "outputs": [],
      "stateMutability": "nonpayable",
      "type": "function"
    },
    {
      "inputs": [],
      "name": "name",
      "outputs": [
        {
          "internalType": "string",
          "name": "",
          "type": "string"
        }
      ],
      "stateMutability": "view",
      "type": "function"
    },
    {
      "inputs": [
        {
          "internalType": "uint256",
          "name": "",
          "type": "uint256"
        }
      ],
      "name": "nftHolderAttributes",
      "outputs": [
        {
          "internalType": "uint256",
          "name": "characterIndex",
          "type": "uint256"
        },
        {
          "internalType": "string",
          "name": "name",
          "type": "string"
        },
        {
          "internalType": "string",
          "name": "imageURI",
          "type": "string"
        },
        {
          "internalType": "uint256",
          "name": "hp",
          "type": "uint256"
        },
        {
          "internalType": "uint256",
          "name": "maxHp",
          "type": "uint256"
        },
        {
          "internalType": "uint256",
          "name": "attackDamage",
          "type": "uint256"
        },
        {
          "internalType": "uint256",
          "name": "shield",
          "type": "uint256"
        }
      ],
      "stateMutability": "view",
      "type": "function"
    },
    {
      "inputs": [
        {
          "internalType": "address",
          "name": "",
          "type": "address"
        }
      ],
      "name": "nftHolders",
      "outputs": [
        {
          "internalType": "uint256",
          "name": "",
          "type": "uint256"
        }
      ],
      "stateMutability": "view",
      "type": "function"
    },
    {
      "inputs": [
        {
          "internalType": "uint256",
          "name": "tokenId",
          "type": "uint256"
        }
      ],
      "name": "ownerOf",
      "outputs": [
        {
          "internalType": "address",
          "name": "",
          "type": "address"
        }
      ],
      "stateMutability": "view",
      "type": "function"
    },
    {
      "inputs": [
        {
          "internalType": "address",
          "name": "from",
          "type": "address"
        },
        {
          "internalType": "address",
          "name": "to",
          "type": "address"
        },
        {
          "internalType": "uint256",
          "name": "tokenId",
          "type": "uint256"
        }
      ],
      "name": "safeTransferFrom",
      "outputs": [],
      "stateMutability": "nonpayable",
      "type": "function"
    },
    {
      "inputs": [
        {
          "internalType": "address",
          "name": "from",
          "type": "address"
        },
        {
          "internalType": "address",
          "name": "to",
          "type": "address"
        },
        {
          "internalType": "uint256",
          "name": "tokenId",
          "type": "uint256"
        },
        {
          "internalType": "bytes",
          "name": "_data",
          "type": "bytes"
        }
      ],
      "name": "safeTransferFrom",
      "outputs": [],
      "stateMutability": "nonpayable",
      "type": "function"
    },
    {
      "inputs": [
        {
          "internalType": "address",
          "name": "operator",
          "type": "address"
        },
        {
          "internalType": "bool",
          "name": "approved",
          "type": "bool"
        }
      ],
      "name": "setApprovalForAll",
      "outputs": [],
      "stateMutability": "nonpayable",
      "type": "function"
    },
    {
      "inputs": [
        {
          "internalType": "bytes4",
          "name": "interfaceId",
          "type": "bytes4"
        }
      ],
      "name": "supportsInterface",
      "outputs": [
        {
          "internalType": "bool",
          "name": "",
          "type": "bool"
        }
      ],
      "stateMutability": "view",
      "type": "function"
    },
    {
      "inputs": [],
      "name": "symbol",
      "outputs": [
        {
          "internalType": "string",
          "name": "",
          "type": "string"
        }
      ],
      "stateMutability": "view",
      "type": "function"
    },
    {
      "inputs": [
        {
          "internalType": "uint256",
          "name": "_tokenId",
          "type": "uint256"
        }
      ],
      "name": "tokenURI",
      "outputs": [
        {
          "internalType": "string",
          "name": "",
          "type": "string"
        }
      ],
      "stateMutability": "view",
      "type": "function"
    },
    {
      "inputs": [
        {
          "internalType": "address",
          "name": "from",
          "type": "address"
        },
        {
          "internalType": "address",
          "name": "to",
          "type": "address"
        },
        {
          "internalType": "uint256",
          "name": "tokenId",
          "type": "uint256"
        }
      ],
      "name": "transferFrom",
      "outputs": [],
      "stateMutability": "nonpayable",
      "type": "function"
    }
  ],
  "bytecode": "0x60806040523480156200001157600080fd5b506040516200606f3803806200606f833981810160405281019062000037919062000ab4565b6040518060400160405280600681526020017f4865726f657300000000000000000000000000000000000000000000000000008152506040518060400160405280600481526020017f4845524f000000000000000000000000000000000000000000000000000000008152508160009080519060200190620000bb9291906200081c565b508060019080519060200190620000d49291906200081c565b5050506040518060a001604052808a815260200189815260200188815260200188815260200187815250600660008201518160000190805190602001906200011e9291906200081c565b5060208201518160010190805190602001906200013d9291906200081c565b50604082015181600201556060820151816003015560808201518160040155905050620002c06040518060600160405280602a815260200162006045602a9139600660000180546200018f9062000e66565b80601f0160208091040260200160405190810160405280929190818152602001828054620001bd9062000e66565b80156200020e5780601f10620001e2576101008083540402835291602001916200020e565b820191906000526020600020905b815481529060010190602001808311620001f057829003601f168201915b5050505050600660020154600660010180546200022b9062000e66565b80601f0160208091040260200160405190810160405280929190818152602001828054620002599062000e66565b8015620002aa5780601f106200027e57610100808354040283529160200191620002aa565b820191906000526020600020905b8154815290600101906020018083116200028c57829003601f168201915b50505050506200074760201b620021271760201c565b60005b85518110156200073757600c6040518060e001604052808381526020018884815181106200031a577f4e487b7100000000000000000000000000000000000000000000000000000000600052603260045260246000fd5b6020026020010151815260200187848151811062000361577f4e487b7100000000000000000000000000000000000000000000000000000000600052603260045260246000fd5b60200260200101518152602001868481518110620003a8577f4e487b7100000000000000000000000000000000000000000000000000000000600052603260045260246000fd5b60200260200101518152602001868481518110620003ef577f4e487b7100000000000000000000000000000000000000000000000000000000600052603260045260246000fd5b6020026020010151815260200185848151811062000436577f4e487b7100000000000000000000000000000000000000000000000000000000600052603260045260246000fd5b602002602001015181526020018484815181106200047d577f4e487b7100000000000000000000000000000000000000000000000000000000600052603260045260246000fd5b60200260200101518152509080600181540180825580915050600190039060005260206000209060070201600090919091909150600082015181600001556020820151816001019080519060200190620004d99291906200081c565b506040820151816002019080519060200190620004f89291906200081c565b50606082015181600301556080820151816004015560a0820151816005015560c0820151816006015550506000600c828154811062000560577f4e487b7100000000000000000000000000000000000000000000000000000000600052603260045260246000fd5b90600052602060002090600702016040518060e001604052908160008201548152602001600182018054620005959062000e66565b80601f0160208091040260200160405190810160405280929190818152602001828054620005c39062000e66565b8015620006145780601f10620005e85761010080835404028352916020019162000614565b820191906000526020600020905b815481529060010190602001808311620005f657829003601f168201915b505050505081526020016002820180546200062f9062000e66565b80601f01602080910402602001604051908101604052809291908181526020018280546200065d9062000e66565b8015620006ae5780601f106200068257610100808354040283529160200191620006ae565b820191906000526020600020905b8154815290600101906020018083116200069057829003601f168201915b5050505050815260200160038201548152602001600482015481526020016005820154815260200160068201548152505090506200071f60405180606001604052806025815260200162006020602591398260200151836060015184604001516200074760201b620021271760201c565b506001816200072f919062000dc9565b9050620002c3565b5050505050505050505062000f8a565b620007ed8484848460405160240162000764949392919062000c8e565b6040516020818303038152906040527f8d142cdd000000000000000000000000000000000000000000000000000000007bffffffffffffffffffffffffffffffffffffffffffffffffffffffff19166020820180517bffffffffffffffffffffffffffffffffffffffffffffffffffffffff8381831617835250505050620007f360201b60201c565b50505050565b60008151905060006a636f6e736f6c652e6c6f679050602083016000808483855afa5050505050565b8280546200082a9062000e66565b90600052602060002090601f0160209004810192826200084e57600085556200089a565b82601f106200086957805160ff19168380011785556200089a565b828001600101855582156200089a579182015b82811115620008995782518255916020019190600101906200087c565b5b509050620008a99190620008ad565b5090565b5b80821115620008c8576000816000905550600101620008ae565b5090565b6000620008e3620008dd8462000d19565b62000cf0565b905080838252602082019050828560208602820111156200090357600080fd5b60005b858110156200095257815167ffffffffffffffff8111156200092757600080fd5b80860162000936898262000a70565b8552602085019450602084019350505060018101905062000906565b5050509392505050565b6000620009736200096d8462000d48565b62000cf0565b905080838252602082019050828560208602820111156200099357600080fd5b60005b85811015620009c75781620009ac888262000a9d565b84526020840193506020830192505060018101905062000996565b5050509392505050565b6000620009e8620009e28462000d77565b62000cf0565b90508281526020810184848401111562000a0157600080fd5b62000a0e84828562000e30565b509392505050565b600082601f83011262000a2857600080fd5b815162000a3a848260208601620008cc565b91505092915050565b600082601f83011262000a5557600080fd5b815162000a678482602086016200095c565b91505092915050565b600082601f83011262000a8257600080fd5b815162000a94848260208601620009d1565b91505092915050565b60008151905062000aae8162000f70565b92915050565b60008060008060008060008060006101208a8c03121562000ad457600080fd5b60008a015167ffffffffffffffff81111562000aef57600080fd5b62000afd8c828d0162000a70565b99505060208a015167ffffffffffffffff81111562000b1b57600080fd5b62000b298c828d0162000a70565b985050604062000b3c8c828d0162000a9d565b975050606062000b4f8c828d0162000a9d565b96505060808a015167ffffffffffffffff81111562000b6d57600080fd5b62000b7b8c828d0162000a16565b95505060a08a015167ffffffffffffffff81111562000b9957600080fd5b62000ba78c828d0162000a16565b94505060c08a015167ffffffffffffffff81111562000bc557600080fd5b62000bd38c828d0162000a43565b93505060e08a015167ffffffffffffffff81111562000bf157600080fd5b62000bff8c828d0162000a43565b9250506101008a015167ffffffffffffffff81111562000c1e57600080fd5b62000c2c8c828d0162000a43565b9150509295985092959850929598565b600062000c498262000dad565b62000c55818562000db8565b935062000c6781856020860162000e30565b62000c728162000f5f565b840191505092915050565b62000c888162000e26565b82525050565b6000608082019050818103600083015262000caa818762000c3c565b9050818103602083015262000cc0818662000c3c565b905062000cd1604083018562000c7d565b818103606083015262000ce5818462000c3c565b905095945050505050565b600062000cfc62000d0f565b905062000d0a828262000e9c565b919050565b6000604051905090565b600067ffffffffffffffff82111562000d375762000d3662000f30565b5b602082029050602081019050919050565b600067ffffffffffffffff82111562000d665762000d6562000f30565b5b602082029050602081019050919050565b600067ffffffffffffffff82111562000d955762000d9462000f30565b5b62000da08262000f5f565b9050602081019050919050565b600081519050919050565b600082825260208201905092915050565b600062000dd68262000e26565b915062000de38362000e26565b9250827fffffffffffffffffffffffffffffffffffffffffffffffffffffffffffffffff0382111562000e1b5762000e1a62000ed2565b5b828201905092915050565b6000819050919050565b60005b8381101562000e5057808201518184015260208101905062000e33565b8381111562000e60576000848401525b50505050565b6000600282049050600182168062000e7f57607f821691505b6020821081141562000e965762000e9562000f01565b5b50919050565b62000ea78262000f5f565b810181811067ffffffffffffffff8211171562000ec95762000ec862000f30565b5b80604052505050565b7f4e487b7100000000000000000000000000000000000000000000000000000000600052601160045260246000fd5b7f4e487b7100000000000000000000000000000000000000000000000000000000600052602260045260246000fd5b7f4e487b7100000000000000000000000000000000000000000000000000000000600052604160045260246000fd5b6000601f19601f8301169050919050565b62000f7b8162000e26565b811462000f8757600080fd5b50565b6150868062000f9a6000396000f3fe608060405234801561001057600080fd5b506004361061014d5760003560e01c806390a7b1e2116100c3578063b953084e1161007c578063b953084e146103c0578063c87b56dd146103de578063c8cf27f41461040e578063d4f24c5b1461042c578063e985e9c514610436578063f8b81ef7146104665761014d565b806390a7b1e21461030857806395d89b411461031257806398da4c9514610330578063a22cb46514610366578063a9c3267914610382578063b88d4fde146103a45761014d565b806323b872dd1161011557806323b872dd1461020a57806342842e0e146102265780636352211e146102425780636a9081521461027257806370a08231146102a85780637df124a1146102d85761014d565b806301ffc9a7146101525780630665f9611461018257806306fdde03146101a0578063081812fc146101be578063095ea7b3146101ee575b600080fd5b61016c60048036038101906101679190613694565b610482565b6040516101799190613f1f565b60405180910390f35b61018a610564565b604051610197919061433b565b60405180910390f35b6101a86106c0565b6040516101b59190613f3a565b60405180910390f35b6101d860048036038101906101d391906136e6565b610752565b6040516101e59190613e5f565b60405180910390f35b61020860048036038101906102039190613658565b6107d7565b005b610224600480360381019061021f9190613552565b6108ef565b005b610240600480360381019061023b9190613552565b61094f565b005b61025c600480360381019061025791906136e6565b61096f565b6040516102699190613e5f565b60405180910390f35b61028c600480360381019061028791906136e6565b610a21565b60405161029f979695949392919061439a565b60405180910390f35b6102c260048036038101906102bd91906134ed565b610b73565b6040516102cf919061437f565b60405180910390f35b6102f260048036038101906102ed91906134ed565b610c2b565b6040516102ff919061437f565b60405180910390f35b610310610c43565b005b61031a610fab565b6040516103279190613f3a565b60405180910390f35b61034a600480360381019061034591906136e6565b61103d565b60405161035d979695949392919061439a565b60405180910390f35b610380600480360381019061037b919061361c565b61118f565b005b61038a6111a5565b60405161039b959493929190614040565b60405180910390f35b6103be60048036038101906103b991906135a1565b6112d9565b005b6103c861133b565b6040516103d59190613efd565b60405180910390f35b6103f860048036038101906103f391906136e6565b6114f0565b6040516104059190613f3a565b60405180910390f35b610416611715565b604051610423919061435d565b60405180910390f35b6104346118f7565b005b610450600480360381019061044b9190613516565b611c44565b60405161045d9190613f1f565b60405180910390f35b610480600480360381019061047b91906136e6565b611cd8565b005b60007f80ac58cd000000000000000000000000000000000000000000000000000000007bffffffffffffffffffffffffffffffffffffffffffffffffffffffff1916827bffffffffffffffffffffffffffffffffffffffffffffffffffffffff1916148061054d57507f5b5e139f000000000000000000000000000000000000000000000000000000007bffffffffffffffffffffffffffffffffffffffffffffffffffffffff1916827bffffffffffffffffffffffffffffffffffffffffffffffffffffffff1916145b8061055d575061055c826121c9565b5b9050919050565b61056c61330d565b60066040518060a0016040529081600082018054610589906146ee565b80601f01602080910402602001604051908101604052809291908181526020018280546105b5906146ee565b80156106025780601f106105d757610100808354040283529160200191610602565b820191906000526020600020905b8154815290600101906020018083116105e557829003601f168201915b5050505050815260200160018201805461061b906146ee565b80601f0160208091040260200160405190810160405280929190818152602001828054610647906146ee565b80156106945780601f1061066957610100808354040283529160200191610694565b820191906000526020600020905b81548152906001019060200180831161067757829003601f168201915b505050505081526020016002820154815260200160038201548152602001600482015481525050905090565b6060600080546106cf906146ee565b80601f01602080910402602001604051908101604052809291908181526020018280546106fb906146ee565b80156107485780601f1061071d57610100808354040283529160200191610748565b820191906000526020600020905b81548152906001019060200180831161072b57829003601f168201915b5050505050905090565b600061075d82612233565b61079c576040517f08c379a0000000000000000000000000000000000000000000000000000000008152600401610793906142bb565b60405180910390fd5b6004600083815260200190815260200160002060009054906101000a900473ffffffffffffffffffffffffffffffffffffffff169050919050565b60006107e28261096f565b90508073ffffffffffffffffffffffffffffffffffffffff168373ffffffffffffffffffffffffffffffffffffffff161415610853576040517f08c379a000000000000000000000000000000000000000000000000000000000815260040161084a906142fb565b60405180910390fd5b8073ffffffffffffffffffffffffffffffffffffffff1661087261229f565b73ffffffffffffffffffffffffffffffffffffffff1614806108a157506108a08161089b61229f565b611c44565b5b6108e0576040517f08c379a00000000000000000000000000000000000000000000000000000000081526004016108d79061421b565b60405180910390fd5b6108ea83836122a7565b505050565b6109006108fa61229f565b82612360565b61093f576040517f08c379a00000000000000000000000000000000000000000000000000000000081526004016109369061431b565b60405180910390fd5b61094a83838361243e565b505050565b61096a838383604051806020016040528060008152506112d9565b505050565b6000806002600084815260200190815260200160002060009054906101000a900473ffffffffffffffffffffffffffffffffffffffff169050600073ffffffffffffffffffffffffffffffffffffffff168173ffffffffffffffffffffffffffffffffffffffff161415610a18576040517f08c379a0000000000000000000000000000000000000000000000000000000008152600401610a0f9061425b565b60405180910390fd5b80915050919050565b600e602052806000526040600020600091509050806000015490806001018054610a4a906146ee565b80601f0160208091040260200160405190810160405280929190818152602001828054610a76906146ee565b8015610ac35780601f10610a9857610100808354040283529160200191610ac3565b820191906000526020600020905b815481529060010190602001808311610aa657829003601f168201915b505050505090806002018054610ad8906146ee565b80601f0160208091040260200160405190810160405280929190818152602001828054610b04906146ee565b8015610b515780601f10610b2657610100808354040283529160200191610b51565b820191906000526020600020905b815481529060010190602001808311610b3457829003601f168201915b5050505050908060030154908060040154908060050154908060060154905087565b60008073ffffffffffffffffffffffffffffffffffffffff168273ffffffffffffffffffffffffffffffffffffffff161415610be4576040517f08c379a0000000000000000000000000000000000000000000000000000000008152600401610bdb9061423b565b60405180910390fd5b600360008373ffffffffffffffffffffffffffffffffffffffff1673ffffffffffffffffffffffffffffffffffffffff168152602001908152602001600020549050919050565b600f6020528060005260406000206000915090505481565b6000600f60003373ffffffffffffffffffffffffffffffffffffffff1673ffffffffffffffffffffffffffffffffffffffff1681526020019081526020016000205490506000600d60008381526020019081526020016000209050610d4c604051806060016040528060278152602001614fff60279139826001018054610cc9906146ee565b80601f0160208091040260200160405190810160405280929190818152602001828054610cf5906146ee565b8015610d425780601f10610d1757610100808354040283529160200191610d42565b820191906000526020600020905b815481529060010190602001808311610d2557829003601f168201915b505050505061269a565b610d7c604051806060016040528060228152602001614fdd60229139826003015483600501548460060154612736565b610e546040518060400160405280601b81526020017f426f73732025732068617320257320485020616e64202573204144000000000081525060066000018054610dc5906146ee565b80601f0160208091040260200160405190810160405280929190818152602001828054610df1906146ee565b8015610e3e5780601f10610e1357610100808354040283529160200191610e3e565b820191906000526020600020905b815481529060010190602001808311610e2157829003601f168201915b50505050506006600201546006600401546127d8565b6000816003015411610e9b576040517f08c379a0000000000000000000000000000000000000000000000000000000008152600401610e929061427b565b60405180910390fd5b600060066002015411610ee3576040517f08c379a0000000000000000000000000000000000000000000000000000000008152600401610eda9061417b565b60405180910390fd5b60066004015481600601548260030154610efd9190614523565b1015610f125760008160030181905550610f3f565b60066004015481600601548260030154610f2c9190614523565b610f369190614604565b81600301819055505b610f65604051806060016040528060288152602001614fb560289139826003015461287a565b7f4f51627b06f649eb620fc88334b4074598cd524862edfca43ded8481a4eaf6526006600201548260030154604051610f9f929190614417565b60405180910390a15050565b606060018054610fba906146ee565b80601f0160208091040260200160405190810160405280929190818152602001828054610fe6906146ee565b80156110335780601f1061100857610100808354040283529160200191611033565b820191906000526020600020905b81548152906001019060200180831161101657829003601f168201915b5050505050905090565b600d602052806000526040600020600091509050806000015490806001018054611066906146ee565b80601f0160208091040260200160405190810160405280929190818152602001828054611092906146ee565b80156110df5780601f106110b4576101008083540402835291602001916110df565b820191906000526020600020905b8154815290600101906020018083116110c257829003601f168201915b5050505050908060020180546110f4906146ee565b80601f0160208091040260200160405190810160405280929190818152602001828054611120906146ee565b801561116d5780601f106111425761010080835404028352916020019161116d565b820191906000526020600020905b81548152906001019060200180831161115057829003601f168201915b5050505050908060030154908060040154908060050154908060060154905087565b6111a161119a61229f565b8383612916565b5050565b60068060000180546111b6906146ee565b80601f01602080910402602001604051908101604052809291908181526020018280546111e2906146ee565b801561122f5780601f106112045761010080835404028352916020019161122f565b820191906000526020600020905b81548152906001019060200180831161121257829003601f168201915b505050505090806001018054611244906146ee565b80601f0160208091040260200160405190810160405280929190818152602001828054611270906146ee565b80156112bd5780601f10611292576101008083540402835291602001916112bd565b820191906000526020600020905b8154815290600101906020018083116112a057829003601f168201915b5050505050908060020154908060030154908060040154905085565b6112ea6112e461229f565b83612360565b611329576040517f08c379a00000000000000000000000000000000000000000000000000000000081526004016113209061431b565b60405180910390fd5b61133584848484612a83565b50505050565b6060600c805480602002602001604051908101604052809291908181526020016000905b828210156114e757838290600052602060002090600702016040518060e00160405290816000820154815260200160018201805461139c906146ee565b80601f01602080910402602001604051908101604052809291908181526020018280546113c8906146ee565b80156114155780601f106113ea57610100808354040283529160200191611415565b820191906000526020600020905b8154815290600101906020018083116113f857829003601f168201915b5050505050815260200160028201805461142e906146ee565b80601f016020809104026020016040519081016040528092919081815260200182805461145a906146ee565b80156114a75780601f1061147c576101008083540402835291602001916114a7565b820191906000526020600020905b81548152906001019060200180831161148a57829003601f168201915b505050505081526020016003820154815260200160048201548152602001600582015481526020016006820154815250508152602001906001019061135f565b50505050905090565b60606000600d60008481526020019081526020016000206040518060e00160405290816000820154815260200160018201805461152c906146ee565b80601f0160208091040260200160405190810160405280929190818152602001828054611558906146ee565b80156115a55780601f1061157a576101008083540402835291602001916115a5565b820191906000526020600020905b81548152906001019060200180831161158857829003601f168201915b505050505081526020016002820180546115be906146ee565b80601f01602080910402602001604051908101604052809291908181526020018280546115ea906146ee565b80156116375780601f1061160c57610100808354040283529160200191611637565b820191906000526020600020905b81548152906001019060200180831161161a57829003601f168201915b50505050508152602001600382015481526020016004820154815260200160058201548152602001600682015481525050905060006116798260600151612adf565b9050600061168a8360a00151612adf565b9050600061169b8460c00151612adf565b905060006116e185602001516116b089612adf565b87604001518787876040516020016116cd96959493929190613d98565b604051602081830303815290604052612c8c565b90506000816040516020016116f69190613e3d565b6040516020818303038152906040529050809650505050505050919050565b61171d61333c565b6000600f60003373ffffffffffffffffffffffffffffffffffffffff1673ffffffffffffffffffffffffffffffffffffffff16815260200190815260200160002054905060008111156118e657600d60008281526020019081526020016000206040518060e0016040529081600082015481526020016001820180546117a2906146ee565b80601f01602080910402602001604051908101604052809291908181526020018280546117ce906146ee565b801561181b5780601f106117f05761010080835404028352916020019161181b565b820191906000526020600020905b8154815290600101906020018083116117fe57829003601f168201915b50505050508152602001600282018054611834906146ee565b80601f0160208091040260200160405190810160405280929190818152602001828054611860906146ee565b80156118ad5780601f10611882576101008083540402835291602001916118ad565b820191906000526020600020905b81548152906001019060200180831161189057829003601f168201915b505050505081526020016003820154815260200160048201548152602001600582015481526020016006820154815250509150506118f4565b6118ee61333c565b80925050505b90565b6000600f60003373ffffffffffffffffffffffffffffffffffffffff1673ffffffffffffffffffffffffffffffffffffffff1681526020019081526020016000205490506000600d60008381526020019081526020016000209050611a00604051806060016040528060278152602001614fff6027913982600101805461197d906146ee565b80601f01602080910402602001604051908101604052809291908181526020018280546119a9906146ee565b80156119f65780601f106119cb576101008083540402835291602001916119f6565b820191906000526020600020905b8154815290600101906020018083116119d957829003601f168201915b505050505061269a565b611a30604051806060016040528060228152602001614fdd60229139826003015483600501548460060154612736565b611b086040518060400160405280601b81526020017f426f73732025732068617320257320485020616e64202573204144000000000081525060066000018054611a79906146ee565b80601f0160208091040260200160405190810160405280929190818152602001828054611aa5906146ee565b8015611af25780601f10611ac757610100808354040283529160200191611af2565b820191906000526020600020905b815481529060010190602001808311611ad557829003601f168201915b50505050506006600201546006600401546127d8565b6000816003015411611b4f576040517f08c379a0000000000000000000000000000000000000000000000000000000008152600401611b469061427b565b60405180910390fd5b600060066002015411611b97576040517f08c379a0000000000000000000000000000000000000000000000000000000008152600401611b8e9061417b565b60405180910390fd5b80600501546006600201541015611bb8576000600660020181905550611bd7565b8060050154600660020154611bcd9190614604565b6006600201819055505b611bfe604051806060016040528060258152602001614f506025913960066002015461287a565b7fb6f2a6f154d050dbdf681fee59096e5c7b34618bcab83b0612cb861fdc1a86dd6006600201548260030154604051611c38929190614417565b60405180910390a15050565b6000600560008473ffffffffffffffffffffffffffffffffffffffff1673ffffffffffffffffffffffffffffffffffffffff16815260200190815260200160002060008373ffffffffffffffffffffffffffffffffffffffff1673ffffffffffffffffffffffffffffffffffffffff16815260200190815260200160002060009054906101000a900460ff16905092915050565b6000611ce4600b612e2b565b9050611cf03382612e39565b6040518060e00160405280838152602001600c8481548110611d3b577f4e487b7100000000000000000000000000000000000000000000000000000000600052603260045260246000fd5b90600052602060002090600702016001018054611d57906146ee565b80601f0160208091040260200160405190810160405280929190818152602001828054611d83906146ee565b8015611dd05780601f10611da557610100808354040283529160200191611dd0565b820191906000526020600020905b815481529060010190602001808311611db357829003601f168201915b50505050508152602001600c8481548110611e14577f4e487b7100000000000000000000000000000000000000000000000000000000600052603260045260246000fd5b90600052602060002090600702016002018054611e30906146ee565b80601f0160208091040260200160405190810160405280929190818152602001828054611e5c906146ee565b8015611ea95780601f10611e7e57610100808354040283529160200191611ea9565b820191906000526020600020905b815481529060010190602001808311611e8c57829003601f168201915b50505050508152602001600c8481548110611eed577f4e487b7100000000000000000000000000000000000000000000000000000000600052603260045260246000fd5b9060005260206000209060070201600301548152602001600c8481548110611f3e577f4e487b7100000000000000000000000000000000000000000000000000000000600052603260045260246000fd5b9060005260206000209060070201600301548152602001600c8481548110611f8f577f4e487b7100000000000000000000000000000000000000000000000000000000600052603260045260246000fd5b9060005260206000209060070201600501548152602001600c8481548110611fe0577f4e487b7100000000000000000000000000000000000000000000000000000000600052603260045260246000fd5b906000526020600020906007020160060154815250600d600083815260200190815260200160002060008201518160000155602082015181600101908051906020019061202e929190613379565b50604082015181600201908051906020019061204b929190613379565b50606082015181600301556080820151816004015560a0820151816005015560c0820151816006015590505080600f60003373ffffffffffffffffffffffffffffffffffffffff1673ffffffffffffffffffffffffffffffffffffffff168152602001908152602001600020819055506120de6040518060600160405280602b8152602001615026602b91398284612e57565b6120e8600b612ef6565b7f4bc303fd457a97b4691b9af582ce71868a3d258638c8d4f8c60988a0f0bfb8cd33828460405161211b93929190613ec6565b60405180910390a15050565b6121c3848484846040516024016121419493929190613f93565b6040516020818303038152906040527f8d142cdd000000000000000000000000000000000000000000000000000000007bffffffffffffffffffffffffffffffffffffffffffffffffffffffff19166020820180517bffffffffffffffffffffffffffffffffffffffffffffffffffffffff8381831617835250505050612f0c565b50505050565b60007f01ffc9a7000000000000000000000000000000000000000000000000000000007bffffffffffffffffffffffffffffffffffffffffffffffffffffffff1916827bffffffffffffffffffffffffffffffffffffffffffffffffffffffff1916149050919050565b60008073ffffffffffffffffffffffffffffffffffffffff166002600084815260200190815260200160002060009054906101000a900473ffffffffffffffffffffffffffffffffffffffff1673ffffffffffffffffffffffffffffffffffffffff1614159050919050565b600033905090565b816004600083815260200190815260200160002060006101000a81548173ffffffffffffffffffffffffffffffffffffffff021916908373ffffffffffffffffffffffffffffffffffffffff160217905550808273ffffffffffffffffffffffffffffffffffffffff1661231a8361096f565b73ffffffffffffffffffffffffffffffffffffffff167f8c5be1e5ebec7d5bd14f71427d1e84f3dd0314c0f7b2291e5b200ac8c7c3b92560405160405180910390a45050565b600061236b82612233565b6123aa576040517f08c379a00000000000000000000000000000000000000000000000000000000081526004016123a1906141fb565b60405180910390fd5b60006123b58361096f565b90508073ffffffffffffffffffffffffffffffffffffffff168473ffffffffffffffffffffffffffffffffffffffff16148061242457508373ffffffffffffffffffffffffffffffffffffffff1661240c84610752565b73ffffffffffffffffffffffffffffffffffffffff16145b8061243557506124348185611c44565b5b91505092915050565b8273ffffffffffffffffffffffffffffffffffffffff1661245e8261096f565b73ffffffffffffffffffffffffffffffffffffffff16146124b4576040517f08c379a00000000000000000000000000000000000000000000000000000000081526004016124ab906142db565b60405180910390fd5b600073ffffffffffffffffffffffffffffffffffffffff168273ffffffffffffffffffffffffffffffffffffffff161415612524576040517f08c379a000000000000000000000000000000000000000000000000000000000815260040161251b906141bb565b60405180910390fd5b61252f838383612f35565b61253a6000826122a7565b6001600360008573ffffffffffffffffffffffffffffffffffffffff1673ffffffffffffffffffffffffffffffffffffffff168152602001908152602001600020600082825461258a9190614604565b925050819055506001600360008473ffffffffffffffffffffffffffffffffffffffff1673ffffffffffffffffffffffffffffffffffffffff16815260200190815260200160002060008282546125e19190614523565b92505081905550816002600083815260200190815260200160002060006101000a81548173ffffffffffffffffffffffffffffffffffffffff021916908373ffffffffffffffffffffffffffffffffffffffff160217905550808273ffffffffffffffffffffffffffffffffffffffff168473ffffffffffffffffffffffffffffffffffffffff167fddf252ad1be2c89b69c2b068fc378daa952ba7f163c4a11628f55a4df523b3ef60405160405180910390a4505050565b61273282826040516024016126b0929190613f5c565b6040516020818303038152906040527f4b5c4277000000000000000000000000000000000000000000000000000000007bffffffffffffffffffffffffffffffffffffffffffffffffffffffff19166020820180517bffffffffffffffffffffffffffffffffffffffffffffffffffffffff8381831617835250505050612f0c565b5050565b6127d284848484604051602401612750949392919061410f565b6040516020818303038152906040527f08ee5666000000000000000000000000000000000000000000000000000000007bffffffffffffffffffffffffffffffffffffffffffffffffffffffff19166020820180517bffffffffffffffffffffffffffffffffffffffffffffffffffffffff8381831617835250505050612f0c565b50505050565b612874848484846040516024016127f29493929190613fed565b6040516020818303038152906040527fd5cf17d0000000000000000000000000000000000000000000000000000000007bffffffffffffffffffffffffffffffffffffffffffffffffffffffff19166020820180517bffffffffffffffffffffffffffffffffffffffffffffffffffffffff8381831617835250505050612f0c565b50505050565b61291282826040516024016128909291906140a1565b6040516020818303038152906040527f9710a9d0000000000000000000000000000000000000000000000000000000007bffffffffffffffffffffffffffffffffffffffffffffffffffffffff19166020820180517bffffffffffffffffffffffffffffffffffffffffffffffffffffffff8381831617835250505050612f0c565b5050565b8173ffffffffffffffffffffffffffffffffffffffff168373ffffffffffffffffffffffffffffffffffffffff161415612985576040517f08c379a000000000000000000000000000000000000000000000000000000000815260040161297c906141db565b60405180910390fd5b80600560008573ffffffffffffffffffffffffffffffffffffffff1673ffffffffffffffffffffffffffffffffffffffff16815260200190815260200160002060008473ffffffffffffffffffffffffffffffffffffffff1673ffffffffffffffffffffffffffffffffffffffff16815260200190815260200160002060006101000a81548160ff0219169083151502179055508173ffffffffffffffffffffffffffffffffffffffff168373ffffffffffffffffffffffffffffffffffffffff167f17307eab39ab6107e8899845ad3d59bd9653f200f220920489ca2b5937696c3183604051612a769190613f1f565b60405180910390a3505050565b612a8e84848461243e565b612a9a84848484612f3a565b612ad9576040517f08c379a0000000000000000000000000000000000000000000000000000000008152600401612ad09061415b565b60405180910390fd5b50505050565b60606000821415612b27576040518060400160405280600181526020017f30000000000000000000000000000000000000000000000000000000000000008152509050612c87565b600082905060005b60008214612b59578080612b4290614751565b915050600a82612b529190614579565b9150612b2f565b60008167ffffffffffffffff811115612b9b577f4e487b7100000000000000000000000000000000000000000000000000000000600052604160045260246000fd5b6040519080825280601f01601f191660200182016040528015612bcd5781602001600182028036833780820191505090505b5090505b60008514612c8057600182612be69190614604565b9150600a85612bf5919061479a565b6030612c019190614523565b60f81b818381518110612c3d577f4e487b7100000000000000000000000000000000000000000000000000000000600052603260045260246000fd5b60200101907effffffffffffffffffffffffffffffffffffffffffffffffffffffffffffff1916908160001a905350600a85612c799190614579565b9450612bd1565b8093505050505b919050565b6060600082511415612caf57604051806020016040528060008152509050612e26565b6000604051806060016040528060408152602001614f756040913990506000600360028551612cde9190614523565b612ce89190614579565b6004612cf491906145aa565b90506000602082612d059190614523565b67ffffffffffffffff811115612d44577f4e487b7100000000000000000000000000000000000000000000000000000000600052604160045260246000fd5b6040519080825280601f01601f191660200182016040528015612d765781602001600182028036833780820191505090505b509050818152600183018586518101602084015b81831015612de5576003830192508251603f8160121c168501518253600182019150603f81600c1c168501518253600182019150603f8160061c168501518253600182019150603f8116850151825360018201915050612d8a565b600389510660018114612dff5760028114612e0f57612e1a565b613d3d60f01b6002830352612e1a565b603d60f81b60018303525b50505050508093505050505b919050565b600081600001549050919050565b612e538282604051806020016040528060008152506130d1565b5050565b612ef1838383604051602401612e6f939291906140d1565b6040516020818303038152906040527f969cdd03000000000000000000000000000000000000000000000000000000007bffffffffffffffffffffffffffffffffffffffffffffffffffffffff19166020820180517bffffffffffffffffffffffffffffffffffffffffffffffffffffffff8381831617835250505050612f0c565b505050565b6001816000016000828254019250508190555050565b60008151905060006a636f6e736f6c652e6c6f679050602083016000808483855afa5050505050565b505050565b6000612f5b8473ffffffffffffffffffffffffffffffffffffffff1661312c565b156130c4578373ffffffffffffffffffffffffffffffffffffffff1663150b7a02612f8461229f565b8786866040518563ffffffff1660e01b8152600401612fa69493929190613e7a565b602060405180830381600087803b158015612fc057600080fd5b505af1925050508015612ff157506040513d601f19601f82011682018060405250810190612fee91906136bd565b60015b613074573d8060008114613021576040519150601f19603f3d011682016040523d82523d6000602084013e613026565b606091505b5060008151141561306c576040517f08c379a00000000000000000000000000000000000000000000000000000000081526004016130639061415b565b60405180910390fd5b805181602001fd5b63150b7a0260e01b7bffffffffffffffffffffffffffffffffffffffffffffffffffffffff1916817bffffffffffffffffffffffffffffffffffffffffffffffffffffffff1916149150506130c9565b600190505b949350505050565b6130db838361313f565b6130e86000848484612f3a565b613127576040517f08c379a000000000000000000000000000000000000000000000000000000000815260040161311e9061415b565b60405180910390fd5b505050565b600080823b905060008111915050919050565b600073ffffffffffffffffffffffffffffffffffffffff168273ffffffffffffffffffffffffffffffffffffffff1614156131af576040517f08c379a00000000000000000000000000000000000000000000000000000000081526004016131a69061429b565b60405180910390fd5b6131b881612233565b156131f8576040517f08c379a00000000000000000000000000000000000000000000000000000000081526004016131ef9061419b565b60405180910390fd5b61320460008383612f35565b6001600360008473ffffffffffffffffffffffffffffffffffffffff1673ffffffffffffffffffffffffffffffffffffffff16815260200190815260200160002060008282546132549190614523565b92505081905550816002600083815260200190815260200160002060006101000a81548173ffffffffffffffffffffffffffffffffffffffff021916908373ffffffffffffffffffffffffffffffffffffffff160217905550808273ffffffffffffffffffffffffffffffffffffffff16600073ffffffffffffffffffffffffffffffffffffffff167fddf252ad1be2c89b69c2b068fc378daa952ba7f163c4a11628f55a4df523b3ef60405160405180910390a45050565b6040518060a0016040528060608152602001606081526020016000815260200160008152602001600081525090565b6040518060e00160405280600081526020016060815260200160608152602001600081526020016000815260200160008152602001600081525090565b828054613385906146ee565b90600052602060002090601f0160209004810192826133a757600085556133ee565b82601f106133c057805160ff19168380011785556133ee565b828001600101855582156133ee579182015b828111156133ed5782518255916020019190600101906133d2565b5b5090506133fb91906133ff565b5090565b5b80821115613418576000816000905550600101613400565b5090565b600061342f61342a84614465565b614440565b90508281526020810184848401111561344757600080fd5b6134528482856146ac565b509392505050565b60008135905061346981614ef3565b92915050565b60008135905061347e81614f0a565b92915050565b60008135905061349381614f21565b92915050565b6000815190506134a881614f21565b92915050565b600082601f8301126134bf57600080fd5b81356134cf84826020860161341c565b91505092915050565b6000813590506134e781614f38565b92915050565b6000602082840312156134ff57600080fd5b600061350d8482850161345a565b91505092915050565b6000806040838503121561352957600080fd5b60006135378582860161345a565b92505060206135488582860161345a565b9150509250929050565b60008060006060848603121561356757600080fd5b60006135758682870161345a565b93505060206135868682870161345a565b9250506040613597868287016134d8565b9150509250925092565b600080600080608085870312156135b757600080fd5b60006135c58782880161345a565b94505060206135d68782880161345a565b93505060406135e7878288016134d8565b925050606085013567ffffffffffffffff81111561360457600080fd5b613610878288016134ae565b91505092959194509250565b6000806040838503121561362f57600080fd5b600061363d8582860161345a565b925050602061364e8582860161346f565b9150509250929050565b6000806040838503121561366b57600080fd5b60006136798582860161345a565b925050602061368a858286016134d8565b9150509250929050565b6000602082840312156136a657600080fd5b60006136b484828501613484565b91505092915050565b6000602082840312156136cf57600080fd5b60006136dd84828501613499565b91505092915050565b6000602082840312156136f857600080fd5b6000613706848285016134d8565b91505092915050565b600061371b8383613c34565b905092915050565b61372c81614638565b82525050565b600061373d826144a6565b61374781856144d4565b93508360208202850161375985614496565b8060005b858110156137955784840389528151613776858261370f565b9450613781836144c7565b925060208a0199505060018101905061375d565b50829750879550505050505092915050565b6137b08161464a565b82525050565b60006137c1826144b1565b6137cb81856144e5565b93506137db8185602086016146bb565b6137e481614887565b840191505092915050565b60006137fa826144bc565b61380481856144f6565b93506138148185602086016146bb565b61381d81614887565b840191505092915050565b6000613833826144bc565b61383d8185614507565b935061384d8185602086016146bb565b61385681614887565b840191505092915050565b600061386c826144bc565b6138768185614518565b93506138868185602086016146bb565b80840191505092915050565b600061389f600b83614518565b91506138aa82614898565b600b82019050919050565b60006138c2603283614507565b91506138cd826148c1565b604082019050919050565b60006138e5602883614507565b91506138f082614910565b604082019050919050565b6000613908601c83614507565b91506139138261495f565b602082019050919050565b600061392b602483614507565b915061393682614988565b604082019050919050565b600061394e601983614507565b9150613959826149d7565b602082019050919050565b6000613971602c83614507565b915061397c82614a00565b604082019050919050565b6000613994603883614507565b915061399f82614a4f565b604082019050919050565b60006139b7602a83614507565b91506139c282614a9e565b604082019050919050565b60006139da602983614507565b91506139e582614aed565b604082019050919050565b60006139fd602d83614507565b9150613a0882614b3c565b604082019050919050565b6000613a20602083614507565b9150613a2b82614b8b565b602082019050919050565b6000613a43602c83614507565b9150613a4e82614bb4565b604082019050919050565b6000613a66602983614507565b9150613a7182614c03565b604082019050919050565b6000613a89600a83614518565b9150613a9482614c52565b600a82019050919050565b6000613aac606d83614518565b9150613ab782614c7b565b606d82019050919050565b6000613acf602183614507565b9150613ada82614d16565b604082019050919050565b6000613af2601d83614518565b9150613afd82614d65565b601d82019050919050565b6000613b15603183614507565b9150613b2082614d8e565b604082019050919050565b6000613b38601683614518565b9150613b4382614ddd565b601682019050919050565b6000613b5b604083614518565b9150613b6682614e06565b604082019050919050565b6000613b7e603d83614518565b9150613b8982614e55565b603d82019050919050565b6000613ba1603883614518565b9150613bac82614ea4565b603882019050919050565b600060a0830160008301518482036000860152613bd482826137ef565b91505060208301518482036020860152613bee82826137ef565b9150506040830151613c036040860182613d7a565b506060830151613c166060860182613d7a565b506080830151613c296080860182613d7a565b508091505092915050565b600060e083016000830151613c4c6000860182613d7a565b5060208301518482036020860152613c6482826137ef565b91505060408301518482036040860152613c7e82826137ef565b9150506060830151613c936060860182613d7a565b506080830151613ca66080860182613d7a565b5060a0830151613cb960a0860182613d7a565b5060c0830151613ccc60c0860182613d7a565b508091505092915050565b600060e083016000830151613cef6000860182613d7a565b5060208301518482036020860152613d0782826137ef565b91505060408301518482036040860152613d2182826137ef565b9150506060830151613d366060860182613d7a565b506080830151613d496080860182613d7a565b5060a0830151613d5c60a0860182613d7a565b5060c0830151613d6f60c0860182613d7a565b508091505092915050565b613d83816146a2565b82525050565b613d92816146a2565b82525050565b6000613da382613a7c565b9150613daf8289613861565b9150613dba82613892565b9150613dc68288613861565b9150613dd182613a9f565b9150613ddd8287613861565b9150613de882613b71565b9150613df48286613861565b9150613dff82613b4e565b9150613e0b8285613861565b9150613e1682613b94565b9150613e228284613861565b9150613e2d82613b2b565b9150819050979650505050505050565b6000613e4882613ae5565b9150613e548284613861565b915081905092915050565b6000602082019050613e746000830184613723565b92915050565b6000608082019050613e8f6000830187613723565b613e9c6020830186613723565b613ea96040830185613d89565b8181036060830152613ebb81846137b6565b905095945050505050565b6000606082019050613edb6000830186613723565b613ee86020830185613d89565b613ef56040830184613d89565b949350505050565b60006020820190508181036000830152613f178184613732565b905092915050565b6000602082019050613f3460008301846137a7565b92915050565b60006020820190508181036000830152613f548184613828565b905092915050565b60006040820190508181036000830152613f768185613828565b90508181036020830152613f8a8184613828565b90509392505050565b60006080820190508181036000830152613fad8187613828565b90508181036020830152613fc18186613828565b9050613fd06040830185613d89565b8181036060830152613fe28184613828565b905095945050505050565b600060808201905081810360008301526140078187613828565b9050818103602083015261401b8186613828565b905061402a6040830185613d89565b6140376060830184613d89565b95945050505050565b600060a082019050818103600083015261405a8188613828565b9050818103602083015261406e8187613828565b905061407d6040830186613d89565b61408a6060830185613d89565b6140976080830184613d89565b9695505050505050565b600060408201905081810360008301526140bb8185613828565b90506140ca6020830184613d89565b9392505050565b600060608201905081810360008301526140eb8186613828565b90506140fa6020830185613d89565b6141076040830184613d89565b949350505050565b600060808201905081810360008301526141298187613828565b90506141386020830186613d89565b6141456040830185613d89565b6141526060830184613d89565b95945050505050565b60006020820190508181036000830152614174816138b5565b9050919050565b60006020820190508181036000830152614194816138d8565b9050919050565b600060208201905081810360008301526141b4816138fb565b9050919050565b600060208201905081810360008301526141d48161391e565b9050919050565b600060208201905081810360008301526141f481613941565b9050919050565b6000602082019050818103600083015261421481613964565b9050919050565b6000602082019050818103600083015261423481613987565b9050919050565b60006020820190508181036000830152614254816139aa565b9050919050565b60006020820190508181036000830152614274816139cd565b9050919050565b60006020820190508181036000830152614294816139f0565b9050919050565b600060208201905081810360008301526142b481613a13565b9050919050565b600060208201905081810360008301526142d481613a36565b9050919050565b600060208201905081810360008301526142f481613a59565b9050919050565b6000602082019050818103600083015261431481613ac2565b9050919050565b6000602082019050818103600083015261433481613b08565b9050919050565b600060208201905081810360008301526143558184613bb7565b905092915050565b600060208201905081810360008301526143778184613cd7565b905092915050565b60006020820190506143946000830184613d89565b92915050565b600060e0820190506143af600083018a613d89565b81810360208301526143c18189613828565b905081810360408301526143d58188613828565b90506143e46060830187613d89565b6143f16080830186613d89565b6143fe60a0830185613d89565b61440b60c0830184613d89565b98975050505050505050565b600060408201905061442c6000830185613d89565b6144396020830184613d89565b9392505050565b600061444a61445b565b90506144568282614720565b919050565b6000604051905090565b600067ffffffffffffffff8211156144805761447f614858565b5b61448982614887565b9050602081019050919050565b6000819050602082019050919050565b600081519050919050565b600081519050919050565b600081519050919050565b6000602082019050919050565b600082825260208201905092915050565b600082825260208201905092915050565b600082825260208201905092915050565b600082825260208201905092915050565b600081905092915050565b600061452e826146a2565b9150614539836146a2565b9250827fffffffffffffffffffffffffffffffffffffffffffffffffffffffffffffffff0382111561456e5761456d6147cb565b5b828201905092915050565b6000614584826146a2565b915061458f836146a2565b92508261459f5761459e6147fa565b5b828204905092915050565b60006145b5826146a2565b91506145c0836146a2565b9250817fffffffffffffffffffffffffffffffffffffffffffffffffffffffffffffffff04831182151516156145f9576145f86147cb565b5b828202905092915050565b600061460f826146a2565b915061461a836146a2565b92508282101561462d5761462c6147cb565b5b828203905092915050565b600061464382614682565b9050919050565b60008115159050919050565b60007fffffffff0000000000000000000000000000000000000000000000000000000082169050919050565b600073ffffffffffffffffffffffffffffffffffffffff82169050919050565b6000819050919050565b82818337600083830152505050565b60005b838110156146d95780820151818401526020810190506146be565b838111156146e8576000848401525b50505050565b6000600282049050600182168061470657607f821691505b6020821081141561471a57614719614829565b5b50919050565b61472982614887565b810181811067ffffffffffffffff8211171561474857614747614858565b5b80604052505050565b600061475c826146a2565b91507fffffffffffffffffffffffffffffffffffffffffffffffffffffffffffffffff82141561478f5761478e6147cb565b5b600182019050919050565b60006147a5826146a2565b91506147b0836146a2565b9250826147c0576147bf6147fa565b5b828206905092915050565b7f4e487b7100000000000000000000000000000000000000000000000000000000600052601160045260246000fd5b7f4e487b7100000000000000000000000000000000000000000000000000000000600052601260045260246000fd5b7f4e487b7100000000000000000000000000000000000000000000000000000000600052602260045260246000fd5b7f4e487b7100000000000000000000000000000000000000000000000000000000600052604160045260246000fd5b6000601f19601f8301169050919050565b7f202d2d204e465420233a20000000000000000000000000000000000000000000600082015250565b7f4552433732313a207472616e7366657220746f206e6f6e20455243373231526560008201527f63656976657220696d706c656d656e7465720000000000000000000000000000602082015250565b7f4572726f723a20626f7373206d757374206861766520485020746f206174746160008201527f636b20626f73732e000000000000000000000000000000000000000000000000602082015250565b7f4552433732313a20746f6b656e20616c7265616479206d696e74656400000000600082015250565b7f4552433732313a207472616e7366657220746f20746865207a65726f2061646460008201527f7265737300000000000000000000000000000000000000000000000000000000602082015250565b7f4552433732313a20617070726f766520746f2063616c6c657200000000000000600082015250565b7f4552433732313a206f70657261746f7220717565727920666f72206e6f6e657860008201527f697374656e7420746f6b656e0000000000000000000000000000000000000000602082015250565b7f4552433732313a20617070726f76652063616c6c6572206973206e6f74206f7760008201527f6e6572206e6f7220617070726f76656420666f7220616c6c0000000000000000602082015250565b7f4552433732313a2062616c616e636520717565727920666f7220746865207a6560008201527f726f206164647265737300000000000000000000000000000000000000000000602082015250565b7f4552433732313a206f776e657220717565727920666f72206e6f6e657869737460008201527f656e7420746f6b656e0000000000000000000000000000000000000000000000602082015250565b7f4572726f723a20636861726163746572206d757374206861766520485020746f60008201527f2061747461636b20626f73732e00000000000000000000000000000000000000602082015250565b7f4552433732313a206d696e7420746f20746865207a65726f2061646472657373600082015250565b7f4552433732313a20617070726f76656420717565727920666f72206e6f6e657860008201527f697374656e7420746f6b656e0000000000000000000000000000000000000000602082015250565b7f4552433732313a207472616e73666572206f6620746f6b656e2074686174206960008201527f73206e6f74206f776e0000000000000000000000000000000000000000000000602082015250565b7f7b226e616d65223a202200000000000000000000000000000000000000000000600082015250565b7f222c20226465736372697074696f6e223a2022437269746963616c486974206960008201527f732061207475726e2d6261736564204e46542067616d6520776865726520796f60208201527f752074616b65207475726e7320746f2061747461636b2074686520626f6f732e60408201527f222c2022696d616765223a202200000000000000000000000000000000000000606082015250565b7f4552433732313a20617070726f76616c20746f2063757272656e74206f776e6560008201527f7200000000000000000000000000000000000000000000000000000000000000602082015250565b7f646174613a6170706c69636174696f6e2f6a736f6e3b6261736536342c000000600082015250565b7f4552433732313a207472616e736665722063616c6c6572206973206e6f74206f60008201527f776e6572206e6f7220617070726f766564000000000000000000000000000000602082015250565b7f2c20226d61785f76616c7565223a203130307d205d7d00000000000000000000600082015250565b7f2c20226d61785f76616c7565223a20333030207d2c207b202274726169745f7460008201527f797065223a202241747461636b2044616d616765222c202276616c7565223a20602082015250565b7f222c202261747472696275746573223a205b207b202274726169745f7479706560008201527f223a20224865616c746820506f696e7473222c202276616c7565223a20000000602082015250565b7f2c20226d61785f76616c7565223a203430307d2c207b202274726169745f747960008201527f7065223a2022536869656c64222c202276616c7565223a200000000000000000602082015250565b614efc81614638565b8114614f0757600080fd5b50565b614f138161464a565b8114614f1e57600080fd5b50565b614f2a81614656565b8114614f3557600080fd5b50565b614f41816146a2565b8114614f4c57600080fd5b5056fe506c617965722061747461636b656420626f73732e204e657720626f73732068703a2025734142434445464748494a4b4c4d4e4f505152535455565758595a6162636465666768696a6b6c6d6e6f707172737475767778797a303132333435363738392b2f426f73732061747461636b656420706c617965722e204e657720706c617965722068703a2025730a506c61796572206861732025732048502c20257320414420616e642025732053680a0a506c6179657220772f206368617261637465722025732061626f757420746f2061747461636b4d696e746564204e465420772f20746f6b656e496420257320616e64206368617261637465724964202573a2646970667358221220af685bd71bf5404d5d74cbb1e78d4c896c66e523513a5fda599363ac8f1b60e064736f6c63430008040033446f6e6520696e697469616c697a696e6720257320772f2048502025732c20696d67202573446f6e6520696e697469616c697a696e6720626f737320257320772f2048502025732c20696d67202573",
  "linkReferences": {},
  "deployedLinkReferences": {}
}