{
  "_format": "hh-sol-artifact-1",
  "contractName": "MyEpicGame",
  "sourceName": "contracts/MyEpicGame.sol",
  "abi": [
    {
      "inputs": [
        {
          "internalType": "string",
          "name": "bossName",
          "type": "string"
        },
        {
          "internalType": "string",
          "name": "bossImageURI",
          "type": "string"
        },
        {
          "internalType": "uint256",
          "name": "bossHp",
          "type": "uint256"
        },
        {
          "internalType": "uint256",
          "name": "bossAttackDamage",
          "type": "uint256"
        },
        {
          "internalType": "string[]",
          "name": "characterNames",
          "type": "string[]"
        },
        {
          "internalType": "string[]",
          "name": "characterImageURIs",
          "type": "string[]"
        },
        {
          "internalType": "uint256[]",
          "name": "characterHp",
          "type": "uint256[]"
        },
        {
          "internalType": "uint256[]",
          "name": "characterAttackDmg",
          "type": "uint256[]"
        },
        {
          "internalType": "uint256[]",
          "name": "characterShield",
          "type": "uint256[]"
        }
      ],
      "stateMutability": "nonpayable",
      "type": "constructor"
    },
    {
      "anonymous": false,
      "inputs": [
        {
          "indexed": true,
          "internalType": "address",
          "name": "owner",
          "type": "address"
        },
        {
          "indexed": true,
          "internalType": "address",
          "name": "approved",
          "type": "address"
        },
        {
          "indexed": true,
          "internalType": "uint256",
          "name": "tokenId",
          "type": "uint256"
        }
      ],
      "name": "Approval",
      "type": "event"
    },
    {
      "anonymous": false,
      "inputs": [
        {
          "indexed": true,
          "internalType": "address",
          "name": "owner",
          "type": "address"
        },
        {
          "indexed": true,
          "internalType": "address",
          "name": "operator",
          "type": "address"
        },
        {
          "indexed": false,
          "internalType": "bool",
          "name": "approved",
          "type": "bool"
        }
      ],
      "name": "ApprovalForAll",
      "type": "event"
    },
    {
      "anonymous": false,
      "inputs": [
        {
          "indexed": false,
          "internalType": "uint256",
          "name": "newBossHp",
          "type": "uint256"
        },
        {
          "indexed": false,
          "internalType": "uint256",
          "name": "newPlayerHp",
          "type": "uint256"
        }
      ],
      "name": "AttackComplete",
      "type": "event"
    },
    {
      "anonymous": false,
      "inputs": [
        {
          "indexed": false,
          "internalType": "address",
          "name": "sender",
          "type": "address"
        },
        {
          "indexed": false,
          "internalType": "uint256",
          "name": "tokenId",
          "type": "uint256"
        },
        {
          "indexed": false,
          "internalType": "uint256",
          "name": "characterIndex",
          "type": "uint256"
        }
      ],
      "name": "CharacterNFTMinted",
      "type": "event"
    },
    {
      "anonymous": false,
      "inputs": [
        {
          "indexed": true,
          "internalType": "address",
          "name": "from",
          "type": "address"
        },
        {
          "indexed": true,
          "internalType": "address",
          "name": "to",
          "type": "address"
        },
        {
          "indexed": true,
          "internalType": "uint256",
          "name": "tokenId",
          "type": "uint256"
        }
      ],
      "name": "Transfer",
      "type": "event"
    },
    {
      "inputs": [
        {
          "internalType": "address",
          "name": "to",
          "type": "address"
        },
        {
          "internalType": "uint256",
          "name": "tokenId",
          "type": "uint256"
        }
      ],
      "name": "approve",
      "outputs": [],
      "stateMutability": "nonpayable",
      "type": "function"
    },
    {
      "inputs": [],
      "name": "attackBoss",
      "outputs": [],
      "stateMutability": "nonpayable",
      "type": "function"
    },
    {
      "inputs": [
        {
          "internalType": "address",
          "name": "owner",
          "type": "address"
        }
      ],
      "name": "balanceOf",
      "outputs": [
        {
          "internalType": "uint256",
          "name": "",
          "type": "uint256"
        }
      ],
      "stateMutability": "view",
      "type": "function"
    },
    {
      "inputs": [],
      "name": "bigBoss",
      "outputs": [
        {
          "internalType": "string",
          "name": "name",
          "type": "string"
        },
        {
          "internalType": "string",
          "name": "imageURI",
          "type": "string"
        },
        {
          "internalType": "uint256",
          "name": "hp",
          "type": "uint256"
        },
        {
          "internalType": "uint256",
          "name": "maxHp",
          "type": "uint256"
        },
        {
          "internalType": "uint256",
          "name": "attackDamage",
          "type": "uint256"
        }
      ],
      "stateMutability": "view",
      "type": "function"
    },
    {
      "inputs": [],
      "name": "checkIfUserHasNFT",
      "outputs": [
        {
          "components": [
            {
              "internalType": "uint256",
              "name": "characterIndex",
              "type": "uint256"
            },
            {
              "internalType": "string",
              "name": "name",
              "type": "string"
            },
            {
              "internalType": "string",
              "name": "imageURI",
              "type": "string"
            },
            {
              "internalType": "uint256",
              "name": "hp",
              "type": "uint256"
            },
            {
              "internalType": "uint256",
              "name": "maxHp",
              "type": "uint256"
            },
            {
              "internalType": "uint256",
              "name": "attackDamage",
              "type": "uint256"
            },
            {
              "internalType": "uint256",
              "name": "shield",
              "type": "uint256"
            }
          ],
          "internalType": "struct MyEpicGame.CharacterAttributes",
          "name": "",
          "type": "tuple"
        }
      ],
      "stateMutability": "view",
      "type": "function"
    },
    {
      "inputs": [
        {
          "internalType": "uint256",
          "name": "",
          "type": "uint256"
        }
      ],
      "name": "defaultAttributes",
      "outputs": [
        {
          "internalType": "uint256",
          "name": "characterIndex",
          "type": "uint256"
        },
        {
          "internalType": "string",
          "name": "name",
          "type": "string"
        },
        {
          "internalType": "string",
          "name": "imageURI",
          "type": "string"
        },
        {
          "internalType": "uint256",
          "name": "hp",
          "type": "uint256"
        },
        {
          "internalType": "uint256",
          "name": "maxHp",
          "type": "uint256"
        },
        {
          "internalType": "uint256",
          "name": "attackDamage",
          "type": "uint256"
        },
        {
          "internalType": "uint256",
          "name": "shield",
          "type": "uint256"
        }
      ],
      "stateMutability": "view",
      "type": "function"
    },
    {
      "inputs": [],
      "name": "getAllDefaultCharacters",
      "outputs": [
        {
          "components": [
            {
              "internalType": "uint256",
              "name": "characterIndex",
              "type": "uint256"
            },
            {
              "internalType": "string",
              "name": "name",
              "type": "string"
            },
            {
              "internalType": "string",
              "name": "imageURI",
              "type": "string"
            },
            {
              "internalType": "uint256",
              "name": "hp",
              "type": "uint256"
            },
            {
              "internalType": "uint256",
              "name": "maxHp",
              "type": "uint256"
            },
            {
              "internalType": "uint256",
              "name": "attackDamage",
              "type": "uint256"
            },
            {
              "internalType": "uint256",
              "name": "shield",
              "type": "uint256"
            }
          ],
          "internalType": "struct MyEpicGame.CharacterAttributes[]",
          "name": "",
          "type": "tuple[]"
        }
      ],
      "stateMutability": "view",
      "type": "function"
    },
    {
      "inputs": [
        {
          "internalType": "uint256",
          "name": "tokenId",
          "type": "uint256"
        }
      ],
      "name": "getApproved",
      "outputs": [
        {
          "internalType": "address",
          "name": "",
          "type": "address"
        }
      ],
      "stateMutability": "view",
      "type": "function"
    },
    {
      "inputs": [],
      "name": "getBigBoss",
      "outputs": [
        {
          "components": [
            {
              "internalType": "string",
              "name": "name",
              "type": "string"
            },
            {
              "internalType": "string",
              "name": "imageURI",
              "type": "string"
            },
            {
              "internalType": "uint256",
              "name": "hp",
              "type": "uint256"
            },
            {
              "internalType": "uint256",
              "name": "maxHp",
              "type": "uint256"
            },
            {
              "internalType": "uint256",
              "name": "attackDamage",
              "type": "uint256"
            }
          ],
          "internalType": "struct MyEpicGame.BigBoss",
          "name": "",
          "type": "tuple"
        }
      ],
      "stateMutability": "view",
      "type": "function"
    },
    {
      "inputs": [
        {
          "internalType": "address",
          "name": "owner",
          "type": "address"
        },
        {
          "internalType": "address",
          "name": "operator",
          "type": "address"
        }
      ],
      "name": "isApprovedForAll",
      "outputs": [
        {
          "internalType": "bool",
          "name": "",
          "type": "bool"
        }
      ],
      "stateMutability": "view",
      "type": "function"
    },
    {
      "inputs": [
        {
          "internalType": "uint256",
          "name": "_characterIndex",
          "type": "uint256"
        }
      ],
      "name": "mintCharacterNFT",
      "outputs": [],
      "stateMutability": "nonpayable",
      "type": "function"
    },
    {
      "inputs": [],
      "name": "name",
      "outputs": [
        {
          "internalType": "string",
          "name": "",
          "type": "string"
        }
      ],
      "stateMutability": "view",
      "type": "function"
    },
    {
      "inputs": [
        {
          "internalType": "uint256",
          "name": "",
          "type": "uint256"
        }
      ],
      "name": "nftHolderAttributes",
      "outputs": [
        {
          "internalType": "uint256",
          "name": "characterIndex",
          "type": "uint256"
        },
        {
          "internalType": "string",
          "name": "name",
          "type": "string"
        },
        {
          "internalType": "string",
          "name": "imageURI",
          "type": "string"
        },
        {
          "internalType": "uint256",
          "name": "hp",
          "type": "uint256"
        },
        {
          "internalType": "uint256",
          "name": "maxHp",
          "type": "uint256"
        },
        {
          "internalType": "uint256",
          "name": "attackDamage",
          "type": "uint256"
        },
        {
          "internalType": "uint256",
          "name": "shield",
          "type": "uint256"
        }
      ],
      "stateMutability": "view",
      "type": "function"
    },
    {
      "inputs": [
        {
          "internalType": "address",
          "name": "",
          "type": "address"
        }
      ],
      "name": "nftHolders",
      "outputs": [
        {
          "internalType": "uint256",
          "name": "",
          "type": "uint256"
        }
      ],
      "stateMutability": "view",
      "type": "function"
    },
    {
      "inputs": [
        {
          "internalType": "uint256",
          "name": "tokenId",
          "type": "uint256"
        }
      ],
      "name": "ownerOf",
      "outputs": [
        {
          "internalType": "address",
          "name": "",
          "type": "address"
        }
      ],
      "stateMutability": "view",
      "type": "function"
    },
    {
      "inputs": [
        {
          "internalType": "address",
          "name": "from",
          "type": "address"
        },
        {
          "internalType": "address",
          "name": "to",
          "type": "address"
        },
        {
          "internalType": "uint256",
          "name": "tokenId",
          "type": "uint256"
        }
      ],
      "name": "safeTransferFrom",
      "outputs": [],
      "stateMutability": "nonpayable",
      "type": "function"
    },
    {
      "inputs": [
        {
          "internalType": "address",
          "name": "from",
          "type": "address"
        },
        {
          "internalType": "address",
          "name": "to",
          "type": "address"
        },
        {
          "internalType": "uint256",
          "name": "tokenId",
          "type": "uint256"
        },
        {
          "internalType": "bytes",
          "name": "_data",
          "type": "bytes"
        }
      ],
      "name": "safeTransferFrom",
      "outputs": [],
      "stateMutability": "nonpayable",
      "type": "function"
    },
    {
      "inputs": [
        {
          "internalType": "address",
          "name": "operator",
          "type": "address"
        },
        {
          "internalType": "bool",
          "name": "approved",
          "type": "bool"
        }
      ],
      "name": "setApprovalForAll",
      "outputs": [],
      "stateMutability": "nonpayable",
      "type": "function"
    },
    {
      "inputs": [
        {
          "internalType": "bytes4",
          "name": "interfaceId",
          "type": "bytes4"
        }
      ],
      "name": "supportsInterface",
      "outputs": [
        {
          "internalType": "bool",
          "name": "",
          "type": "bool"
        }
      ],
      "stateMutability": "view",
      "type": "function"
    },
    {
      "inputs": [],
      "name": "symbol",
      "outputs": [
        {
          "internalType": "string",
          "name": "",
          "type": "string"
        }
      ],
      "stateMutability": "view",
      "type": "function"
    },
    {
      "inputs": [
        {
          "internalType": "uint256",
          "name": "_tokenId",
          "type": "uint256"
        }
      ],
      "name": "tokenURI",
      "outputs": [
        {
          "internalType": "string",
          "name": "",
          "type": "string"
        }
      ],
      "stateMutability": "view",
      "type": "function"
    },
    {
      "inputs": [
        {
          "internalType": "address",
          "name": "from",
          "type": "address"
        },
        {
          "internalType": "address",
          "name": "to",
          "type": "address"
        },
        {
          "internalType": "uint256",
          "name": "tokenId",
          "type": "uint256"
        }
      ],
      "name": "transferFrom",
      "outputs": [],
      "stateMutability": "nonpayable",
      "type": "function"
    }
  ],
  "bytecode": "0x60806040523480156200001157600080fd5b5060405162005d3f38038062005d3f833981810160405281019062000037919062000ab4565b6040518060400160405280600681526020017f4865726f657300000000000000000000000000000000000000000000000000008152506040518060400160405280600481526020017f4845524f000000000000000000000000000000000000000000000000000000008152508160009080519060200190620000bb9291906200081c565b508060019080519060200190620000d49291906200081c565b5050506040518060a001604052808a815260200189815260200188815260200188815260200187815250600660008201518160000190805190602001906200011e9291906200081c565b5060208201518160010190805190602001906200013d9291906200081c565b50604082015181600201556060820151816003015560808201518160040155905050620002c06040518060600160405280602a815260200162005d15602a9139600660000180546200018f9062000e66565b80601f0160208091040260200160405190810160405280929190818152602001828054620001bd9062000e66565b80156200020e5780601f10620001e2576101008083540402835291602001916200020e565b820191906000526020600020905b815481529060010190602001808311620001f057829003601f168201915b5050505050600660020154600660010180546200022b9062000e66565b80601f0160208091040260200160405190810160405280929190818152602001828054620002599062000e66565b8015620002aa5780601f106200027e57610100808354040283529160200191620002aa565b820191906000526020600020905b8154815290600101906020018083116200028c57829003601f168201915b50505050506200074760201b62001df71760201c565b60005b85518110156200073757600c6040518060e001604052808381526020018884815181106200031a577f4e487b7100000000000000000000000000000000000000000000000000000000600052603260045260246000fd5b6020026020010151815260200187848151811062000361577f4e487b7100000000000000000000000000000000000000000000000000000000600052603260045260246000fd5b60200260200101518152602001868481518110620003a8577f4e487b7100000000000000000000000000000000000000000000000000000000600052603260045260246000fd5b60200260200101518152602001868481518110620003ef577f4e487b7100000000000000000000000000000000000000000000000000000000600052603260045260246000fd5b6020026020010151815260200185848151811062000436577f4e487b7100000000000000000000000000000000000000000000000000000000600052603260045260246000fd5b602002602001015181526020018484815181106200047d577f4e487b7100000000000000000000000000000000000000000000000000000000600052603260045260246000fd5b60200260200101518152509080600181540180825580915050600190039060005260206000209060070201600090919091909150600082015181600001556020820151816001019080519060200190620004d99291906200081c565b506040820151816002019080519060200190620004f89291906200081c565b50606082015181600301556080820151816004015560a0820151816005015560c0820151816006015550506000600c828154811062000560577f4e487b7100000000000000000000000000000000000000000000000000000000600052603260045260246000fd5b90600052602060002090600702016040518060e001604052908160008201548152602001600182018054620005959062000e66565b80601f0160208091040260200160405190810160405280929190818152602001828054620005c39062000e66565b8015620006145780601f10620005e85761010080835404028352916020019162000614565b820191906000526020600020905b815481529060010190602001808311620005f657829003601f168201915b505050505081526020016002820180546200062f9062000e66565b80601f01602080910402602001604051908101604052809291908181526020018280546200065d9062000e66565b8015620006ae5780601f106200068257610100808354040283529160200191620006ae565b820191906000526020600020905b8154815290600101906020018083116200069057829003601f168201915b5050505050815260200160038201548152602001600482015481526020016005820154815260200160068201548152505090506200071f60405180606001604052806025815260200162005cf0602591398260200151836060015184604001516200074760201b62001df71760201c565b506001816200072f919062000dc9565b9050620002c3565b5050505050505050505062000f8a565b620007ed8484848460405160240162000764949392919062000c8e565b6040516020818303038152906040527f8d142cdd000000000000000000000000000000000000000000000000000000007bffffffffffffffffffffffffffffffffffffffffffffffffffffffff19166020820180517bffffffffffffffffffffffffffffffffffffffffffffffffffffffff8381831617835250505050620007f360201b60201c565b50505050565b60008151905060006a636f6e736f6c652e6c6f679050602083016000808483855afa5050505050565b8280546200082a9062000e66565b90600052602060002090601f0160209004810192826200084e57600085556200089a565b82601f106200086957805160ff19168380011785556200089a565b828001600101855582156200089a579182015b82811115620008995782518255916020019190600101906200087c565b5b509050620008a99190620008ad565b5090565b5b80821115620008c8576000816000905550600101620008ae565b5090565b6000620008e3620008dd8462000d19565b62000cf0565b905080838252602082019050828560208602820111156200090357600080fd5b60005b858110156200095257815167ffffffffffffffff8111156200092757600080fd5b80860162000936898262000a70565b8552602085019450602084019350505060018101905062000906565b5050509392505050565b6000620009736200096d8462000d48565b62000cf0565b905080838252602082019050828560208602820111156200099357600080fd5b60005b85811015620009c75781620009ac888262000a9d565b84526020840193506020830192505060018101905062000996565b5050509392505050565b6000620009e8620009e28462000d77565b62000cf0565b90508281526020810184848401111562000a0157600080fd5b62000a0e84828562000e30565b509392505050565b600082601f83011262000a2857600080fd5b815162000a3a848260208601620008cc565b91505092915050565b600082601f83011262000a5557600080fd5b815162000a678482602086016200095c565b91505092915050565b600082601f83011262000a8257600080fd5b815162000a94848260208601620009d1565b91505092915050565b60008151905062000aae8162000f70565b92915050565b60008060008060008060008060006101208a8c03121562000ad457600080fd5b60008a015167ffffffffffffffff81111562000aef57600080fd5b62000afd8c828d0162000a70565b99505060208a015167ffffffffffffffff81111562000b1b57600080fd5b62000b298c828d0162000a70565b985050604062000b3c8c828d0162000a9d565b975050606062000b4f8c828d0162000a9d565b96505060808a015167ffffffffffffffff81111562000b6d57600080fd5b62000b7b8c828d0162000a16565b95505060a08a015167ffffffffffffffff81111562000b9957600080fd5b62000ba78c828d0162000a16565b94505060c08a015167ffffffffffffffff81111562000bc557600080fd5b62000bd38c828d0162000a43565b93505060e08a015167ffffffffffffffff81111562000bf157600080fd5b62000bff8c828d0162000a43565b9250506101008a015167ffffffffffffffff81111562000c1e57600080fd5b62000c2c8c828d0162000a43565b9150509295985092959850929598565b600062000c498262000dad565b62000c55818562000db8565b935062000c6781856020860162000e30565b62000c728162000f5f565b840191505092915050565b62000c888162000e26565b82525050565b6000608082019050818103600083015262000caa818762000c3c565b9050818103602083015262000cc0818662000c3c565b905062000cd1604083018562000c7d565b818103606083015262000ce5818462000c3c565b905095945050505050565b600062000cfc62000d0f565b905062000d0a828262000e9c565b919050565b6000604051905090565b600067ffffffffffffffff82111562000d375762000d3662000f30565b5b602082029050602081019050919050565b600067ffffffffffffffff82111562000d665762000d6562000f30565b5b602082029050602081019050919050565b600067ffffffffffffffff82111562000d955762000d9462000f30565b5b62000da08262000f5f565b9050602081019050919050565b600081519050919050565b600082825260208201905092915050565b600062000dd68262000e26565b915062000de38362000e26565b9250827fffffffffffffffffffffffffffffffffffffffffffffffffffffffffffffffff0382111562000e1b5762000e1a62000ed2565b5b828201905092915050565b6000819050919050565b60005b8381101562000e5057808201518184015260208101905062000e33565b8381111562000e60576000848401525b50505050565b6000600282049050600182168062000e7f57607f821691505b6020821081141562000e965762000e9562000f01565b5b50919050565b62000ea78262000f5f565b810181811067ffffffffffffffff8211171562000ec95762000ec862000f30565b5b80604052505050565b7f4e487b7100000000000000000000000000000000000000000000000000000000600052601160045260246000fd5b7f4e487b7100000000000000000000000000000000000000000000000000000000600052602260045260246000fd5b7f4e487b7100000000000000000000000000000000000000000000000000000000600052604160045260246000fd5b6000601f19601f8301169050919050565b62000f7b8162000e26565b811462000f8757600080fd5b50565b614d568062000f9a6000396000f3fe608060405234801561001057600080fd5b50600436106101425760003560e01c806395d89b41116100b8578063b953084e1161007c578063b953084e146103ab578063c87b56dd146103c9578063c8cf27f4146103f9578063d4f24c5b14610417578063e985e9c514610421578063f8b81ef71461045157610142565b806395d89b41146102fd57806398da4c951461031b578063a22cb46514610351578063a9c326791461036d578063b88d4fde1461038f57610142565b806323b872dd1161010a57806323b872dd146101ff57806342842e0e1461021b5780636352211e146102375780636a9081521461026757806370a082311461029d5780637df124a1146102cd57610142565b806301ffc9a7146101475780630665f9611461017757806306fdde0314610195578063081812fc146101b3578063095ea7b3146101e3575b600080fd5b610161600480360381019061015c9190613364565b61046d565b60405161016e9190613bef565b60405180910390f35b61017f61054f565b60405161018c919061400b565b60405180910390f35b61019d6106ab565b6040516101aa9190613c0a565b60405180910390f35b6101cd60048036038101906101c891906133b6565b61073d565b6040516101da9190613b2f565b60405180910390f35b6101fd60048036038101906101f89190613328565b6107c2565b005b61021960048036038101906102149190613222565b6108da565b005b61023560048036038101906102309190613222565b61093a565b005b610251600480360381019061024c91906133b6565b61095a565b60405161025e9190613b2f565b60405180910390f35b610281600480360381019061027c91906133b6565b610a0c565b604051610294979695949392919061406a565b60405180910390f35b6102b760048036038101906102b291906131bd565b610b5e565b6040516102c4919061404f565b60405180910390f35b6102e760048036038101906102e291906131bd565b610c16565b6040516102f4919061404f565b60405180910390f35b610305610c2e565b6040516103129190613c0a565b60405180910390f35b610335600480360381019061033091906133b6565b610cc0565b604051610348979695949392919061406a565b60405180910390f35b61036b600480360381019061036691906132ec565b610e12565b005b610375610e28565b604051610386959493929190613d10565b60405180910390f35b6103a960048036038101906103a49190613271565b610f5c565b005b6103b3610fbe565b6040516103c09190613bcd565b60405180910390f35b6103e360048036038101906103de91906133b6565b611173565b6040516103f09190613c0a565b60405180910390f35b610401611398565b60405161040e919061402d565b60405180910390f35b61041f61157a565b005b61043b600480360381019061043691906131e6565b611949565b6040516104489190613bef565b60405180910390f35b61046b600480360381019061046691906133b6565b6119dd565b005b60007f80ac58cd000000000000000000000000000000000000000000000000000000007bffffffffffffffffffffffffffffffffffffffffffffffffffffffff1916827bffffffffffffffffffffffffffffffffffffffffffffffffffffffff1916148061053857507f5b5e139f000000000000000000000000000000000000000000000000000000007bffffffffffffffffffffffffffffffffffffffffffffffffffffffff1916827bffffffffffffffffffffffffffffffffffffffffffffffffffffffff1916145b80610548575061054782611e99565b5b9050919050565b610557612fdd565b60066040518060a0016040529081600082018054610574906143be565b80601f01602080910402602001604051908101604052809291908181526020018280546105a0906143be565b80156105ed5780601f106105c2576101008083540402835291602001916105ed565b820191906000526020600020905b8154815290600101906020018083116105d057829003601f168201915b50505050508152602001600182018054610606906143be565b80601f0160208091040260200160405190810160405280929190818152602001828054610632906143be565b801561067f5780601f106106545761010080835404028352916020019161067f565b820191906000526020600020905b81548152906001019060200180831161066257829003601f168201915b505050505081526020016002820154815260200160038201548152602001600482015481525050905090565b6060600080546106ba906143be565b80601f01602080910402602001604051908101604052809291908181526020018280546106e6906143be565b80156107335780601f1061070857610100808354040283529160200191610733565b820191906000526020600020905b81548152906001019060200180831161071657829003601f168201915b5050505050905090565b600061074882611f03565b610787576040517f08c379a000000000000000000000000000000000000000000000000000000000815260040161077e90613f8b565b60405180910390fd5b6004600083815260200190815260200160002060009054906101000a900473ffffffffffffffffffffffffffffffffffffffff169050919050565b60006107cd8261095a565b90508073ffffffffffffffffffffffffffffffffffffffff168373ffffffffffffffffffffffffffffffffffffffff16141561083e576040517f08c379a000000000000000000000000000000000000000000000000000000000815260040161083590613fcb565b60405180910390fd5b8073ffffffffffffffffffffffffffffffffffffffff1661085d611f6f565b73ffffffffffffffffffffffffffffffffffffffff16148061088c575061088b81610886611f6f565b611949565b5b6108cb576040517f08c379a00000000000000000000000000000000000000000000000000000000081526004016108c290613eeb565b60405180910390fd5b6108d58383611f77565b505050565b6108eb6108e5611f6f565b82612030565b61092a576040517f08c379a000000000000000000000000000000000000000000000000000000000815260040161092190613feb565b60405180910390fd5b61093583838361210e565b505050565b61095583838360405180602001604052806000815250610f5c565b505050565b6000806002600084815260200190815260200160002060009054906101000a900473ffffffffffffffffffffffffffffffffffffffff169050600073ffffffffffffffffffffffffffffffffffffffff168173ffffffffffffffffffffffffffffffffffffffff161415610a03576040517f08c379a00000000000000000000000000000000000000000000000000000000081526004016109fa90613f2b565b60405180910390fd5b80915050919050565b600e602052806000526040600020600091509050806000015490806001018054610a35906143be565b80601f0160208091040260200160405190810160405280929190818152602001828054610a61906143be565b8015610aae5780601f10610a8357610100808354040283529160200191610aae565b820191906000526020600020905b815481529060010190602001808311610a9157829003601f168201915b505050505090806002018054610ac3906143be565b80601f0160208091040260200160405190810160405280929190818152602001828054610aef906143be565b8015610b3c5780601f10610b1157610100808354040283529160200191610b3c565b820191906000526020600020905b815481529060010190602001808311610b1f57829003601f168201915b5050505050908060030154908060040154908060050154908060060154905087565b60008073ffffffffffffffffffffffffffffffffffffffff168273ffffffffffffffffffffffffffffffffffffffff161415610bcf576040517f08c379a0000000000000000000000000000000000000000000000000000000008152600401610bc690613f0b565b60405180910390fd5b600360008373ffffffffffffffffffffffffffffffffffffffff1673ffffffffffffffffffffffffffffffffffffffff168152602001908152602001600020549050919050565b600f6020528060005260406000206000915090505481565b606060018054610c3d906143be565b80601f0160208091040260200160405190810160405280929190818152602001828054610c69906143be565b8015610cb65780601f10610c8b57610100808354040283529160200191610cb6565b820191906000526020600020905b815481529060010190602001808311610c9957829003601f168201915b5050505050905090565b600d602052806000526040600020600091509050806000015490806001018054610ce9906143be565b80601f0160208091040260200160405190810160405280929190818152602001828054610d15906143be565b8015610d625780601f10610d3757610100808354040283529160200191610d62565b820191906000526020600020905b815481529060010190602001808311610d4557829003601f168201915b505050505090806002018054610d77906143be565b80601f0160208091040260200160405190810160405280929190818152602001828054610da3906143be565b8015610df05780601f10610dc557610100808354040283529160200191610df0565b820191906000526020600020905b815481529060010190602001808311610dd357829003601f168201915b5050505050908060030154908060040154908060050154908060060154905087565b610e24610e1d611f6f565b838361236a565b5050565b6006806000018054610e39906143be565b80601f0160208091040260200160405190810160405280929190818152602001828054610e65906143be565b8015610eb25780601f10610e8757610100808354040283529160200191610eb2565b820191906000526020600020905b815481529060010190602001808311610e9557829003601f168201915b505050505090806001018054610ec7906143be565b80601f0160208091040260200160405190810160405280929190818152602001828054610ef3906143be565b8015610f405780601f10610f1557610100808354040283529160200191610f40565b820191906000526020600020905b815481529060010190602001808311610f2357829003601f168201915b5050505050908060020154908060030154908060040154905085565b610f6d610f67611f6f565b83612030565b610fac576040517f08c379a0000000000000000000000000000000000000000000000000000000008152600401610fa390613feb565b60405180910390fd5b610fb8848484846124d7565b50505050565b6060600c805480602002602001604051908101604052809291908181526020016000905b8282101561116a57838290600052602060002090600702016040518060e00160405290816000820154815260200160018201805461101f906143be565b80601f016020809104026020016040519081016040528092919081815260200182805461104b906143be565b80156110985780601f1061106d57610100808354040283529160200191611098565b820191906000526020600020905b81548152906001019060200180831161107b57829003601f168201915b505050505081526020016002820180546110b1906143be565b80601f01602080910402602001604051908101604052809291908181526020018280546110dd906143be565b801561112a5780601f106110ff5761010080835404028352916020019161112a565b820191906000526020600020905b81548152906001019060200180831161110d57829003601f168201915b5050505050815260200160038201548152602001600482015481526020016005820154815260200160068201548152505081526020019060010190610fe2565b50505050905090565b60606000600d60008481526020019081526020016000206040518060e0016040529081600082015481526020016001820180546111af906143be565b80601f01602080910402602001604051908101604052809291908181526020018280546111db906143be565b80156112285780601f106111fd57610100808354040283529160200191611228565b820191906000526020600020905b81548152906001019060200180831161120b57829003601f168201915b50505050508152602001600282018054611241906143be565b80601f016020809104026020016040519081016040528092919081815260200182805461126d906143be565b80156112ba5780601f1061128f576101008083540402835291602001916112ba565b820191906000526020600020905b81548152906001019060200180831161129d57829003601f168201915b50505050508152602001600382015481526020016004820154815260200160058201548152602001600682015481525050905060006112fc8260600151612533565b9050600061130d8360a00151612533565b9050600061131e8460c00151612533565b90506000611364856020015161133389612533565b876040015187878760405160200161135096959493929190613a68565b6040516020818303038152906040526126e0565b90506000816040516020016113799190613b0d565b6040516020818303038152906040529050809650505050505050919050565b6113a061300c565b6000600f60003373ffffffffffffffffffffffffffffffffffffffff1673ffffffffffffffffffffffffffffffffffffffff168152602001908152602001600020549050600081111561156957600d60008281526020019081526020016000206040518060e001604052908160008201548152602001600182018054611425906143be565b80601f0160208091040260200160405190810160405280929190818152602001828054611451906143be565b801561149e5780601f106114735761010080835404028352916020019161149e565b820191906000526020600020905b81548152906001019060200180831161148157829003601f168201915b505050505081526020016002820180546114b7906143be565b80601f01602080910402602001604051908101604052809291908181526020018280546114e3906143be565b80156115305780601f1061150557610100808354040283529160200191611530565b820191906000526020600020905b81548152906001019060200180831161151357829003601f168201915b50505050508152602001600382015481526020016004820154815260200160058201548152602001600682015481525050915050611577565b61157161300c565b80925050505b90565b6000600f60003373ffffffffffffffffffffffffffffffffffffffff1673ffffffffffffffffffffffffffffffffffffffff1681526020019081526020016000205490506000600d60008381526020019081526020016000209050611683604051806060016040528060278152602001614ccf60279139826001018054611600906143be565b80601f016020809104026020016040519081016040528092919081815260200182805461162c906143be565b80156116795780601f1061164e57610100808354040283529160200191611679565b820191906000526020600020905b81548152906001019060200180831161165c57829003601f168201915b505050505061287f565b6116b3604051806060016040528060228152602001614cad6022913982600301548360050154846006015461291b565b61178b6040518060400160405280601b81526020017f426f73732025732068617320257320485020616e642025732041440000000000815250600660000180546116fc906143be565b80601f0160208091040260200160405190810160405280929190818152602001828054611728906143be565b80156117755780601f1061174a57610100808354040283529160200191611775565b820191906000526020600020905b81548152906001019060200180831161175857829003601f168201915b50505050506006600201546006600401546129bd565b60008160030154116117d2576040517f08c379a00000000000000000000000000000000000000000000000000000000081526004016117c990613f4b565b60405180910390fd5b60006006600201541161181a576040517f08c379a000000000000000000000000000000000000000000000000000000000815260040161181190613e4b565b60405180910390fd5b8060050154600660020154101561183b57600060066002018190555061185a565b806005015460066002015461185091906142d4565b6006600201819055505b6006600401548160060154826003015461187491906141f3565b101561188957600081600301819055506118b6565b600660040154816006015482600301546118a391906141f3565b6118ad91906142d4565b81600301819055505b6118dd604051806060016040528060258152602001614c2060259139600660020154612a5f565b611903604051806060016040528060288152602001614c85602891398260030154612a5f565b7f838ab28464562786a6c4ab2311964b82fa60bd9b14aa7e856af1f3f18d41a414600660020154826003015460405161193d9291906140e7565b60405180910390a15050565b6000600560008473ffffffffffffffffffffffffffffffffffffffff1673ffffffffffffffffffffffffffffffffffffffff16815260200190815260200160002060008373ffffffffffffffffffffffffffffffffffffffff1673ffffffffffffffffffffffffffffffffffffffff16815260200190815260200160002060009054906101000a900460ff16905092915050565b60006119e9600b612afb565b90506119f53382612b09565b6040518060e00160405280838152602001600c8481548110611a40577f4e487b7100000000000000000000000000000000000000000000000000000000600052603260045260246000fd5b90600052602060002090600702016001018054611a5c906143be565b80601f0160208091040260200160405190810160405280929190818152602001828054611a88906143be565b8015611ad55780601f10611aaa57610100808354040283529160200191611ad5565b820191906000526020600020905b815481529060010190602001808311611ab857829003601f168201915b50505050508152602001600c8481548110611b19577f4e487b7100000000000000000000000000000000000000000000000000000000600052603260045260246000fd5b90600052602060002090600702016002018054611b35906143be565b80601f0160208091040260200160405190810160405280929190818152602001828054611b61906143be565b8015611bae5780601f10611b8357610100808354040283529160200191611bae565b820191906000526020600020905b815481529060010190602001808311611b9157829003601f168201915b50505050508152602001600c8481548110611bf2577f4e487b7100000000000000000000000000000000000000000000000000000000600052603260045260246000fd5b9060005260206000209060070201600301548152602001600c8481548110611c43577f4e487b7100000000000000000000000000000000000000000000000000000000600052603260045260246000fd5b9060005260206000209060070201600301548152602001600c8481548110611c94577f4e487b7100000000000000000000000000000000000000000000000000000000600052603260045260246000fd5b9060005260206000209060070201600501548152602001600e600085815260200190815260200160002060060154815250600d6000838152602001908152602001600020600082015181600001556020820151816001019080519060200190611cfe929190613049565b506040820151816002019080519060200190611d1b929190613049565b50606082015181600301556080820151816004015560a0820151816005015560c0820151816006015590505080600f60003373ffffffffffffffffffffffffffffffffffffffff1673ffffffffffffffffffffffffffffffffffffffff16815260200190815260200160002081905550611dae6040518060600160405280602b8152602001614cf6602b91398284612b27565b611db8600b612bc6565b7f4bc303fd457a97b4691b9af582ce71868a3d258638c8d4f8c60988a0f0bfb8cd338284604051611deb93929190613b96565b60405180910390a15050565b611e9384848484604051602401611e119493929190613c63565b6040516020818303038152906040527f8d142cdd000000000000000000000000000000000000000000000000000000007bffffffffffffffffffffffffffffffffffffffffffffffffffffffff19166020820180517bffffffffffffffffffffffffffffffffffffffffffffffffffffffff8381831617835250505050612bdc565b50505050565b60007f01ffc9a7000000000000000000000000000000000000000000000000000000007bffffffffffffffffffffffffffffffffffffffffffffffffffffffff1916827bffffffffffffffffffffffffffffffffffffffffffffffffffffffff1916149050919050565b60008073ffffffffffffffffffffffffffffffffffffffff166002600084815260200190815260200160002060009054906101000a900473ffffffffffffffffffffffffffffffffffffffff1673ffffffffffffffffffffffffffffffffffffffff1614159050919050565b600033905090565b816004600083815260200190815260200160002060006101000a81548173ffffffffffffffffffffffffffffffffffffffff021916908373ffffffffffffffffffffffffffffffffffffffff160217905550808273ffffffffffffffffffffffffffffffffffffffff16611fea8361095a565b73ffffffffffffffffffffffffffffffffffffffff167f8c5be1e5ebec7d5bd14f71427d1e84f3dd0314c0f7b2291e5b200ac8c7c3b92560405160405180910390a45050565b600061203b82611f03565b61207a576040517f08c379a000000000000000000000000000000000000000000000000000000000815260040161207190613ecb565b60405180910390fd5b60006120858361095a565b90508073ffffffffffffffffffffffffffffffffffffffff168473ffffffffffffffffffffffffffffffffffffffff1614806120f457508373ffffffffffffffffffffffffffffffffffffffff166120dc8461073d565b73ffffffffffffffffffffffffffffffffffffffff16145b8061210557506121048185611949565b5b91505092915050565b8273ffffffffffffffffffffffffffffffffffffffff1661212e8261095a565b73ffffffffffffffffffffffffffffffffffffffff1614612184576040517f08c379a000000000000000000000000000000000000000000000000000000000815260040161217b90613fab565b60405180910390fd5b600073ffffffffffffffffffffffffffffffffffffffff168273ffffffffffffffffffffffffffffffffffffffff1614156121f4576040517f08c379a00000000000000000000000000000000000000000000000000000000081526004016121eb90613e8b565b60405180910390fd5b6121ff838383612c05565b61220a600082611f77565b6001600360008573ffffffffffffffffffffffffffffffffffffffff1673ffffffffffffffffffffffffffffffffffffffff168152602001908152602001600020600082825461225a91906142d4565b925050819055506001600360008473ffffffffffffffffffffffffffffffffffffffff1673ffffffffffffffffffffffffffffffffffffffff16815260200190815260200160002060008282546122b191906141f3565b92505081905550816002600083815260200190815260200160002060006101000a81548173ffffffffffffffffffffffffffffffffffffffff021916908373ffffffffffffffffffffffffffffffffffffffff160217905550808273ffffffffffffffffffffffffffffffffffffffff168473ffffffffffffffffffffffffffffffffffffffff167fddf252ad1be2c89b69c2b068fc378daa952ba7f163c4a11628f55a4df523b3ef60405160405180910390a4505050565b8173ffffffffffffffffffffffffffffffffffffffff168373ffffffffffffffffffffffffffffffffffffffff1614156123d9576040517f08c379a00000000000000000000000000000000000000000000000000000000081526004016123d090613eab565b60405180910390fd5b80600560008573ffffffffffffffffffffffffffffffffffffffff1673ffffffffffffffffffffffffffffffffffffffff16815260200190815260200160002060008473ffffffffffffffffffffffffffffffffffffffff1673ffffffffffffffffffffffffffffffffffffffff16815260200190815260200160002060006101000a81548160ff0219169083151502179055508173ffffffffffffffffffffffffffffffffffffffff168373ffffffffffffffffffffffffffffffffffffffff167f17307eab39ab6107e8899845ad3d59bd9653f200f220920489ca2b5937696c31836040516124ca9190613bef565b60405180910390a3505050565b6124e284848461210e565b6124ee84848484612c0a565b61252d576040517f08c379a000000000000000000000000000000000000000000000000000000000815260040161252490613e2b565b60405180910390fd5b50505050565b6060600082141561257b576040518060400160405280600181526020017f300000000000000000000000000000000000000000000000000000000000000081525090506126db565b600082905060005b600082146125ad57808061259690614421565b915050600a826125a69190614249565b9150612583565b60008167ffffffffffffffff8111156125ef577f4e487b7100000000000000000000000000000000000000000000000000000000600052604160045260246000fd5b6040519080825280601f01601f1916602001820160405280156126215781602001600182028036833780820191505090505b5090505b600085146126d45760018261263a91906142d4565b9150600a85612649919061446a565b603061265591906141f3565b60f81b818381518110612691577f4e487b7100000000000000000000000000000000000000000000000000000000600052603260045260246000fd5b60200101907effffffffffffffffffffffffffffffffffffffffffffffffffffffffffffff1916908160001a905350600a856126cd9190614249565b9450612625565b8093505050505b919050565b60606000825114156127035760405180602001604052806000815250905061287a565b6000604051806060016040528060408152602001614c45604091399050600060036002855161273291906141f3565b61273c9190614249565b6004612748919061427a565b9050600060208261275991906141f3565b67ffffffffffffffff811115612798577f4e487b7100000000000000000000000000000000000000000000000000000000600052604160045260246000fd5b6040519080825280601f01601f1916602001820160405280156127ca5781602001600182028036833780820191505090505b509050818152600183018586518101602084015b81831015612839576003830192508251603f8160121c168501518253600182019150603f81600c1c168501518253600182019150603f8160061c168501518253600182019150603f81168501518253600182019150506127de565b60038951066001811461285357600281146128635761286e565b613d3d60f01b600283035261286e565b603d60f81b60018303525b50505050508093505050505b919050565b6129178282604051602401612895929190613c2c565b6040516020818303038152906040527f4b5c4277000000000000000000000000000000000000000000000000000000007bffffffffffffffffffffffffffffffffffffffffffffffffffffffff19166020820180517bffffffffffffffffffffffffffffffffffffffffffffffffffffffff8381831617835250505050612bdc565b5050565b6129b7848484846040516024016129359493929190613ddf565b6040516020818303038152906040527f08ee5666000000000000000000000000000000000000000000000000000000007bffffffffffffffffffffffffffffffffffffffffffffffffffffffff19166020820180517bffffffffffffffffffffffffffffffffffffffffffffffffffffffff8381831617835250505050612bdc565b50505050565b612a59848484846040516024016129d79493929190613cbd565b6040516020818303038152906040527fd5cf17d0000000000000000000000000000000000000000000000000000000007bffffffffffffffffffffffffffffffffffffffffffffffffffffffff19166020820180517bffffffffffffffffffffffffffffffffffffffffffffffffffffffff8381831617835250505050612bdc565b50505050565b612af78282604051602401612a75929190613d71565b6040516020818303038152906040527f9710a9d0000000000000000000000000000000000000000000000000000000007bffffffffffffffffffffffffffffffffffffffffffffffffffffffff19166020820180517bffffffffffffffffffffffffffffffffffffffffffffffffffffffff8381831617835250505050612bdc565b5050565b600081600001549050919050565b612b23828260405180602001604052806000815250612da1565b5050565b612bc1838383604051602401612b3f93929190613da1565b6040516020818303038152906040527f969cdd03000000000000000000000000000000000000000000000000000000007bffffffffffffffffffffffffffffffffffffffffffffffffffffffff19166020820180517bffffffffffffffffffffffffffffffffffffffffffffffffffffffff8381831617835250505050612bdc565b505050565b6001816000016000828254019250508190555050565b60008151905060006a636f6e736f6c652e6c6f679050602083016000808483855afa5050505050565b505050565b6000612c2b8473ffffffffffffffffffffffffffffffffffffffff16612dfc565b15612d94578373ffffffffffffffffffffffffffffffffffffffff1663150b7a02612c54611f6f565b8786866040518563ffffffff1660e01b8152600401612c769493929190613b4a565b602060405180830381600087803b158015612c9057600080fd5b505af1925050508015612cc157506040513d601f19601f82011682018060405250810190612cbe919061338d565b60015b612d44573d8060008114612cf1576040519150601f19603f3d011682016040523d82523d6000602084013e612cf6565b606091505b50600081511415612d3c576040517f08c379a0000000000000000000000000000000000000000000000000000000008152600401612d3390613e2b565b60405180910390fd5b805181602001fd5b63150b7a0260e01b7bffffffffffffffffffffffffffffffffffffffffffffffffffffffff1916817bffffffffffffffffffffffffffffffffffffffffffffffffffffffff191614915050612d99565b600190505b949350505050565b612dab8383612e0f565b612db86000848484612c0a565b612df7576040517f08c379a0000000000000000000000000000000000000000000000000000000008152600401612dee90613e2b565b60405180910390fd5b505050565b600080823b905060008111915050919050565b600073ffffffffffffffffffffffffffffffffffffffff168273ffffffffffffffffffffffffffffffffffffffff161415612e7f576040517f08c379a0000000000000000000000000000000000000000000000000000000008152600401612e7690613f6b565b60405180910390fd5b612e8881611f03565b15612ec8576040517f08c379a0000000000000000000000000000000000000000000000000000000008152600401612ebf90613e6b565b60405180910390fd5b612ed460008383612c05565b6001600360008473ffffffffffffffffffffffffffffffffffffffff1673ffffffffffffffffffffffffffffffffffffffff1681526020019081526020016000206000828254612f2491906141f3565b92505081905550816002600083815260200190815260200160002060006101000a81548173ffffffffffffffffffffffffffffffffffffffff021916908373ffffffffffffffffffffffffffffffffffffffff160217905550808273ffffffffffffffffffffffffffffffffffffffff16600073ffffffffffffffffffffffffffffffffffffffff167fddf252ad1be2c89b69c2b068fc378daa952ba7f163c4a11628f55a4df523b3ef60405160405180910390a45050565b6040518060a0016040528060608152602001606081526020016000815260200160008152602001600081525090565b6040518060e00160405280600081526020016060815260200160608152602001600081526020016000815260200160008152602001600081525090565b828054613055906143be565b90600052602060002090601f01602090048101928261307757600085556130be565b82601f1061309057805160ff19168380011785556130be565b828001600101855582156130be579182015b828111156130bd5782518255916020019190600101906130a2565b5b5090506130cb91906130cf565b5090565b5b808211156130e85760008160009055506001016130d0565b5090565b60006130ff6130fa84614135565b614110565b90508281526020810184848401111561311757600080fd5b61312284828561437c565b509392505050565b60008135905061313981614bc3565b92915050565b60008135905061314e81614bda565b92915050565b60008135905061316381614bf1565b92915050565b60008151905061317881614bf1565b92915050565b600082601f83011261318f57600080fd5b813561319f8482602086016130ec565b91505092915050565b6000813590506131b781614c08565b92915050565b6000602082840312156131cf57600080fd5b60006131dd8482850161312a565b91505092915050565b600080604083850312156131f957600080fd5b60006132078582860161312a565b92505060206132188582860161312a565b9150509250929050565b60008060006060848603121561323757600080fd5b60006132458682870161312a565b93505060206132568682870161312a565b9250506040613267868287016131a8565b9150509250925092565b6000806000806080858703121561328757600080fd5b60006132958782880161312a565b94505060206132a68782880161312a565b93505060406132b7878288016131a8565b925050606085013567ffffffffffffffff8111156132d457600080fd5b6132e08782880161317e565b91505092959194509250565b600080604083850312156132ff57600080fd5b600061330d8582860161312a565b925050602061331e8582860161313f565b9150509250929050565b6000806040838503121561333b57600080fd5b60006133498582860161312a565b925050602061335a858286016131a8565b9150509250929050565b60006020828403121561337657600080fd5b600061338484828501613154565b91505092915050565b60006020828403121561339f57600080fd5b60006133ad84828501613169565b91505092915050565b6000602082840312156133c857600080fd5b60006133d6848285016131a8565b91505092915050565b60006133eb8383613904565b905092915050565b6133fc81614308565b82525050565b600061340d82614176565b61341781856141a4565b93508360208202850161342985614166565b8060005b85811015613465578484038952815161344685826133df565b945061345183614197565b925060208a0199505060018101905061342d565b50829750879550505050505092915050565b6134808161431a565b82525050565b600061349182614181565b61349b81856141b5565b93506134ab81856020860161438b565b6134b481614557565b840191505092915050565b60006134ca8261418c565b6134d481856141c6565b93506134e481856020860161438b565b6134ed81614557565b840191505092915050565b60006135038261418c565b61350d81856141d7565b935061351d81856020860161438b565b61352681614557565b840191505092915050565b600061353c8261418c565b61354681856141e8565b935061355681856020860161438b565b80840191505092915050565b600061356f600b836141e8565b915061357a82614568565b600b82019050919050565b60006135926032836141d7565b915061359d82614591565b604082019050919050565b60006135b56028836141d7565b91506135c0826145e0565b604082019050919050565b60006135d8601c836141d7565b91506135e38261462f565b602082019050919050565b60006135fb6024836141d7565b915061360682614658565b604082019050919050565b600061361e6019836141d7565b9150613629826146a7565b602082019050919050565b6000613641602c836141d7565b915061364c826146d0565b604082019050919050565b60006136646038836141d7565b915061366f8261471f565b604082019050919050565b6000613687602a836141d7565b91506136928261476e565b604082019050919050565b60006136aa6029836141d7565b91506136b5826147bd565b604082019050919050565b60006136cd602d836141d7565b91506136d88261480c565b604082019050919050565b60006136f06020836141d7565b91506136fb8261485b565b602082019050919050565b6000613713602c836141d7565b915061371e82614884565b604082019050919050565b60006137366029836141d7565b9150613741826148d3565b604082019050919050565b6000613759600a836141e8565b915061376482614922565b600a82019050919050565b600061377c606d836141e8565b91506137878261494b565b606d82019050919050565b600061379f6021836141d7565b91506137aa826149e6565b604082019050919050565b60006137c2601d836141e8565b91506137cd82614a35565b601d82019050919050565b60006137e56031836141d7565b91506137f082614a5e565b604082019050919050565b60006138086016836141e8565b915061381382614aad565b601682019050919050565b600061382b6040836141e8565b915061383682614ad6565b604082019050919050565b600061384e603d836141e8565b915061385982614b25565b603d82019050919050565b60006138716038836141e8565b915061387c82614b74565b603882019050919050565b600060a08301600083015184820360008601526138a482826134bf565b915050602083015184820360208601526138be82826134bf565b91505060408301516138d36040860182613a4a565b5060608301516138e66060860182613a4a565b5060808301516138f96080860182613a4a565b508091505092915050565b600060e08301600083015161391c6000860182613a4a565b506020830151848203602086015261393482826134bf565b9150506040830151848203604086015261394e82826134bf565b91505060608301516139636060860182613a4a565b5060808301516139766080860182613a4a565b5060a083015161398960a0860182613a4a565b5060c083015161399c60c0860182613a4a565b508091505092915050565b600060e0830160008301516139bf6000860182613a4a565b50602083015184820360208601526139d782826134bf565b915050604083015184820360408601526139f182826134bf565b9150506060830151613a066060860182613a4a565b506080830151613a196080860182613a4a565b5060a0830151613a2c60a0860182613a4a565b5060c0830151613a3f60c0860182613a4a565b508091505092915050565b613a5381614372565b82525050565b613a6281614372565b82525050565b6000613a738261374c565b9150613a7f8289613531565b9150613a8a82613562565b9150613a968288613531565b9150613aa18261376f565b9150613aad8287613531565b9150613ab882613841565b9150613ac48286613531565b9150613acf8261381e565b9150613adb8285613531565b9150613ae682613864565b9150613af28284613531565b9150613afd826137fb565b9150819050979650505050505050565b6000613b18826137b5565b9150613b248284613531565b915081905092915050565b6000602082019050613b4460008301846133f3565b92915050565b6000608082019050613b5f60008301876133f3565b613b6c60208301866133f3565b613b796040830185613a59565b8181036060830152613b8b8184613486565b905095945050505050565b6000606082019050613bab60008301866133f3565b613bb86020830185613a59565b613bc56040830184613a59565b949350505050565b60006020820190508181036000830152613be78184613402565b905092915050565b6000602082019050613c046000830184613477565b92915050565b60006020820190508181036000830152613c2481846134f8565b905092915050565b60006040820190508181036000830152613c4681856134f8565b90508181036020830152613c5a81846134f8565b90509392505050565b60006080820190508181036000830152613c7d81876134f8565b90508181036020830152613c9181866134f8565b9050613ca06040830185613a59565b8181036060830152613cb281846134f8565b905095945050505050565b60006080820190508181036000830152613cd781876134f8565b90508181036020830152613ceb81866134f8565b9050613cfa6040830185613a59565b613d076060830184613a59565b95945050505050565b600060a0820190508181036000830152613d2a81886134f8565b90508181036020830152613d3e81876134f8565b9050613d4d6040830186613a59565b613d5a6060830185613a59565b613d676080830184613a59565b9695505050505050565b60006040820190508181036000830152613d8b81856134f8565b9050613d9a6020830184613a59565b9392505050565b60006060820190508181036000830152613dbb81866134f8565b9050613dca6020830185613a59565b613dd76040830184613a59565b949350505050565b60006080820190508181036000830152613df981876134f8565b9050613e086020830186613a59565b613e156040830185613a59565b613e226060830184613a59565b95945050505050565b60006020820190508181036000830152613e4481613585565b9050919050565b60006020820190508181036000830152613e64816135a8565b9050919050565b60006020820190508181036000830152613e84816135cb565b9050919050565b60006020820190508181036000830152613ea4816135ee565b9050919050565b60006020820190508181036000830152613ec481613611565b9050919050565b60006020820190508181036000830152613ee481613634565b9050919050565b60006020820190508181036000830152613f0481613657565b9050919050565b60006020820190508181036000830152613f248161367a565b9050919050565b60006020820190508181036000830152613f448161369d565b9050919050565b60006020820190508181036000830152613f64816136c0565b9050919050565b60006020820190508181036000830152613f84816136e3565b9050919050565b60006020820190508181036000830152613fa481613706565b9050919050565b60006020820190508181036000830152613fc481613729565b9050919050565b60006020820190508181036000830152613fe481613792565b9050919050565b60006020820190508181036000830152614004816137d8565b9050919050565b600060208201905081810360008301526140258184613887565b905092915050565b6000602082019050818103600083015261404781846139a7565b905092915050565b60006020820190506140646000830184613a59565b92915050565b600060e08201905061407f600083018a613a59565b818103602083015261409181896134f8565b905081810360408301526140a581886134f8565b90506140b46060830187613a59565b6140c16080830186613a59565b6140ce60a0830185613a59565b6140db60c0830184613a59565b98975050505050505050565b60006040820190506140fc6000830185613a59565b6141096020830184613a59565b9392505050565b600061411a61412b565b905061412682826143f0565b919050565b6000604051905090565b600067ffffffffffffffff8211156141505761414f614528565b5b61415982614557565b9050602081019050919050565b6000819050602082019050919050565b600081519050919050565b600081519050919050565b600081519050919050565b6000602082019050919050565b600082825260208201905092915050565b600082825260208201905092915050565b600082825260208201905092915050565b600082825260208201905092915050565b600081905092915050565b60006141fe82614372565b915061420983614372565b9250827fffffffffffffffffffffffffffffffffffffffffffffffffffffffffffffffff0382111561423e5761423d61449b565b5b828201905092915050565b600061425482614372565b915061425f83614372565b92508261426f5761426e6144ca565b5b828204905092915050565b600061428582614372565b915061429083614372565b9250817fffffffffffffffffffffffffffffffffffffffffffffffffffffffffffffffff04831182151516156142c9576142c861449b565b5b828202905092915050565b60006142df82614372565b91506142ea83614372565b9250828210156142fd576142fc61449b565b5b828203905092915050565b600061431382614352565b9050919050565b60008115159050919050565b60007fffffffff0000000000000000000000000000000000000000000000000000000082169050919050565b600073ffffffffffffffffffffffffffffffffffffffff82169050919050565b6000819050919050565b82818337600083830152505050565b60005b838110156143a957808201518184015260208101905061438e565b838111156143b8576000848401525b50505050565b600060028204905060018216806143d657607f821691505b602082108114156143ea576143e96144f9565b5b50919050565b6143f982614557565b810181811067ffffffffffffffff8211171561441857614417614528565b5b80604052505050565b600061442c82614372565b91507fffffffffffffffffffffffffffffffffffffffffffffffffffffffffffffffff82141561445f5761445e61449b565b5b600182019050919050565b600061447582614372565b915061448083614372565b9250826144905761448f6144ca565b5b828206905092915050565b7f4e487b7100000000000000000000000000000000000000000000000000000000600052601160045260246000fd5b7f4e487b7100000000000000000000000000000000000000000000000000000000600052601260045260246000fd5b7f4e487b7100000000000000000000000000000000000000000000000000000000600052602260045260246000fd5b7f4e487b7100000000000000000000000000000000000000000000000000000000600052604160045260246000fd5b6000601f19601f8301169050919050565b7f202d2d204e465420233a20000000000000000000000000000000000000000000600082015250565b7f4552433732313a207472616e7366657220746f206e6f6e20455243373231526560008201527f63656976657220696d706c656d656e7465720000000000000000000000000000602082015250565b7f4572726f723a20626f7373206d757374206861766520485020746f206174746160008201527f636b20626f73732e000000000000000000000000000000000000000000000000602082015250565b7f4552433732313a20746f6b656e20616c7265616479206d696e74656400000000600082015250565b7f4552433732313a207472616e7366657220746f20746865207a65726f2061646460008201527f7265737300000000000000000000000000000000000000000000000000000000602082015250565b7f4552433732313a20617070726f766520746f2063616c6c657200000000000000600082015250565b7f4552433732313a206f70657261746f7220717565727920666f72206e6f6e657860008201527f697374656e7420746f6b656e0000000000000000000000000000000000000000602082015250565b7f4552433732313a20617070726f76652063616c6c6572206973206e6f74206f7760008201527f6e6572206e6f7220617070726f76656420666f7220616c6c0000000000000000602082015250565b7f4552433732313a2062616c616e636520717565727920666f7220746865207a6560008201527f726f206164647265737300000000000000000000000000000000000000000000602082015250565b7f4552433732313a206f776e657220717565727920666f72206e6f6e657869737460008201527f656e7420746f6b656e0000000000000000000000000000000000000000000000602082015250565b7f4572726f723a20636861726163746572206d757374206861766520485020746f60008201527f2061747461636b20626f73732e00000000000000000000000000000000000000602082015250565b7f4552433732313a206d696e7420746f20746865207a65726f2061646472657373600082015250565b7f4552433732313a20617070726f76656420717565727920666f72206e6f6e657860008201527f697374656e7420746f6b656e0000000000000000000000000000000000000000602082015250565b7f4552433732313a207472616e73666572206f6620746f6b656e2074686174206960008201527f73206e6f74206f776e0000000000000000000000000000000000000000000000602082015250565b7f7b226e616d65223a202200000000000000000000000000000000000000000000600082015250565b7f222c20226465736372697074696f6e223a2022437269746963616c486974206960008201527f732061207475726e2d6261736564204e46542067616d6520776865726520796f60208201527f752074616b65207475726e7320746f2061747461636b2074686520626f6f732e60408201527f222c2022696d616765223a202200000000000000000000000000000000000000606082015250565b7f4552433732313a20617070726f76616c20746f2063757272656e74206f776e6560008201527f7200000000000000000000000000000000000000000000000000000000000000602082015250565b7f646174613a6170706c69636174696f6e2f6a736f6e3b6261736536342c000000600082015250565b7f4552433732313a207472616e736665722063616c6c6572206973206e6f74206f60008201527f776e6572206e6f7220617070726f766564000000000000000000000000000000602082015250565b7f2c20226d61785f76616c7565223a203130307d205d7d00000000000000000000600082015250565b7f2c20226d61785f76616c7565223a20333030207d2c207b202274726169745f7460008201527f797065223a202241747461636b2044616d616765222c202276616c7565223a20602082015250565b7f222c202261747472696275746573223a205b207b202274726169745f7479706560008201527f223a20224865616c746820506f696e7473222c202276616c7565223a20000000602082015250565b7f2c20226d61785f76616c7565223a203430307d2c207b202274726169745f747960008201527f7065223a2022536869656c64222c202276616c7565223a200000000000000000602082015250565b614bcc81614308565b8114614bd757600080fd5b50565b614be38161431a565b8114614bee57600080fd5b50565b614bfa81614326565b8114614c0557600080fd5b50565b614c1181614372565b8114614c1c57600080fd5b5056fe506c617965722061747461636b656420626f73732e204e657720626f73732068703a2025734142434445464748494a4b4c4d4e4f505152535455565758595a6162636465666768696a6b6c6d6e6f707172737475767778797a303132333435363738392b2f426f73732061747461636b656420706c617965722e204e657720706c617965722068703a2025730a506c61796572206861732025732048502c20257320414420616e642025732053680a0a506c6179657220772f206368617261637465722025732061626f757420746f2061747461636b4d696e746564204e465420772f20746f6b656e496420257320616e64206368617261637465724964202573a26469706673582212204bb62bcd3e6a30c97b1a992e2abfd2197641dc4192051b9cef41dd6fd50b130a64736f6c63430008040033446f6e6520696e697469616c697a696e6720257320772f2048502025732c20696d67202573446f6e6520696e697469616c697a696e6720626f737320257320772f2048502025732c20696d67202573",
  "linkReferences": {},
  "deployedLinkReferences": {}
}