{
  "_format": "hh-sol-artifact-1",
  "contractName": "MyEpicNFT",
  "sourceName": "contracts/MyEpicNFT.sol",
  "abi": [
    {
      "inputs": [],
      "stateMutability": "nonpayable",
      "type": "constructor"
    },
    {
      "anonymous": false,
      "inputs": [
        {
          "indexed": true,
          "internalType": "address",
          "name": "owner",
          "type": "address"
        },
        {
          "indexed": true,
          "internalType": "address",
          "name": "approved",
          "type": "address"
        },
        {
          "indexed": true,
          "internalType": "uint256",
          "name": "tokenId",
          "type": "uint256"
        }
      ],
      "name": "Approval",
      "type": "event"
    },
    {
      "anonymous": false,
      "inputs": [
        {
          "indexed": true,
          "internalType": "address",
          "name": "owner",
          "type": "address"
        },
        {
          "indexed": true,
          "internalType": "address",
          "name": "operator",
          "type": "address"
        },
        {
          "indexed": false,
          "internalType": "bool",
          "name": "approved",
          "type": "bool"
        }
      ],
      "name": "ApprovalForAll",
      "type": "event"
    },
    {
      "anonymous": false,
      "inputs": [
        {
          "indexed": false,
          "internalType": "address",
          "name": "sender",
          "type": "address"
        },
        {
          "indexed": false,
          "internalType": "uint256",
          "name": "tokenId",
          "type": "uint256"
        }
      ],
      "name": "NewEpicNFTMinted",
      "type": "event"
    },
    {
      "anonymous": false,
      "inputs": [
        {
          "indexed": true,
          "internalType": "address",
          "name": "from",
          "type": "address"
        },
        {
          "indexed": true,
          "internalType": "address",
          "name": "to",
          "type": "address"
        },
        {
          "indexed": true,
          "internalType": "uint256",
          "name": "tokenId",
          "type": "uint256"
        }
      ],
      "name": "Transfer",
      "type": "event"
    },
    {
      "anonymous": false,
      "inputs": [
        {
          "indexed": false,
          "internalType": "uint256",
          "name": "maxSupply",
          "type": "uint256"
        },
        {
          "indexed": false,
          "internalType": "uint256",
          "name": "currentSupply",
          "type": "uint256"
        }
      ],
      "name": "getTotalNFTsMintedSoFar",
      "type": "event"
    },
    {
      "inputs": [
        {
          "internalType": "address",
          "name": "to",
          "type": "address"
        },
        {
          "internalType": "uint256",
          "name": "tokenId",
          "type": "uint256"
        }
      ],
      "name": "approve",
      "outputs": [],
      "stateMutability": "nonpayable",
      "type": "function"
    },
    {
      "inputs": [
        {
          "internalType": "address",
          "name": "owner",
          "type": "address"
        }
      ],
      "name": "balanceOf",
      "outputs": [
        {
          "internalType": "uint256",
          "name": "",
          "type": "uint256"
        }
      ],
      "stateMutability": "view",
      "type": "function"
    },
    {
      "inputs": [
        {
          "internalType": "uint256",
          "name": "tokenId",
          "type": "uint256"
        }
      ],
      "name": "getApproved",
      "outputs": [
        {
          "internalType": "address",
          "name": "",
          "type": "address"
        }
      ],
      "stateMutability": "view",
      "type": "function"
    },
    {
      "inputs": [],
      "name": "getCurrentTotalNFTs",
      "outputs": [
        {
          "internalType": "uint256",
          "name": "",
          "type": "uint256"
        }
      ],
      "stateMutability": "view",
      "type": "function"
    },
    {
      "inputs": [],
      "name": "getTotalNFTs",
      "outputs": [
        {
          "internalType": "uint256",
          "name": "",
          "type": "uint256"
        }
      ],
      "stateMutability": "view",
      "type": "function"
    },
    {
      "inputs": [
        {
          "internalType": "address",
          "name": "owner",
          "type": "address"
        },
        {
          "internalType": "address",
          "name": "operator",
          "type": "address"
        }
      ],
      "name": "isApprovedForAll",
      "outputs": [
        {
          "internalType": "bool",
          "name": "",
          "type": "bool"
        }
      ],
      "stateMutability": "view",
      "type": "function"
    },
    {
      "inputs": [],
      "name": "makeAnEpicNFT",
      "outputs": [],
      "stateMutability": "nonpayable",
      "type": "function"
    },
    {
      "inputs": [],
      "name": "maxSupply",
      "outputs": [
        {
          "internalType": "uint256",
          "name": "",
          "type": "uint256"
        }
      ],
      "stateMutability": "view",
      "type": "function"
    },
    {
      "inputs": [],
      "name": "name",
      "outputs": [
        {
          "internalType": "string",
          "name": "",
          "type": "string"
        }
      ],
      "stateMutability": "view",
      "type": "function"
    },
    {
      "inputs": [
        {
          "internalType": "uint256",
          "name": "tokenId",
          "type": "uint256"
        }
      ],
      "name": "ownerOf",
      "outputs": [
        {
          "internalType": "address",
          "name": "",
          "type": "address"
        }
      ],
      "stateMutability": "view",
      "type": "function"
    },
    {
      "inputs": [
        {
          "internalType": "uint256",
          "name": "tokenId",
          "type": "uint256"
        }
      ],
      "name": "pickRandomFirstWord",
      "outputs": [
        {
          "internalType": "string",
          "name": "",
          "type": "string"
        }
      ],
      "stateMutability": "view",
      "type": "function"
    },
    {
      "inputs": [
        {
          "internalType": "uint256",
          "name": "tokenId",
          "type": "uint256"
        }
      ],
      "name": "pickRandomSecondWord",
      "outputs": [
        {
          "internalType": "string",
          "name": "",
          "type": "string"
        }
      ],
      "stateMutability": "view",
      "type": "function"
    },
    {
      "inputs": [
        {
          "internalType": "uint256",
          "name": "tokenId",
          "type": "uint256"
        }
      ],
      "name": "pickRandomThirdWord",
      "outputs": [
        {
          "internalType": "string",
          "name": "",
          "type": "string"
        }
      ],
      "stateMutability": "view",
      "type": "function"
    },
    {
      "inputs": [
        {
          "internalType": "address",
          "name": "from",
          "type": "address"
        },
        {
          "internalType": "address",
          "name": "to",
          "type": "address"
        },
        {
          "internalType": "uint256",
          "name": "tokenId",
          "type": "uint256"
        }
      ],
      "name": "safeTransferFrom",
      "outputs": [],
      "stateMutability": "nonpayable",
      "type": "function"
    },
    {
      "inputs": [
        {
          "internalType": "address",
          "name": "from",
          "type": "address"
        },
        {
          "internalType": "address",
          "name": "to",
          "type": "address"
        },
        {
          "internalType": "uint256",
          "name": "tokenId",
          "type": "uint256"
        },
        {
          "internalType": "bytes",
          "name": "_data",
          "type": "bytes"
        }
      ],
      "name": "safeTransferFrom",
      "outputs": [],
      "stateMutability": "nonpayable",
      "type": "function"
    },
    {
      "inputs": [
        {
          "internalType": "address",
          "name": "operator",
          "type": "address"
        },
        {
          "internalType": "bool",
          "name": "approved",
          "type": "bool"
        }
      ],
      "name": "setApprovalForAll",
      "outputs": [],
      "stateMutability": "nonpayable",
      "type": "function"
    },
    {
      "inputs": [
        {
          "internalType": "bytes4",
          "name": "interfaceId",
          "type": "bytes4"
        }
      ],
      "name": "supportsInterface",
      "outputs": [
        {
          "internalType": "bool",
          "name": "",
          "type": "bool"
        }
      ],
      "stateMutability": "view",
      "type": "function"
    },
    {
      "inputs": [],
      "name": "symbol",
      "outputs": [
        {
          "internalType": "string",
          "name": "",
          "type": "string"
        }
      ],
      "stateMutability": "view",
      "type": "function"
    },
    {
      "inputs": [
        {
          "internalType": "uint256",
          "name": "tokenId",
          "type": "uint256"
        }
      ],
      "name": "tokenURI",
      "outputs": [
        {
          "internalType": "string",
          "name": "",
          "type": "string"
        }
      ],
      "stateMutability": "view",
      "type": "function"
    },
    {
      "inputs": [
        {
          "internalType": "address",
          "name": "from",
          "type": "address"
        },
        {
          "internalType": "address",
          "name": "to",
          "type": "address"
        },
        {
          "internalType": "uint256",
          "name": "tokenId",
          "type": "uint256"
        }
      ],
      "name": "transferFrom",
      "outputs": [],
      "stateMutability": "nonpayable",
      "type": "function"
    }
  ],
  "bytecode": "0x6080604052603260085560405180610180016040528061014481526020016200a3336101449139600990805190602001906200003d929190620064c9565b5060405180610e8001604052806040518060400160405280600681526020017f416775696c61000000000000000000000000000000000000000000000000000081525081526020016040518060400160405280600881526020017f417665737472757a00000000000000000000000000000000000000000000000081525081526020016040518060400160405280600781526020017f42616c6c656e610000000000000000000000000000000000000000000000000081525081526020016040518060400160405280600781526020017f4269736f6e74650000000000000000000000000000000000000000000000000081525081526020016040518060400160405280600681526020017f427566616c6f000000000000000000000000000000000000000000000000000081525081526020016040518060400160405280600481526020017f4275686f0000000000000000000000000000000000000000000000000000000081525081526020016040518060400160405280600681526020017f427569747265000000000000000000000000000000000000000000000000000081525081526020016040518060400160405280600581526020017f427572726f00000000000000000000000000000000000000000000000000000081525081526020016040518060400160405280600781526020017f436162616c6c6f0000000000000000000000000000000000000000000000000081525081526020016040518060400160405280600581526020017f436162726100000000000000000000000000000000000000000000000000000081525081526020016040518060400160405280600881526020017f43616d616c656f6e00000000000000000000000000000000000000000000000081525081526020016040518060400160405280600781526020017f43616d656c6c6f0000000000000000000000000000000000000000000000000081525081526020016040518060400160405280600781526020017f43616e6172696f0000000000000000000000000000000000000000000000000081525081526020016040518060400160405280600681526020017f436173746f72000000000000000000000000000000000000000000000000000081525081526020016040518060400160405280600581526020017f436562726100000000000000000000000000000000000000000000000000000081525081526020016040518060400160405280600581526020017f436572646f00000000000000000000000000000000000000000000000000000081525081526020016040518060400160405280600681526020017f43696572766f000000000000000000000000000000000000000000000000000081525081526020016040518060400160405280600581526020017f436f62726100000000000000000000000000000000000000000000000000000081525081526020016040518060400160405280600781526020017f436f6c696272690000000000000000000000000000000000000000000000000081525081526020016040518060400160405280600981526020017f436f6d616472656a61000000000000000000000000000000000000000000000081525081526020016040518060400160405280600681526020017f436f6e646f72000000000000000000000000000000000000000000000000000081525081526020016040518060400160405280600681526020017f436f6e656a6f000000000000000000000000000000000000000000000000000081525081526020016040518060400160405280600681526020017f44656c66696e000000000000000000000000000000000000000000000000000081525081526020016040518060400160405280600881526020017f456c6566616e746500000000000000000000000000000000000000000000000081525081526020016040518060400160405280600681526020017f46616973616e000000000000000000000000000000000000000000000000000081525081526020016040518060400160405280600881526020017f466c616d656e636f00000000000000000000000000000000000000000000000081525081526020016040518060400160405280600481526020017f466f63610000000000000000000000000000000000000000000000000000000081525081526020016040518060400160405280600781526020017f47616c6c696e610000000000000000000000000000000000000000000000000081525081526020016040518060400160405280600581526020017f47616c6c6f00000000000000000000000000000000000000000000000000000081525081526020016040518060400160405280600481526020017f4761746f0000000000000000000000000000000000000000000000000000000081525081526020016040518060400160405280600681526020017f476f72696c61000000000000000000000000000000000000000000000000000081525081526020016040518060400160405280600881526020017f477565706172646f00000000000000000000000000000000000000000000000081525081526020016040518060400160405280600781526020017f48616d737465720000000000000000000000000000000000000000000000000081525081526020016040518060400160405280600581526020017f4869656e6100000000000000000000000000000000000000000000000000000081525081526020016040518060400160405280600a81526020017f4869706f706f74616d6f0000000000000000000000000000000000000000000081525081526020016040518060400160405280600681526020017f4a6162616c69000000000000000000000000000000000000000000000000000081525081526020016040518060400160405280600681526020017f4a6167756172000000000000000000000000000000000000000000000000000081525081526020016040518060400160405280600581526020017f4b6f616c6100000000000000000000000000000000000000000000000000000081525081526020016040518060400160405280600781526020017f4c61676172746f0000000000000000000000000000000000000000000000000081525081526020016040518060400160405280600581526020017f4c6c616d6100000000000000000000000000000000000000000000000000000081525081526020016040518060400160405280600481526020017f4c6f626f0000000000000000000000000000000000000000000000000000000081525081526020016040518060400160405280600481526020017f4c6f726f0000000000000000000000000000000000000000000000000000000081525081526020016040518060400160405280600681526020017f4d616e617469000000000000000000000000000000000000000000000000000081525081526020016040518060400160405280600781526020017f4d6170616368650000000000000000000000000000000000000000000000000081525081526020016040518060400160405280600481526020017f4d6f6e6f0000000000000000000000000000000000000000000000000000000081525081526020016040518060400160405280600a81526020017f4d75726369656c61676f0000000000000000000000000000000000000000000081525081526020016040518060400160405280600681526020017f4e7574726961000000000000000000000000000000000000000000000000000081525081526020016040518060400160405280600481526020017f4f7263610000000000000000000000000000000000000000000000000000000081525081526020016040518060400160405280600381526020017f4f736f000000000000000000000000000000000000000000000000000000000081525081526020016040518060400160405280600681526020017f50616c6f6d61000000000000000000000000000000000000000000000000000081525081526020016040518060400160405280600581526020017f50616e646100000000000000000000000000000000000000000000000000000081525081526020016040518060400160405280600481526020017f5061746f0000000000000000000000000000000000000000000000000000000081525081526020016040518060400160405280600881526020017f50656c6963616e6f00000000000000000000000000000000000000000000000081525081526020016040518060400160405280600581526020017f506572726f00000000000000000000000000000000000000000000000000000081525081526020016040518060400160405280600b81526020017f50756572636f657370696e00000000000000000000000000000000000000000081525081526020016040518060400160405280600481526020017f50756d610000000000000000000000000000000000000000000000000000000081525081526020016040518060400160405280600481526020017f52656e6f0000000000000000000000000000000000000000000000000000000081525081526020016040518060400160405280600981526020017f5365727069656e7465000000000000000000000000000000000000000000000081525081526020016040518060400160405280600581526020017f546170697200000000000000000000000000000000000000000000000000000081525081526020016040518060400160405280600581526020017f54656a6f6e00000000000000000000000000000000000000000000000000000081525081526020016040518060400160405280600481526020017f546f726f0000000000000000000000000000000000000000000000000000000081525081526020016040518060400160405280600481526020017f566163610000000000000000000000000000000000000000000000000000000081525081526020016040518060400160405280600881526020017f5a6f7272696c6c6f00000000000000000000000000000000000000000000000081525081526020016040518060400160405280600981526020017f4368696d70616e6365000000000000000000000000000000000000000000000081525081526020016040518060400160405280600581526020017f546967726500000000000000000000000000000000000000000000000000000081525081526020016040518060400160405280600681526020017f4a6972616661000000000000000000000000000000000000000000000000000081525081526020016040518060400160405280600581526020017f5a6f72726f00000000000000000000000000000000000000000000000000000081525081526020016040518060400160405280600b81526020017f52696e6f6365726f6e746500000000000000000000000000000000000000000081525081526020016040518060400160405280600581526020017f5261746f6e00000000000000000000000000000000000000000000000000000081525081526020016040518060400160405280600481526020017f546f706f0000000000000000000000000000000000000000000000000000000081525081526020016040518060400160405280600781526020017f4368696e6368650000000000000000000000000000000000000000000000000081525081526020016040518060400160405280600a81526020017f436f6368696e696c6c610000000000000000000000000000000000000000000081525081526020016040518060400160405280600981526020017f437563617261636861000000000000000000000000000000000000000000000081525081526020016040518060400160405280600681526020017f4772696c6c6f000000000000000000000000000000000000000000000000000081525081526020016040518060400160405280600681526020017f477573616e6f000000000000000000000000000000000000000000000000000081525081526020016040518060400160405280600581526020017f4c6172766100000000000000000000000000000000000000000000000000000081525081526020016040518060400160405280600881526020017f4c6962656c756c6100000000000000000000000000000000000000000000000081525081526020016040518060400160405280600781526020017f4c6f6d6272697a0000000000000000000000000000000000000000000000000081525081526020016040518060400160405280600a81526020017f4c75636965726e6167610000000000000000000000000000000000000000000081525081526020016040518060400160405280600581526020017f50696f6a6f00000000000000000000000000000000000000000000000000000081525081526020016040518060400160405280600781526020017f506f6c696c6c610000000000000000000000000000000000000000000000000081525081526020016040518060400160405280600581526020017f50756c676100000000000000000000000000000000000000000000000000000081525081526020016040518060400160405280600a81526020017f53616c74616d6f6e74650000000000000000000000000000000000000000000081525081526020016040518060400160405280600b81526020017f53616e6775696a75656c6100000000000000000000000000000000000000000081525081526020016040518060400160405280600681526020017f416c6d656a61000000000000000000000000000000000000000000000000000081525081526020016040518060400160405280600681526020017f4261626f7361000000000000000000000000000000000000000000000000000081525081526020016040518060400160405280600781526020017f43616c616d61720000000000000000000000000000000000000000000000000081525081526020016040518060400160405280600881526020017f43616e6772656a6f00000000000000000000000000000000000000000000000081525081526020016040518060400160405280600781526020017f43617261636f6c0000000000000000000000000000000000000000000000000081525081526020016040518060400160405280600781526020017f436967617272610000000000000000000000000000000000000000000000000081525081526020016040518060400160405280600581526020017f4572697a6f00000000000000000000000000000000000000000000000000000081525081526020016040518060400160405280600a81526020017f45736361726162616a6f0000000000000000000000000000000000000000000081525081526020016040518060400160405280600981526020017f476172726170617461000000000000000000000000000000000000000000000081525081526020016040518060400160405280600781526020017f476f72676f6a6f0000000000000000000000000000000000000000000000000081525081526020016040518060400160405280600781526020017f486f726d6967610000000000000000000000000000000000000000000000000081525081526020016040518060400160405280600881526020017f4c616e676f73746100000000000000000000000000000000000000000000000081525081526020016040518060400160405280600a81526020017f4c616e676f7374696e6f0000000000000000000000000000000000000000000081525081526020016040518060400160405280600881526020017f4d617269706f736100000000000000000000000000000000000000000000000081525081526020016040518060400160405280600881526020017f4d656a696c6c6f6e00000000000000000000000000000000000000000000000081525081526020016040518060400160405280600581526020017f4d6f73636100000000000000000000000000000000000000000000000000000081525081526020016040518060400160405280600881526020017f4d6f73717569746f00000000000000000000000000000000000000000000000081525081526020016040518060400160405280600581526020017f4f7374726100000000000000000000000000000000000000000000000000000081525081526020016040518060400160405280600581526020017f50756c706f00000000000000000000000000000000000000000000000000000081525081526020016040518060400160405280600681526020017f417669737061000000000000000000000000000000000000000000000000000081525081526020016040518060400160405280600681526020017f4d6564757361000000000000000000000000000000000000000000000000000081525081526020016040518060400160405280600781526020017f54696275726f6e0000000000000000000000000000000000000000000000000081525081526020016040518060400160405280600581526020017f4d6f72736100000000000000000000000000000000000000000000000000000081525081526020016040518060400160405280600c81526020017f4f726e69746f7272696e636f000000000000000000000000000000000000000081525081526020016040518060400160405280600a81526020017f4d616e746172726179610000000000000000000000000000000000000000000081525081526020016040518060400160405280600481526020017f52616e610000000000000000000000000000000000000000000000000000000081525081526020016040518060400160405280600481526020017f5361706f0000000000000000000000000000000000000000000000000000000081525081526020016040518060400160405280600a81526020017f53616c616d616e6472610000000000000000000000000000000000000000000081525081526020016040518060400160405280600981526020017f436c6172696e65726f000000000000000000000000000000000000000000000081525081526020016040518060400160405280600581526020017f4162656a6100000000000000000000000000000000000000000000000000000081525081526020016040518060400160405280600881526020017f4162656a6f72726f00000000000000000000000000000000000000000000000081525081526020016040518060400160405280600581526020017f547563616e000000000000000000000000000000000000000000000000000000815250815250600a90607462001b169291906200655a565b5060405180611f6001604052806040518060400160405280600781526020017f41626f6761646f0000000000000000000000000000000000000000000000000081525081526020016040518060400160405280601681526020017f41636164656d69636f41646d696e6973747261646f720000000000000000000081525081526020016040518060400160405280600e81526020017f41646d696e69737472617469766f00000000000000000000000000000000000081525081526020016040518060400160405280600881526020017f4167726f6e6f6d6f00000000000000000000000000000000000000000000000081525081526020016040518060400160405280600a81526020017f416c6572676f6c6f676f0000000000000000000000000000000000000000000081525081526020016040518060400160405280600981526020017f416c65726769737461000000000000000000000000000000000000000000000081525081526020016040518060400160405280600a81526020017f416c6572676f6c6f67610000000000000000000000000000000000000000000081525081526020016040518060400160405280600981526020017f416c65726769737461000000000000000000000000000000000000000000000081525081526020016040518060400160405280600a81526020017f416c6d6163656e65726f0000000000000000000000000000000000000000000081525081526020016040518060400160405280600b81526020017f416c6d6163656e6973746100000000000000000000000000000000000000000081525081526020016040518060400160405280600a81526020017f416c6d6163656e6572610000000000000000000000000000000000000000000081525081526020016040518060400160405280600b81526020017f416c6d6163656e6973746100000000000000000000000000000000000000000081525081526020016040518060400160405280600a81526020017f416e61746f6d697374610000000000000000000000000000000000000000000081525081526020016040518060400160405280600d81526020017f416e6573746573696f6c6f676f0000000000000000000000000000000000000081525081526020016040518060400160405280600b81526020017f416e65737465736973746100000000000000000000000000000000000000000081525081526020016040518060400160405280600d81526020017f416e6573746573696f6c6f67610000000000000000000000000000000000000081525081526020016040518060400160405280600b81526020017f416e65737465736973746100000000000000000000000000000000000000000081525081526020016040518060400160405280600b81526020017f416e746f6c6f676973746100000000000000000000000000000000000000000081525081526020016040518060400160405280600b81526020017f416e74726f706f6c6f676f00000000000000000000000000000000000000000081525081526020016040518060400160405280600881526020017f417261626973746100000000000000000000000000000000000000000000000081525081526020016040518060400160405280600981526020017f41726368697665726f000000000000000000000000000000000000000000000081525081526020016040518060400160405280600a81526020017f41727175656f6c6f676f0000000000000000000000000000000000000000000081525081526020016040518060400160405280600a81526020017f4172717569746563746f0000000000000000000000000000000000000000000081525081526020016040518060400160405280600681526020017f417365736f72000000000000000000000000000000000000000000000000000081525081526020016040518060400160405280600981526020017f4173697374656e7465000000000000000000000000000000000000000000000081525081526020016040518060400160405280600b81526020017f417374726f66697369636f00000000000000000000000000000000000000000081525081526020016040518060400160405280600981526020017f417374726f6c6f676f000000000000000000000000000000000000000000000081525081526020016040518060400160405280600981526020017f417374726f6e6f6d6f000000000000000000000000000000000000000000000081525081526020016040518060400160405280600681526020017f41746c657461000000000000000000000000000000000000000000000000000081525081526020016040518060400160405280600281526020017f415400000000000000000000000000000000000000000000000000000000000081525081526020016040518060400160405280600581526020017f4175746f7200000000000000000000000000000000000000000000000000000081525081526020016040518060400160405280600881526020017f417578696c69617200000000000000000000000000000000000000000000000081525081526020016040518060400160405280600981526020017f41766963756c746f72000000000000000000000000000000000000000000000081525081526020016040518060400160405280600c81526020017f426163746572696f6c6f676f000000000000000000000000000000000000000081525081526020016040518060400160405280600581526020017f426564656c00000000000000000000000000000000000000000000000000000081525081526020016040518060400160405280600b81526020017f4269626c696f677261666f00000000000000000000000000000000000000000081525081526020016040518060400160405280600d81526020017f4269626c696f7465636172696f0000000000000000000000000000000000000081525081526020016040518060400160405280600981526020017f42696f66697369636f000000000000000000000000000000000000000000000081525081526020016040518060400160405280600881526020017f42696f677261666f00000000000000000000000000000000000000000000000081525081526020016040518060400160405280600781526020017f42696f6c6f676f0000000000000000000000000000000000000000000000000081525081526020016040518060400160405280600a81526020017f42696f7175696d69636f0000000000000000000000000000000000000000000081525081526020016040518060400160405280600881526020017f426f74616e69636f00000000000000000000000000000000000000000000000081525081526020016040518060400160405280600b81526020017f43616e6365726f6c6f676f00000000000000000000000000000000000000000081525081526020016040518060400160405280600a81526020017f43617264696f6c6f676f0000000000000000000000000000000000000000000081525081526020016040518060400160405280600a81526020017f436172746f677261666f0000000000000000000000000000000000000000000081525081526020016040518060400160405280600981526020017f436173747261646f72000000000000000000000000000000000000000000000081525081526020016040518060400160405280600b81526020017f436174656472617469636f00000000000000000000000000000000000000000081525081526020016040518060400160405280600881526020017f436972756a616e6f00000000000000000000000000000000000000000000000081525081526020016040518060400160405280600881526020017f4369746f6c6f676f00000000000000000000000000000000000000000000000081525081526020016040518060400160405280600b81526020017f436c696d61746f6c6f676f00000000000000000000000000000000000000000081525081526020016040518060400160405280600a81526020017f436f6469726563746f720000000000000000000000000000000000000000000081525081526020016040518060400160405280600881526020017f436f6d6164726f6e00000000000000000000000000000000000000000000000081525081526020016040518060400160405280600981526020017f436f6e73656a65726f000000000000000000000000000000000000000000000081525081526020016040518060400160405280600881526020017f436f6e7365726a6500000000000000000000000000000000000000000000000081525081526020016040518060400160405280600b81526020017f436f6e7365727661646f7200000000000000000000000000000000000000000081525081526020016040518060400160405280600b81526020017f436f6f7264696e61646f7200000000000000000000000000000000000000000081525081526020016040518060400160405280600a81526020017f436f736d6f677261666f0000000000000000000000000000000000000000000081525081526020016040518060400160405280600981526020017f436f736d6f6c6f676f000000000000000000000000000000000000000000000081525081526020016040518060400160405280600c81526020017f4372696d696e616c69737461000000000000000000000000000000000000000081525081526020016040518060400160405280600981526020017f43726f6e6f6c6f676f000000000000000000000000000000000000000000000081525081526020016040518060400160405280600681526020017f446563616e6f000000000000000000000000000000000000000000000000000081525081526020016040518060400160405280600981526020017f4465636f7261646f72000000000000000000000000000000000000000000000081525081526020016040518060400160405280600881526020017f446566656e736f7200000000000000000000000000000000000000000000000081525081526020016040518060400160405280600881526020017f44656c656761646f00000000000000000000000000000000000000000000000081525081526020016040518060400160405280600a81526020017f44656c696e65616e74650000000000000000000000000000000000000000000081525081526020016040518060400160405280600981526020017f44656d6f677261666f000000000000000000000000000000000000000000000081525081526020016040518060400160405280600881526020017f44656e746973746100000000000000000000000000000000000000000000000081525081526020016040518060400160405280600b81526020017f4465726d61746f6c6f676f00000000000000000000000000000000000000000081525081526020016040518060400160405280600981526020017f446962756a616e7465000000000000000000000000000000000000000000000081525081526020016040518060400160405280600981526020017f44697265637469766f000000000000000000000000000000000000000000000081525081526020016040518060400160405280600881526020017f4469726563746f7200000000000000000000000000000000000000000000000081525081526020016040518060400160405280600981526020017f4469726967656e7465000000000000000000000000000000000000000000000081525081526020016040518060400160405280600681526020017f446f63746f72000000000000000000000000000000000000000000000000000081525081526020016040518060400160405280600e81526020017f446f63756d656e74616c6973746100000000000000000000000000000000000081525081526020016040518060400160405280600781526020017f45636f6c6f676f0000000000000000000000000000000000000000000000000081525081526020016040518060400160405280600a81526020017f45636f6e6f6d697374610000000000000000000000000000000000000000000081525081526020016040518060400160405280600881526020017f4564756361646f7200000000000000000000000000000000000000000000000081525081526020016040518060400160405280600a81526020017f45676970746f6c6f676f0000000000000000000000000000000000000000000081525081526020016040518060400160405280600d81526020017f456e646f6372696e6f6c6f676f0000000000000000000000000000000000000081525081526020016040518060400160405280600981526020017f456e6665726d65726f000000000000000000000000000000000000000000000081525081526020016040518060400160405280600781526020017f456e6f6c6f676f0000000000000000000000000000000000000000000000000081525081526020016040518060400160405280600a81526020017f456e746f6d6f6c6f676f0000000000000000000000000000000000000000000081525081526020016040518060400160405280600c81526020017f45706964656d696f6c6f676f000000000000000000000000000000000000000081525081526020016040518060400160405280600c81526020017f457370656369616c69737461000000000000000000000000000000000000000081525081526020016040518060400160405280600b81526020017f457370656c656f6c6f676f00000000000000000000000000000000000000000081525081526020016040518060400160405280600981526020017f457374616469737461000000000000000000000000000000000000000000000081525081526020016040518060400160405280600b81526020017f457374616469737469636f00000000000000000000000000000000000000000081525081526020016040518060400160405280600981526020017f4574696d6f6c6f676f000000000000000000000000000000000000000000000081525081526020016040518060400160405280600c81526020017f4574696d6f6c6f6769737461000000000000000000000000000000000000000081525081526020016040518060400160405280600981526020017f45746e6f677261666f000000000000000000000000000000000000000000000081525081526020016040518060400160405280600881526020017f45746e6f6c6f676f00000000000000000000000000000000000000000000000081525081526020016040518060400160405280600781526020017f45746f6c6f676f0000000000000000000000000000000000000000000000000081525081526020016040518060400160405280600a81526020017f4578616d696e61646f720000000000000000000000000000000000000000000081525081526020016040518060400160405280600b81526020017f466163756c74617469766f00000000000000000000000000000000000000000081525081526020016040518060400160405280600c81526020017f4661726d616365757469636f000000000000000000000000000000000000000081525081526020016040518060400160405280600b81526020017f4661726d61636f6c6f676f00000000000000000000000000000000000000000081525081526020016040518060400160405280600881526020017f46696c6f736f666f00000000000000000000000000000000000000000000000081525081526020016040518060400160405280600681526020017f46697363616c000000000000000000000000000000000000000000000000000081525081526020016040518060400160405280600681526020017f46697369636f000000000000000000000000000000000000000000000000000081525081526020016040518060400160405280600981526020017f466973696f6c6f676f000000000000000000000000000000000000000000000081525081526020016040518060400160405280600e81526020017f466973696f74657261706575746100000000000000000000000000000000000081525081526020016040518060400160405280600981526020017f466f6e657469737461000000000000000000000000000000000000000000000081525081526020016040518060400160405280600881526020017f466f6e696174726100000000000000000000000000000000000000000000000081525081526020016040518060400160405280600881526020017f466f6e6f6c6f676f00000000000000000000000000000000000000000000000081525081526020016040518060400160405280600781526020017f466f72656e73650000000000000000000000000000000000000000000000000081525081526020016040518060400160405280600981526020017f466f746f677261666f000000000000000000000000000000000000000000000081525081526020016040518060400160405280600b81526020017f46756e63696f6e6172696f00000000000000000000000000000000000000000081525081526020016040518060400160405280600881526020017f47656d6f6c6f676f00000000000000000000000000000000000000000000000081525081526020016040518060400160405280600981526020017f47656e657469737461000000000000000000000000000000000000000000000081525081526020016040518060400160405280600b81526020017f47656f626f74616e69636100000000000000000000000000000000000000000081525081526020016040518060400160405280600881526020017f47656f646573746100000000000000000000000000000000000000000000000081525081526020016040518060400160405280600981526020017f47656f66697369636f000000000000000000000000000000000000000000000081525081526020016040518060400160405280600881526020017f47656f677261666f00000000000000000000000000000000000000000000000081525081526020016040518060400160405280600781526020017f47656f6c6f676f0000000000000000000000000000000000000000000000000081525081526020016040518060400160405280600a81526020017f47656f6d616e7469636f0000000000000000000000000000000000000000000081525081526020016040518060400160405280600881526020017f47656f6d6574726100000000000000000000000000000000000000000000000081525081526020016040518060400160405280600a81526020017f47656f7175696d6963610000000000000000000000000000000000000000000081525081526020016040518060400160405280600781526020017f476572656e74650000000000000000000000000000000000000000000000000081525081526020016040518060400160405280600881526020017f476572696174726100000000000000000000000000000000000000000000000081525081526020016040518060400160405280600b81526020017f4765726f6e746f6c6f676f00000000000000000000000000000000000000000081525081526020016040518060400160405280600981526020017f4772616d617469636f000000000000000000000000000000000000000000000081525081526020016040518060400160405280600a81526020017f48656d61746f6c6f676f0000000000000000000000000000000000000000000081525081526020016040518060400160405280600a81526020017f48657061746f6c6f676f0000000000000000000000000000000000000000000081525081526020016040518060400160405280600c81526020017f486964726f67656f6c6f676f000000000000000000000000000000000000000081525081526020016040518060400160405280600a81526020017f486964726f677261666f0000000000000000000000000000000000000000000081525081526020016040518060400160405280600981526020017f486964726f6c6f676f000000000000000000000000000000000000000000000081525081526020016040518060400160405280600a81526020017f48696769656e697374610000000000000000000000000000000000000000000081525081526020016040518060400160405280600a81526020017f48697370616e697374610000000000000000000000000000000000000000000081525081526020016040518060400160405280600b81526020017f486973746f726961646f7200000000000000000000000000000000000000000081525081526020016040518060400160405280600981526020017f486f6d656f70617461000000000000000000000000000000000000000000000081525081526020016040518060400160405280600b81526020017f496e666f726d617469636f00000000000000000000000000000000000000000081525081526020016040518060400160405280600a81526020017f496e6d756e6f6c6f676f0000000000000000000000000000000000000000000081525081526020016040518060400160405280600981526020017f496e73706563746f72000000000000000000000000000000000000000000000081525081526020016040518060400160405280600881526020017f496e746572696e6f00000000000000000000000000000000000000000000000081525081526020016040518060400160405280600b81526020017f496e74657276656e746f7200000000000000000000000000000000000000000081525081526020016040518060400160405280600c81526020017f496e76657374696761646f72000000000000000000000000000000000000000081525081526020016040518060400160405280600981526020017f4a617264696e65726f000000000000000000000000000000000000000000000081525081526020016040518060400160405280600481526020017f4a6566650000000000000000000000000000000000000000000000000000000081525081526020016040518060400160405280600481526020017f4a75657a0000000000000000000000000000000000000000000000000000000081525081526020016040518060400160405280600681526020017f4c6563746f72000000000000000000000000000000000000000000000000000081525081526020016040518060400160405280600b81526020017f4c657869636f677261666f00000000000000000000000000000000000000000081525081526020016040518060400160405280600a81526020017f4c657869636f6c6f676f0000000000000000000000000000000000000000000081525081526020016040518060400160405280600a81526020017f4c6963656e636961646f0000000000000000000000000000000000000000000081525081526020016040518060400160405280600781526020017f4d61657374726f0000000000000000000000000000000000000000000000000081525081526020016040518060400160405280600a81526020017f4d6174656d617469636f0000000000000000000000000000000000000000000081525081526020016040518060400160405280600681526020017f4d656469636f000000000000000000000000000000000000000000000000000081525081526020016040518060400160405280600b81526020017f4d6574656f726f6c6f676f00000000000000000000000000000000000000000081525081526020016040518060400160405280600881526020017f4d69636f6c6f676f00000000000000000000000000000000000000000000000081525081526020016040518060400160405280600e81526020017f4d6963726f62696f6c6f6769636f00000000000000000000000000000000000081525081526020016040518060400160405280600d81526020017f4d6963726f636972756a616e6f0000000000000000000000000000000000000081525081526020016040518060400160405280600981526020017f4d696d6f677261666f000000000000000000000000000000000000000000000081525081526020016040518060400160405280600d81526020017f4d696e6572616c6f67697374610000000000000000000000000000000000000081525081526020016040518060400160405280600781526020017f4d6f6e69746f720000000000000000000000000000000000000000000000000081525081526020016040518060400160405280600a81526020017f4e617475726f706174610000000000000000000000000000000000000000000081525081526020016040518060400160405280600981526020017f4e6566726f6c6f676f000000000000000000000000000000000000000000000081525081526020016040518060400160405280600981526020017f4e65756d6f6c6f676f000000000000000000000000000000000000000000000081525081526020016040518060400160405280600f81526020017f4e6575726f616e61746f6d69737461000000000000000000000000000000000081525081526020016040518060400160405280600c81526020017f4e6575726f62696f6c6f676f000000000000000000000000000000000000000081525081526020016040518060400160405280600d81526020017f4e6575726f636972756a616e6f0000000000000000000000000000000000000081525081526020016040518060400160405280600f81526020017f4e6575726f656d6272696f6c6f676f000000000000000000000000000000000081525081526020016040518060400160405280600e81526020017f4e6575726f666973696f6c6f676f00000000000000000000000000000000000081525081526020016040518060400160405280600981526020017f4e6575726f6c6f676f000000000000000000000000000000000000000000000081525081526020016040518060400160405280600981526020017f4e7574726f6c6f676f000000000000000000000000000000000000000000000081525081526020016040518060400160405280600b81526020017f4f6365616e6f677261666f00000000000000000000000000000000000000000081525081526020016040518060400160405280600a81526020017f4f646f6e746f6c6f676f0000000000000000000000000000000000000000000081525081526020016040518060400160405280600781526020017f4f66696369616c0000000000000000000000000000000000000000000000000081525081526020016040518060400160405280600a81526020017f4f666963696e697374610000000000000000000000000000000000000000000081525081526020016040518060400160405280600b81526020017f4f6674616c6d6f6c6f676f00000000000000000000000000000000000000000081525081526020016040518060400160405280600881526020017f4f6e636f6c6f676f00000000000000000000000000000000000000000000000081525081526020016040518060400160405280600681526020017f4f707469636f000000000000000000000000000000000000000000000000000081525081526020016040518060400160405280600c81526020017f4f70746f6d65747269737461000000000000000000000000000000000000000081525081526020016040518060400160405280600981526020017f4f7264656e616e7a61000000000000000000000000000000000000000000000081525081526020016040518060400160405280600a81526020017f4f7269656e7461646f720000000000000000000000000000000000000000000081525081526020016040518060400160405280600a81526020017f4f726e69746f6c6f676f0000000000000000000000000000000000000000000081525081526020016040518060400160405280600a81526020017f4f72746f70656469636f0000000000000000000000000000000000000000000081525081526020016040518060400160405280600b81526020017f4f72746f7065646973746100000000000000000000000000000000000000000081525081526020016040518060400160405280600981526020017f4f7374656f6c6f676f000000000000000000000000000000000000000000000081525081526020016040518060400160405280600981526020017f4f7374656f70617461000000000000000000000000000000000000000000000081525081526020016040518060400160405280601381526020017f4f746f7272696e6f6c6172696e676f6c6f676f0000000000000000000000000081525081526020016040518060400160405280600c81526020017f50616c656f62696f6c6f676f000000000000000000000000000000000000000081525081526020016040518060400160405280600d81526020017f50616c656f626f74616e69636f0000000000000000000000000000000000000081525081526020016040518060400160405280600a81526020017f50616c656f677261666f0000000000000000000000000000000000000000000081525081526020016040518060400160405280600981526020017f50616c656f6c6f676f000000000000000000000000000000000000000000000081525081526020016040518060400160405280600c81526020017f50616c656f6e746f6c6f676f000000000000000000000000000000000000000081525081526020016040518060400160405280600881526020017f5061746f6c6f676f00000000000000000000000000000000000000000000000081525081526020016040518060400160405280600881526020017f50656461676f676f00000000000000000000000000000000000000000000000081525081526020016040518060400160405280600881526020017f506564696375726f00000000000000000000000000000000000000000000000081525081526020016040518060400160405280600a81526020017f506572696f64697374610000000000000000000000000000000000000000000081525081526020016040518060400160405280600981526020017f496e67656e6965726f000000000000000000000000000000000000000000000081525081526020016040518060400160405280600b81526020017f506973636963756c746f7200000000000000000000000000000000000000000081525081526020016040518060400160405280600881526020017f506f646f6c6f676f00000000000000000000000000000000000000000000000081525081526020016040518060400160405280600781526020017f506f727465726f0000000000000000000000000000000000000000000000000081525081526020016040518060400160405280600e81526020017f507265686973746f726961646f7200000000000000000000000000000000000081525081526020016040518060400160405280600a81526020017f507265736964656e74650000000000000000000000000000000000000000000081525081526020016040518060400160405280600a81526020017f50726f63746f6c6f676f0000000000000000000000000000000000000000000081525081526020016040518060400160405280600881526020017f50726f6665736f7200000000000000000000000000000000000000000000000081525081526020016040518060400160405280600b81526020017f50726f6772616d61646f7200000000000000000000000000000000000000000081525081526020016040518060400160405280600981526020017f50726f74657369636f000000000000000000000000000000000000000000000081525081526020016040518060400160405280600981526020017f50726f766565646f72000000000000000000000000000000000000000000000081525081526020016040518060400160405280600d81526020017f507369636f616e616c697374610000000000000000000000000000000000000081525081526020016040518060400160405280600981526020017f507369636f6c6f676f000000000000000000000000000000000000000000000081525081526020016040518060400160405280600b81526020017f507369636f66697369636f00000000000000000000000000000000000000000081525081526020016040518060400160405280600d81526020017f507369636f70656461676f676f0000000000000000000000000000000000000081525081526020016040518060400160405280600e81526020017f507369636f74657261706575746100000000000000000000000000000000000081525081526020016040518060400160405280600a81526020017f507369717569617472610000000000000000000000000000000000000000000081525081526020016040518060400160405280600a81526020017f5075626c6963697374610000000000000000000000000000000000000000000081525081526020016040518060400160405280600c81526020017f5075626c696369746172696f000000000000000000000000000000000000000081525081526020016040518060400160405280600b81526020017f507565726963756c746f7200000000000000000000000000000000000000000081525081526020016040518060400160405280600781526020017f5175696d69636f0000000000000000000000000000000000000000000000000081525081526020016040518060400160405280600d81526020017f517569726f707261637469636f0000000000000000000000000000000000000081525081526020016040518060400160405280600e81526020017f526164696f617374726f6e6f6d6f00000000000000000000000000000000000081525081526020016040518060400160405280600c81526020017f526164696f666f6e69737461000000000000000000000000000000000000000081525081526020016040518060400160405280600981526020017f526164696f6c6f676f000000000000000000000000000000000000000000000081525081526020016040518060400160405280600c81526020017f526164696f7465636e69636f000000000000000000000000000000000000000081525081526020016040518060400160405280601081526020017f526164696f74656c65666f6e697374610000000000000000000000000000000081525081526020016040518060400160405280601181526020017f526164696f74656c65677261666973746100000000000000000000000000000081525081526020016040518060400160405280600e81526020017f526164696f74657261706575746100000000000000000000000000000000000081525081526020016040518060400160405280600681526020017f526563746f72000000000000000000000000000000000000000000000000000081525081526020016040518060400160405280600981526020017f53616e69746172696f000000000000000000000000000000000000000000000081525081526020016040518060400160405280600a81526020017f5365637265746172696f0000000000000000000000000000000000000000000081525081526020016040518060400160405280600881526020017f5365786f6c6f676f00000000000000000000000000000000000000000000000081525081526020016040518060400160405280600981526020017f5369736d6f6c6f676f000000000000000000000000000000000000000000000081525081526020016040518060400160405280600981526020017f536f63696f6c6f676f000000000000000000000000000000000000000000000081525081526020016040518060400160405280600b81526020017f53756264656c656761646f00000000000000000000000000000000000000000081525081526020016040518060400160405280600b81526020017f5375626469726563746f7200000000000000000000000000000000000000000081525081526020016040518060400160405280600d81526020017f5375627365637265746172696f0000000000000000000000000000000000000081525081526020016040518060400160405280600781526020017f5465636e69636f0000000000000000000000000000000000000000000000000081525081526020016040518060400160405280600b81526020017f54656c65666f6e6973746100000000000000000000000000000000000000000081525081526020016040518060400160405280600781526020017f54656f6c6f676f0000000000000000000000000000000000000000000000000081525081526020016040518060400160405280600981526020017f546572617065757461000000000000000000000000000000000000000000000081525081526020016040518060400160405280600e81526020017f546f636f67696e65636f6c6f676f00000000000000000000000000000000000081525081526020016040518060400160405280600881526020017f546f636f6c6f676f00000000000000000000000000000000000000000000000081525081526020016040518060400160405280600a81526020017f546f7869636f6c6f676f0000000000000000000000000000000000000000000081525081526020016040518060400160405280600981526020017f547261647563746f72000000000000000000000000000000000000000000000081525081526020016040518060400160405280600c81526020017f5472616e7363726970746f72000000000000000000000000000000000000000081525081526020016040518060400160405280600c81526020017f547261756d61746f6c6f676f000000000000000000000000000000000000000081525081526020016040518060400160405280600581526020017f5475746f7200000000000000000000000000000000000000000000000000000081525081526020016040518060400160405280600781526020017f55726f6c6f676f0000000000000000000000000000000000000000000000000081525081526020016040518060400160405280600b81526020017f5665746572696e6172696f00000000000000000000000000000000000000000081525081526020016040518060400160405280600a81526020017f56696365646563616e6f0000000000000000000000000000000000000000000081525081526020016040518060400160405280600c81526020017f566963656469726563746f72000000000000000000000000000000000000000081525081526020016040518060400160405280600b81526020017f56696365676572656e746500000000000000000000000000000000000000000081525081526020016040518060400160405280600e81526020017f56696365707265736964656e746500000000000000000000000000000000000081525081526020016040518060400160405280600b81526020017f5669636572726563746f7200000000000000000000000000000000000000000081525081526020016040518060400160405280600e81526020017f566963657365637265746172696f00000000000000000000000000000000000081525081526020016040518060400160405280600881526020017f5669726f6c6f676f00000000000000000000000000000000000000000000000081525081526020016040518060400160405280600a81526020017f5669746963756c746f720000000000000000000000000000000000000000000081525081526020016040518060400160405280600b81526020017f56756c63616e6f6c6f676f00000000000000000000000000000000000000000081525081526020016040518060400160405280600981526020017f58696c6f677261666f000000000000000000000000000000000000000000000081525081526020016040518060400160405280600781526020017f5a6f6f6c6f676f0000000000000000000000000000000000000000000000000081525081526020016040518060400160405280600a81526020017f5a6f6f7465636e69636f00000000000000000000000000000000000000000000815250815250600b9060fb6200550c929190620065c1565b506040518061078001604052806040518060400160405280600781526020017f4a7576656e696c0000000000000000000000000000000000000000000000000081525081526020016040518060400160405280600581526020017f44756c636500000000000000000000000000000000000000000000000000000081525081526020016040518060400160405280600981526020017f436f6d756e69737461000000000000000000000000000000000000000000000081525081526020016040518060400160405280600681526020017f416d6172676f000000000000000000000000000000000000000000000000000081525081526020016040518060400160405280600881526020017f44696d696e75746f00000000000000000000000000000000000000000000000081525081526020016040518060400160405280600881526020017f496e66616e74696c00000000000000000000000000000000000000000000000081525081526020016040518060400160405280600481526020017f5365636f0000000000000000000000000000000000000000000000000000000081525081526020016040518060400160405280600b81526020017f4361706974616c6973746100000000000000000000000000000000000000000081525081526020016040518060400160405280600481526020017f4361726f0000000000000000000000000000000000000000000000000000000081525081526020016040518060400160405280600c81526020017f52656e6163656e7469737461000000000000000000000000000000000000000081525081526020016040518060400160405280600b81526020017f496e74656c6967656e746500000000000000000000000000000000000000000081525081526020016040518060400160405280600b81526020017f466f746f6772616669636f00000000000000000000000000000000000000000081525081526020016040518060400160405280600581526020017f527562696f00000000000000000000000000000000000000000000000000000081525081526020016040518060400160405280600981526020017f44697665727469646f000000000000000000000000000000000000000000000081525081526020016040518060400160405280600681526020017f467565727465000000000000000000000000000000000000000000000000000081525081526020016040518060400160405280600481526020017f4669656c0000000000000000000000000000000000000000000000000000000081525081526020016040518060400160405280600581526020017f446562696c00000000000000000000000000000000000000000000000000000081525081526020016040518060400160405280600981526020017f416772616461626c65000000000000000000000000000000000000000000000081525081526020016040518060400160405280600881526020017f466c657869626c6500000000000000000000000000000000000000000000000081525081526020016040518060400160405280600581526020017f537563696f00000000000000000000000000000000000000000000000000000081525081526020016040518060400160405280600681526020017f4c696d70696f000000000000000000000000000000000000000000000000000081525081526020016040518060400160405280600681526020017f416d61626c65000000000000000000000000000000000000000000000000000081525081526020016040518060400160405280600781526020017f4d6f6465726e6f0000000000000000000000000000000000000000000000000081525081526020016040518060400160405280600681526020017f41737065726f000000000000000000000000000000000000000000000000000081525081526020016040518060400160405280600881526020017f56616c69656e746500000000000000000000000000000000000000000000000081525081526020016040518060400160405280600581526020017f537561766500000000000000000000000000000000000000000000000000000081525081526020016040518060400160405280600781526020017f4865726d6f736f0000000000000000000000000000000000000000000000000081525081526020016040518060400160405280600681526020017f5275676f736f000000000000000000000000000000000000000000000000000081525081526020016040518060400160405280600981526020017f4573706f6e6a6f736f000000000000000000000000000000000000000000000081525081526020016040518060400160405280600581526020017f437275656c00000000000000000000000000000000000000000000000000000081525081526020016040518060400160405280600581526020017f466c6f6a6f00000000000000000000000000000000000000000000000000000081525081526020016040518060400160405280600881526020017f506572666563746f00000000000000000000000000000000000000000000000081525081526020016040518060400160405280600581526020017f43756c746f00000000000000000000000000000000000000000000000000000081525081526020016040518060400160405280600b81526020017f44656d6f6372617469636f00000000000000000000000000000000000000000081525081526020016040518060400160405280600981526020017f41727469737469636f000000000000000000000000000000000000000000000081525081526020016040518060400160405280600a81526020017f496e646976696475616c0000000000000000000000000000000000000000000081525081526020016040518060400160405280600981526020017f52656c6967696f736f000000000000000000000000000000000000000000000081525081526020016040518060400160405280600881526020017f526567696f6e616c00000000000000000000000000000000000000000000000081525081526020016040518060400160405280600981526020017f45636f6e6f6d69636f000000000000000000000000000000000000000000000081525081526020016040518060400160405280600981526020017f486973746f7269636f000000000000000000000000000000000000000000000081525081526020016040518060400160405280600981526020017f4d696c6974616e7465000000000000000000000000000000000000000000000081525081526020016040518060400160405280600881526020017f46616d696c69617200000000000000000000000000000000000000000000000081525081526020016040518060400160405280600981526020017f4d657263616e74696c000000000000000000000000000000000000000000000081525081526020016040518060400160405280600c81526020017f56616e677561726469737461000000000000000000000000000000000000000081525081526020016040518060400160405280600a81526020017f5175697275726769636f0000000000000000000000000000000000000000000081525081526020016040518060400160405280600881526020017f506f6465726f736f00000000000000000000000000000000000000000000000081525081526020016040518060400160405280600881526020017f4d6163686973746100000000000000000000000000000000000000000000000081525081526020016040518060400160405280600981526020017f46656d696e69737461000000000000000000000000000000000000000000000081525081526020016040518060400160405280600481526020017f4174656f0000000000000000000000000000000000000000000000000000000081525081526020016040518060400160405280600781526020017f427564697374610000000000000000000000000000000000000000000000000081525081526020016040518060400160405280600881526020017f52656e656761646f00000000000000000000000000000000000000000000000081525081526020016040518060400160405280600881526020017f43616c656e746f6e00000000000000000000000000000000000000000000000081525081526020016040518060400160405280600881526020017f547261766573746900000000000000000000000000000000000000000000000081525081526020016040518060400160405280600781526020017f536578697374610000000000000000000000000000000000000000000000000081525081526020016040518060400160405280600781526020017f4d6f72626f736f0000000000000000000000000000000000000000000000000081525081526020016040518060400160405280600581526020017f4d616d6f6e00000000000000000000000000000000000000000000000000000081525081526020016040518060400160405280600581526020017f547572726f00000000000000000000000000000000000000000000000000000081525081526020016040518060400160405280600781526020017f43616e656c6f6e0000000000000000000000000000000000000000000000000081525081526020016040518060400160405280600881526020017f416d72616761646f00000000000000000000000000000000000000000000000081525081526020016040518060400160405280600881526020017f417472657669646f000000000000000000000000000000000000000000000000815250815250600c90603c620062fd92919062006628565b503480156200630b57600080fd5b506040518060400160405280600981526020017f5371756172654e465400000000000000000000000000000000000000000000008152506040518060400160405280600681526020017f5351554152450000000000000000000000000000000000000000000000000000815250816000908051906020019062006390929190620064c9565b508060019080519060200190620063a9929190620064c9565b505050620063f76040518060400160405280601e81526020017f54686973206973206d79204e465420636f6e74726163742e20576f6168210000815250620063fd60201b620011541760201c565b62006849565b6200649d816040516024016200641491906200675d565b6040516020818303038152906040527f41304fac000000000000000000000000000000000000000000000000000000007bffffffffffffffffffffffffffffffffffffffffffffffffffffffff19166020820180517bffffffffffffffffffffffffffffffffffffffffffffffffffffffff8381831617835250505050620064a060201b60201c565b50565b60008151905060006a636f6e736f6c652e6c6f679050602083016000808483855afa5050505050565b828054620064d790620067d3565b90600052602060002090601f016020900481019282620064fb576000855562006547565b82601f106200651657805160ff191683800117855562006547565b8280016001018555821562006547579182015b828111156200654657825182559160200191906001019062006529565b5b5090506200655691906200668f565b5090565b828054828255906000526020600020908101928215620065ae579160200282015b82811115620065ad5782518290805190602001906200659c929190620064c9565b50916020019190600101906200657b565b5b509050620065bd9190620066ae565b5090565b82805482825590600052602060002090810192821562006615579160200282015b828111156200661457825182908051906020019062006603929190620064c9565b5091602001919060010190620065e2565b5b509050620066249190620066ae565b5090565b8280548282559060005260206000209081019282156200667c579160200282015b828111156200667b5782518290805190602001906200666a929190620064c9565b509160200191906001019062006649565b5b5090506200668b9190620066ae565b5090565b5b80821115620066aa57600081600090555060010162006690565b5090565b5b80821115620066d25760008181620066c89190620066d6565b50600101620066af565b5090565b508054620066e490620067d3565b6000825580601f10620066f8575062006719565b601f0160209004906000526020600020908101906200671891906200668f565b5b50565b6000620067298262006781565b6200673581856200678c565b9350620067478185602086016200679d565b620067528162006838565b840191505092915050565b600060208201905081810360008301526200677981846200671c565b905092915050565b600081519050919050565b600082825260208201905092915050565b60005b83811015620067bd578082015181840152602081019050620067a0565b83811115620067cd576000848401525b50505050565b60006002820490506001821680620067ec57607f821691505b6020821081141562006803576200680262006809565b5b50919050565b7f4e487b7100000000000000000000000000000000000000000000000000000000600052602260045260246000fd5b6000601f19601f8301169050919050565b613ada80620068596000396000f3fe608060405234801561001057600080fd5b506004361061012c5760003560e01c806395d89b41116100ad578063c575757a11610071578063c575757a14610355578063c87b56dd14610385578063d5abeb01146103b5578063de9d132f146103d3578063e985e9c5146103dd5761012c565b806395d89b41146102b1578063a22cb465146102cf578063b187301f146102eb578063b71eafc81461031b578063b88d4fde146103395761012c565b80632de38d68116100f45780632de38d68146101e757806330bdb3511461021757806342842e0e146102355780636352211e1461025157806370a08231146102815761012c565b806301ffc9a71461013157806306fdde0314610161578063081812fc1461017f578063095ea7b3146101af57806323b872dd146101cb575b600080fd5b61014b60048036038101906101469190612554565b61040d565b6040516101589190612c81565b60405180910390f35b6101696104ef565b6040516101769190612c9c565b60405180910390f35b610199600480360381019061019491906125a6565b610581565b6040516101a69190612bf1565b60405180910390f35b6101c960048036038101906101c49190612518565b610606565b005b6101e560048036038101906101e09190612412565b61071e565b005b61020160048036038101906101fc91906125a6565b61077e565b60405161020e9190612c9c565b60405180910390f35b61021f61089c565b60405161022c9190612f1c565b60405180910390f35b61024f600480360381019061024a9190612412565b6108a6565b005b61026b600480360381019061026691906125a6565b6108c6565b6040516102789190612bf1565b60405180910390f35b61029b600480360381019061029691906123ad565b610978565b6040516102a89190612f1c565b60405180910390f35b6102b9610a30565b6040516102c69190612c9c565b60405180910390f35b6102e960048036038101906102e491906124dc565b610ac2565b005b610305600480360381019061030091906125a6565b610ad8565b6040516103129190612c9c565b60405180910390f35b610323610bf6565b6040516103309190612f1c565b60405180910390f35b610353600480360381019061034e9190612461565b610c07565b005b61036f600480360381019061036a91906125a6565b610c69565b60405161037c9190612c9c565b60405180910390f35b61039f600480360381019061039a91906125a6565b610d87565b6040516103ac9190612c9c565b60405180910390f35b6103bd610ed9565b6040516103ca9190612f1c565b60405180910390f35b6103db610edf565b005b6103f760048036038101906103f291906123d6565b6110c0565b6040516104049190612c81565b60405180910390f35b60007f80ac58cd000000000000000000000000000000000000000000000000000000007bffffffffffffffffffffffffffffffffffffffffffffffffffffffff1916827bffffffffffffffffffffffffffffffffffffffffffffffffffffffff191614806104d857507f5b5e139f000000000000000000000000000000000000000000000000000000007bffffffffffffffffffffffffffffffffffffffffffffffffffffffff1916827bffffffffffffffffffffffffffffffffffffffffffffffffffffffff1916145b806104e857506104e7826111ed565b5b9050919050565b6060600080546104fe906131d9565b80601f016020809104026020016040519081016040528092919081815260200182805461052a906131d9565b80156105775780601f1061054c57610100808354040283529160200191610577565b820191906000526020600020905b81548152906001019060200180831161055a57829003601f168201915b5050505050905090565b600061058c82611257565b6105cb576040517f08c379a00000000000000000000000000000000000000000000000000000000081526004016105c290612e5c565b60405180910390fd5b6004600083815260200190815260200160002060009054906101000a900473ffffffffffffffffffffffffffffffffffffffff169050919050565b6000610611826108c6565b90508073ffffffffffffffffffffffffffffffffffffffff168373ffffffffffffffffffffffffffffffffffffffff161415610682576040517f08c379a000000000000000000000000000000000000000000000000000000000815260040161067990612ebc565b60405180910390fd5b8073ffffffffffffffffffffffffffffffffffffffff166106a16112c3565b73ffffffffffffffffffffffffffffffffffffffff1614806106d057506106cf816106ca6112c3565b6110c0565b5b61070f576040517f08c379a000000000000000000000000000000000000000000000000000000000815260040161070690612d9c565b60405180910390fd5b61071983836112cb565b505050565b61072f6107296112c3565b82611384565b61076e576040517f08c379a000000000000000000000000000000000000000000000000000000000815260040161076590612edc565b60405180910390fd5b610779838383611462565b505050565b606060006107b261078e846116be565b60405160200161079e9190612bad565b60405160208183030381529060405261186b565b9050600a80549050816107c59190613285565b9050600a8181548110610801577f4e487b7100000000000000000000000000000000000000000000000000000000600052603260045260246000fd5b906000526020600020018054610816906131d9565b80601f0160208091040260200160405190810160405280929190818152602001828054610842906131d9565b801561088f5780601f106108645761010080835404028352916020019161088f565b820191906000526020600020905b81548152906001019060200180831161087257829003601f168201915b5050505050915050919050565b6000600854905090565b6108c183838360405180602001604052806000815250610c07565b505050565b6000806002600084815260200190815260200160002060009054906101000a900473ffffffffffffffffffffffffffffffffffffffff169050600073ffffffffffffffffffffffffffffffffffffffff168173ffffffffffffffffffffffffffffffffffffffff16141561096f576040517f08c379a000000000000000000000000000000000000000000000000000000000815260040161096690612ddc565b60405180910390fd5b80915050919050565b60008073ffffffffffffffffffffffffffffffffffffffff168273ffffffffffffffffffffffffffffffffffffffff1614156109e9576040517f08c379a00000000000000000000000000000000000000000000000000000000081526004016109e090612dbc565b60405180910390fd5b600360008373ffffffffffffffffffffffffffffffffffffffff1673ffffffffffffffffffffffffffffffffffffffff168152602001908152602001600020549050919050565b606060018054610a3f906131d9565b80601f0160208091040260200160405190810160405280929190818152602001828054610a6b906131d9565b8015610ab85780601f10610a8d57610100808354040283529160200191610ab8565b820191906000526020600020905b815481529060010190602001808311610a9b57829003601f168201915b5050505050905090565b610ad4610acd6112c3565b838361189e565b5050565b60606000610b0c610ae8846116be565b604051602001610af89190612b46565b60405160208183030381529060405261186b565b9050600b8054905081610b1f9190613285565b9050600b8181548110610b5b577f4e487b7100000000000000000000000000000000000000000000000000000000600052603260045260246000fd5b906000526020600020018054610b70906131d9565b80601f0160208091040260200160405190810160405280929190818152602001828054610b9c906131d9565b8015610be95780601f10610bbe57610100808354040283529160200191610be9565b820191906000526020600020905b815481529060010190602001808311610bcc57829003601f168201915b5050505050915050919050565b6000610c026007611a0b565b905090565b610c18610c126112c3565b83611384565b610c57576040517f08c379a0000000000000000000000000000000000000000000000000000000008152600401610c4e90612edc565b60405180910390fd5b610c6384848484611a19565b50505050565b60606000610c9d610c79846116be565b604051602001610c899190612b24565b60405160208183030381529060405261186b565b9050600c8054905081610cb09190613285565b9050600c8181548110610cec577f4e487b7100000000000000000000000000000000000000000000000000000000600052603260045260246000fd5b906000526020600020018054610d01906131d9565b80601f0160208091040260200160405190810160405280929190818152602001828054610d2d906131d9565b8015610d7a5780601f10610d4f57610100808354040283529160200191610d7a565b820191906000526020600020905b815481529060010190602001808311610d5d57829003601f168201915b5050505050915050919050565b6060610d9282611257565b610dd1576040517f08c379a0000000000000000000000000000000000000000000000000000000008152600401610dc890612e3c565b60405180910390fd5b6000600660008481526020019081526020016000208054610df1906131d9565b80601f0160208091040260200160405190810160405280929190818152602001828054610e1d906131d9565b8015610e6a5780601f10610e3f57610100808354040283529160200191610e6a565b820191906000526020600020905b815481529060010190602001808311610e4d57829003601f168201915b505050505090506000610e7b611a75565b9050600081511415610e91578192505050610ed4565b600082511115610ec6578082604051602001610eae929190612aa0565b60405160208183030381529060405292505050610ed4565b610ecf84611a8c565b925050505b919050565b60085481565b6000610eeb6007611a0b565b90506008548110610f31576040517f08c379a0000000000000000000000000000000000000000000000000000000008152600401610f2890612efc565b60405180910390fd5b6000610f3c8261077e565b90506000610f4983610ad8565b90506000610f5684610c69565b90506000838383604051602001610f6f93929190612ac4565b60405160208183030381529060405290506000600982604051602001610f96929190612af5565b60405160208183030381529060405290506000610fdb83610fb684611b33565b604051602001610fc7929190612b68565b604051602081830303815290604052611b33565b9050600081604051602001610ff09190612bcf565b604051602081830303815290604052905061100b3389611cf1565b6110158882611d0f565b61101f6007611d83565b611042604051806060016040528060248152602001613a41602491398933611d99565b7febb98688741ffa4c7589bf325de30cf7becb63de567842e1ccdb6cb949fdc82c3389604051611073929190612c58565b60405180910390a17f813268505ad13bd9105919c2378c0326d0aca78e5fd42ee3ff7028a390409ec3600854896040516110ae929190612f37565b60405180910390a15050505050505050565b6000600560008473ffffffffffffffffffffffffffffffffffffffff1673ffffffffffffffffffffffffffffffffffffffff16815260200190815260200160002060008373ffffffffffffffffffffffffffffffffffffffff1673ffffffffffffffffffffffffffffffffffffffff16815260200190815260200160002060009054906101000a900460ff16905092915050565b6111ea816040516024016111689190612c9c565b6040516020818303038152906040527f41304fac000000000000000000000000000000000000000000000000000000007bffffffffffffffffffffffffffffffffffffffffffffffffffffffff19166020820180517bffffffffffffffffffffffffffffffffffffffffffffffffffffffff8381831617835250505050611e38565b50565b60007f01ffc9a7000000000000000000000000000000000000000000000000000000007bffffffffffffffffffffffffffffffffffffffffffffffffffffffff1916827bffffffffffffffffffffffffffffffffffffffffffffffffffffffff1916149050919050565b60008073ffffffffffffffffffffffffffffffffffffffff166002600084815260200190815260200160002060009054906101000a900473ffffffffffffffffffffffffffffffffffffffff1673ffffffffffffffffffffffffffffffffffffffff1614159050919050565b600033905090565b816004600083815260200190815260200160002060006101000a81548173ffffffffffffffffffffffffffffffffffffffff021916908373ffffffffffffffffffffffffffffffffffffffff160217905550808273ffffffffffffffffffffffffffffffffffffffff1661133e836108c6565b73ffffffffffffffffffffffffffffffffffffffff167f8c5be1e5ebec7d5bd14f71427d1e84f3dd0314c0f7b2291e5b200ac8c7c3b92560405160405180910390a45050565b600061138f82611257565b6113ce576040517f08c379a00000000000000000000000000000000000000000000000000000000081526004016113c590612d7c565b60405180910390fd5b60006113d9836108c6565b90508073ffffffffffffffffffffffffffffffffffffffff168473ffffffffffffffffffffffffffffffffffffffff16148061144857508373ffffffffffffffffffffffffffffffffffffffff1661143084610581565b73ffffffffffffffffffffffffffffffffffffffff16145b80611459575061145881856110c0565b5b91505092915050565b8273ffffffffffffffffffffffffffffffffffffffff16611482826108c6565b73ffffffffffffffffffffffffffffffffffffffff16146114d8576040517f08c379a00000000000000000000000000000000000000000000000000000000081526004016114cf90612e7c565b60405180910390fd5b600073ffffffffffffffffffffffffffffffffffffffff168273ffffffffffffffffffffffffffffffffffffffff161415611548576040517f08c379a000000000000000000000000000000000000000000000000000000000815260040161153f90612d3c565b60405180910390fd5b611553838383611e61565b61155e6000826112cb565b6001600360008573ffffffffffffffffffffffffffffffffffffffff1673ffffffffffffffffffffffffffffffffffffffff16815260200190815260200160002060008282546115ae91906130ef565b925050819055506001600360008473ffffffffffffffffffffffffffffffffffffffff1673ffffffffffffffffffffffffffffffffffffffff1681526020019081526020016000206000828254611605919061300e565b92505081905550816002600083815260200190815260200160002060006101000a81548173ffffffffffffffffffffffffffffffffffffffff021916908373ffffffffffffffffffffffffffffffffffffffff160217905550808273ffffffffffffffffffffffffffffffffffffffff168473ffffffffffffffffffffffffffffffffffffffff167fddf252ad1be2c89b69c2b068fc378daa952ba7f163c4a11628f55a4df523b3ef60405160405180910390a4505050565b60606000821415611706576040518060400160405280600181526020017f30000000000000000000000000000000000000000000000000000000000000008152509050611866565b600082905060005b600082146117385780806117219061323c565b915050600a826117319190613064565b915061170e565b60008167ffffffffffffffff81111561177a577f4e487b7100000000000000000000000000000000000000000000000000000000600052604160045260246000fd5b6040519080825280601f01601f1916602001820160405280156117ac5781602001600182028036833780820191505090505b5090505b6000851461185f576001826117c591906130ef565b9150600a856117d49190613285565b60306117e0919061300e565b60f81b81838151811061181c577f4e487b7100000000000000000000000000000000000000000000000000000000600052603260045260246000fd5b60200101907effffffffffffffffffffffffffffffffffffffffffffffffffffffffffffff1916908160001a905350600a856118589190613064565b94506117b0565b8093505050505b919050565b60008160405160200161187e9190612a89565b6040516020818303038152906040528051906020012060001c9050919050565b8173ffffffffffffffffffffffffffffffffffffffff168373ffffffffffffffffffffffffffffffffffffffff16141561190d576040517f08c379a000000000000000000000000000000000000000000000000000000000815260040161190490612d5c565b60405180910390fd5b80600560008573ffffffffffffffffffffffffffffffffffffffff1673ffffffffffffffffffffffffffffffffffffffff16815260200190815260200160002060008473ffffffffffffffffffffffffffffffffffffffff1673ffffffffffffffffffffffffffffffffffffffff16815260200190815260200160002060006101000a81548160ff0219169083151502179055508173ffffffffffffffffffffffffffffffffffffffff168373ffffffffffffffffffffffffffffffffffffffff167f17307eab39ab6107e8899845ad3d59bd9653f200f220920489ca2b5937696c31836040516119fe9190612c81565b60405180910390a3505050565b600081600001549050919050565b611a24848484611462565b611a3084848484611e66565b611a6f576040517f08c379a0000000000000000000000000000000000000000000000000000000008152600401611a6690612cfc565b60405180910390fd5b50505050565b606060405180602001604052806000815250905090565b6060611a9782611257565b611ad6576040517f08c379a0000000000000000000000000000000000000000000000000000000008152600401611acd90612e9c565b60405180910390fd5b6000611ae0611a75565b90506000815111611b005760405180602001604052806000815250611b2b565b80611b0a846116be565b604051602001611b1b929190612aa0565b6040516020818303038152906040525b915050919050565b60606000825190506000811415611b5c5760405180602001604052806000815250915050611cec565b60006003600283611b6d919061300e565b611b779190613064565b6004611b839190613095565b90506000602082611b94919061300e565b67ffffffffffffffff811115611bd3577f4e487b7100000000000000000000000000000000000000000000000000000000600052604160045260246000fd5b6040519080825280601f01601f191660200182016040528015611c055781602001600182028036833780820191505090505b5090506000604051806060016040528060408152602001613a65604091399050600181016020830160005b86811015611ca95760038101905062ffffff818a015116603f8160121c168401518060081b905060ff603f83600c1c1686015116810190508060081b905060ff603f8360061c1686015116810190508060081b905060ff603f831686015116810190508060e01b90508084526004840193505050611c30565b506003860660018114611cc35760028114611cd357611cde565b613d3d60f01b6002830352611cde565b603d60f81b60018303525b508484525050819450505050505b919050565b611d0b828260405180602001604052806000815250611ffd565b5050565b611d1882611257565b611d57576040517f08c379a0000000000000000000000000000000000000000000000000000000008152600401611d4e90612dfc565b60405180910390fd5b80600660008481526020019081526020016000209080519060200190611d7e929190612239565b505050565b6001816000016000828254019250508190555050565b611e33838383604051602401611db193929190612cbe565b6040516020818303038152906040527fe3849f79000000000000000000000000000000000000000000000000000000007bffffffffffffffffffffffffffffffffffffffffffffffffffffffff19166020820180517bffffffffffffffffffffffffffffffffffffffffffffffffffffffff8381831617835250505050611e38565b505050565b60008151905060006a636f6e736f6c652e6c6f679050602083016000808483855afa5050505050565b505050565b6000611e878473ffffffffffffffffffffffffffffffffffffffff16612058565b15611ff0578373ffffffffffffffffffffffffffffffffffffffff1663150b7a02611eb06112c3565b8786866040518563ffffffff1660e01b8152600401611ed29493929190612c0c565b602060405180830381600087803b158015611eec57600080fd5b505af1925050508015611f1d57506040513d601f19601f82011682018060405250810190611f1a919061257d565b60015b611fa0573d8060008114611f4d576040519150601f19603f3d011682016040523d82523d6000602084013e611f52565b606091505b50600081511415611f98576040517f08c379a0000000000000000000000000000000000000000000000000000000008152600401611f8f90612cfc565b60405180910390fd5b805181602001fd5b63150b7a0260e01b7bffffffffffffffffffffffffffffffffffffffffffffffffffffffff1916817bffffffffffffffffffffffffffffffffffffffffffffffffffffffff191614915050611ff5565b600190505b949350505050565b612007838361206b565b6120146000848484611e66565b612053576040517f08c379a000000000000000000000000000000000000000000000000000000000815260040161204a90612cfc565b60405180910390fd5b505050565b600080823b905060008111915050919050565b600073ffffffffffffffffffffffffffffffffffffffff168273ffffffffffffffffffffffffffffffffffffffff1614156120db576040517f08c379a00000000000000000000000000000000000000000000000000000000081526004016120d290612e1c565b60405180910390fd5b6120e481611257565b15612124576040517f08c379a000000000000000000000000000000000000000000000000000000000815260040161211b90612d1c565b60405180910390fd5b61213060008383611e61565b6001600360008473ffffffffffffffffffffffffffffffffffffffff1673ffffffffffffffffffffffffffffffffffffffff1681526020019081526020016000206000828254612180919061300e565b92505081905550816002600083815260200190815260200160002060006101000a81548173ffffffffffffffffffffffffffffffffffffffff021916908373ffffffffffffffffffffffffffffffffffffffff160217905550808273ffffffffffffffffffffffffffffffffffffffff16600073ffffffffffffffffffffffffffffffffffffffff167fddf252ad1be2c89b69c2b068fc378daa952ba7f163c4a11628f55a4df523b3ef60405160405180910390a45050565b828054612245906131d9565b90600052602060002090601f01602090048101928261226757600085556122ae565b82601f1061228057805160ff19168380011785556122ae565b828001600101855582156122ae579182015b828111156122ad578251825591602001919060010190612292565b5b5090506122bb91906122bf565b5090565b5b808211156122d85760008160009055506001016122c0565b5090565b60006122ef6122ea84612f85565b612f60565b90508281526020810184848401111561230757600080fd5b612312848285613197565b509392505050565b600081359050612329816139e4565b92915050565b60008135905061233e816139fb565b92915050565b60008135905061235381613a12565b92915050565b60008151905061236881613a12565b92915050565b600082601f83011261237f57600080fd5b813561238f8482602086016122dc565b91505092915050565b6000813590506123a781613a29565b92915050565b6000602082840312156123bf57600080fd5b60006123cd8482850161231a565b91505092915050565b600080604083850312156123e957600080fd5b60006123f78582860161231a565b92505060206124088582860161231a565b9150509250929050565b60008060006060848603121561242757600080fd5b60006124358682870161231a565b93505060206124468682870161231a565b925050604061245786828701612398565b9150509250925092565b6000806000806080858703121561247757600080fd5b60006124858782880161231a565b94505060206124968782880161231a565b93505060406124a787828801612398565b925050606085013567ffffffffffffffff8111156124c457600080fd5b6124d08782880161236e565b91505092959194509250565b600080604083850312156124ef57600080fd5b60006124fd8582860161231a565b925050602061250e8582860161232f565b9150509250929050565b6000806040838503121561252b57600080fd5b60006125398582860161231a565b925050602061254a85828601612398565b9150509250929050565b60006020828403121561256657600080fd5b600061257484828501612344565b91505092915050565b60006020828403121561258f57600080fd5b600061259d84828501612359565b91505092915050565b6000602082840312156125b857600080fd5b60006125c684828501612398565b91505092915050565b6125d881613123565b82525050565b6125e781613135565b82525050565b60006125f882612fcb565b6126028185612fe1565b93506126128185602086016131a6565b61261b81613372565b840191505092915050565b600061263182612fd6565b61263b8185612ff2565b935061264b8185602086016131a6565b61265481613372565b840191505092915050565b600061266a82612fd6565b6126748185613003565b93506126848185602086016131a6565b80840191505092915050565b6000815461269d816131d9565b6126a78186613003565b945060018216600081146126c257600181146126d357612706565b60ff19831686528186019350612706565b6126dc85612fb6565b60005b838110156126fe578154818901526001820191506020810190506126df565b838801955050505b50505092915050565b600061271c603283612ff2565b915061272782613383565b604082019050919050565b600061273f601c83612ff2565b915061274a826133d2565b602082019050919050565b6000612762600a83613003565b915061276d826133fb565b600a82019050919050565b6000612785602483612ff2565b915061279082613424565b604082019050919050565b60006127a8601983612ff2565b91506127b382613473565b602082019050919050565b60006127cb606383613003565b91506127d68261349c565b606382019050919050565b60006127ee600b83613003565b91506127f982613537565b600b82019050919050565b6000612811602c83612ff2565b915061281c82613560565b604082019050919050565b6000612834600d83613003565b915061283f826135af565b600d82019050919050565b6000612857603883612ff2565b9150612862826135d8565b604082019050919050565b600061287a602a83612ff2565b915061288582613627565b604082019050919050565b600061289d602983612ff2565b91506128a882613676565b604082019050919050565b60006128c0602e83612ff2565b91506128cb826136c5565b604082019050919050565b60006128e3600283613003565b91506128ee82613714565b600282019050919050565b6000612906602083612ff2565b91506129118261373d565b602082019050919050565b6000612929603183612ff2565b915061293482613766565b604082019050919050565b600061294c602c83612ff2565b9150612957826137b5565b604082019050919050565b600061296f602983612ff2565b915061297a82613804565b604082019050919050565b6000612992602f83612ff2565b915061299d82613853565b604082019050919050565b60006129b5600a83613003565b91506129c0826138a2565b600a82019050919050565b60006129d8602183612ff2565b91506129e3826138cb565b604082019050919050565b60006129fb600a83613003565b9150612a068261391a565b600a82019050919050565b6000612a1e601d83613003565b9150612a2982613943565b601d82019050919050565b6000612a41603183612ff2565b9150612a4c8261396c565b604082019050919050565b6000612a64600f83612ff2565b9150612a6f826139bb565b602082019050919050565b612a838161318d565b82525050565b6000612a95828461265f565b915081905092915050565b6000612aac828561265f565b9150612ab8828461265f565b91508190509392505050565b6000612ad0828661265f565b9150612adc828561265f565b9150612ae8828461265f565b9150819050949350505050565b6000612b018285612690565b9150612b0d828461265f565b9150612b1882612827565b91508190509392505050565b6000612b2f82612755565b9150612b3b828461265f565b915081905092915050565b6000612b51826127e1565b9150612b5d828461265f565b915081905092915050565b6000612b73826129a8565b9150612b7f828561265f565b9150612b8a826127be565b9150612b96828461265f565b9150612ba1826128d6565b91508190509392505050565b6000612bb8826129ee565b9150612bc4828461265f565b915081905092915050565b6000612bda82612a11565b9150612be6828461265f565b915081905092915050565b6000602082019050612c0660008301846125cf565b92915050565b6000608082019050612c2160008301876125cf565b612c2e60208301866125cf565b612c3b6040830185612a7a565b8181036060830152612c4d81846125ed565b905095945050505050565b6000604082019050612c6d60008301856125cf565b612c7a6020830184612a7a565b9392505050565b6000602082019050612c9660008301846125de565b92915050565b60006020820190508181036000830152612cb68184612626565b905092915050565b60006060820190508181036000830152612cd88186612626565b9050612ce76020830185612a7a565b612cf460408301846125cf565b949350505050565b60006020820190508181036000830152612d158161270f565b9050919050565b60006020820190508181036000830152612d3581612732565b9050919050565b60006020820190508181036000830152612d5581612778565b9050919050565b60006020820190508181036000830152612d758161279b565b9050919050565b60006020820190508181036000830152612d9581612804565b9050919050565b60006020820190508181036000830152612db58161284a565b9050919050565b60006020820190508181036000830152612dd58161286d565b9050919050565b60006020820190508181036000830152612df581612890565b9050919050565b60006020820190508181036000830152612e15816128b3565b9050919050565b60006020820190508181036000830152612e35816128f9565b9050919050565b60006020820190508181036000830152612e558161291c565b9050919050565b60006020820190508181036000830152612e758161293f565b9050919050565b60006020820190508181036000830152612e9581612962565b9050919050565b60006020820190508181036000830152612eb581612985565b9050919050565b60006020820190508181036000830152612ed5816129cb565b9050919050565b60006020820190508181036000830152612ef581612a34565b9050919050565b60006020820190508181036000830152612f1581612a57565b9050919050565b6000602082019050612f316000830184612a7a565b92915050565b6000604082019050612f4c6000830185612a7a565b612f596020830184612a7a565b9392505050565b6000612f6a612f7b565b9050612f76828261320b565b919050565b6000604051905090565b600067ffffffffffffffff821115612fa057612f9f613343565b5b612fa982613372565b9050602081019050919050565b60008190508160005260206000209050919050565b600081519050919050565b600081519050919050565b600082825260208201905092915050565b600082825260208201905092915050565b600081905092915050565b60006130198261318d565b91506130248361318d565b9250827fffffffffffffffffffffffffffffffffffffffffffffffffffffffffffffffff03821115613059576130586132b6565b5b828201905092915050565b600061306f8261318d565b915061307a8361318d565b92508261308a576130896132e5565b5b828204905092915050565b60006130a08261318d565b91506130ab8361318d565b9250817fffffffffffffffffffffffffffffffffffffffffffffffffffffffffffffffff04831182151516156130e4576130e36132b6565b5b828202905092915050565b60006130fa8261318d565b91506131058361318d565b925082821015613118576131176132b6565b5b828203905092915050565b600061312e8261316d565b9050919050565b60008115159050919050565b60007fffffffff0000000000000000000000000000000000000000000000000000000082169050919050565b600073ffffffffffffffffffffffffffffffffffffffff82169050919050565b6000819050919050565b82818337600083830152505050565b60005b838110156131c45780820151818401526020810190506131a9565b838111156131d3576000848401525b50505050565b600060028204905060018216806131f157607f821691505b6020821081141561320557613204613314565b5b50919050565b61321482613372565b810181811067ffffffffffffffff8211171561323357613232613343565b5b80604052505050565b60006132478261318d565b91507fffffffffffffffffffffffffffffffffffffffffffffffffffffffffffffffff82141561327a576132796132b6565b5b600182019050919050565b60006132908261318d565b915061329b8361318d565b9250826132ab576132aa6132e5565b5b828206905092915050565b7f4e487b7100000000000000000000000000000000000000000000000000000000600052601160045260246000fd5b7f4e487b7100000000000000000000000000000000000000000000000000000000600052601260045260246000fd5b7f4e487b7100000000000000000000000000000000000000000000000000000000600052602260045260246000fd5b7f4e487b7100000000000000000000000000000000000000000000000000000000600052604160045260246000fd5b6000601f19601f8301169050919050565b7f4552433732313a207472616e7366657220746f206e6f6e20455243373231526560008201527f63656976657220696d706c656d656e7465720000000000000000000000000000602082015250565b7f4552433732313a20746f6b656e20616c7265616479206d696e74656400000000600082015250565b7f54484952445f574f524400000000000000000000000000000000000000000000600082015250565b7f4552433732313a207472616e7366657220746f20746865207a65726f2061646460008201527f7265737300000000000000000000000000000000000000000000000000000000602082015250565b7f4552433732313a20617070726f766520746f2063616c6c657200000000000000600082015250565b7f222c20226465736372697074696f6e223a20224120686967686c79206163636c60008201527f61696d656420636f6c6c656374696f6e206f6620737175617265732e222c202260208201527f696d616765223a2022646174613a696d6167652f7376672b786d6c3b6261736560408201527f36342c0000000000000000000000000000000000000000000000000000000000606082015250565b7f5345434f4e445f574f5244000000000000000000000000000000000000000000600082015250565b7f4552433732313a206f70657261746f7220717565727920666f72206e6f6e657860008201527f697374656e7420746f6b656e0000000000000000000000000000000000000000602082015250565b7f3c2f746578743e3c2f7376673e00000000000000000000000000000000000000600082015250565b7f4552433732313a20617070726f76652063616c6c6572206973206e6f74206f7760008201527f6e6572206e6f7220617070726f76656420666f7220616c6c0000000000000000602082015250565b7f4552433732313a2062616c616e636520717565727920666f7220746865207a6560008201527f726f206164647265737300000000000000000000000000000000000000000000602082015250565b7f4552433732313a206f776e657220717565727920666f72206e6f6e657869737460008201527f656e7420746f6b656e0000000000000000000000000000000000000000000000602082015250565b7f45524337323155524953746f726167653a2055524920736574206f66206e6f6e60008201527f6578697374656e7420746f6b656e000000000000000000000000000000000000602082015250565b7f227d000000000000000000000000000000000000000000000000000000000000600082015250565b7f4552433732313a206d696e7420746f20746865207a65726f2061646472657373600082015250565b7f45524337323155524953746f726167653a2055524920717565727920666f722060008201527f6e6f6e6578697374656e7420746f6b656e000000000000000000000000000000602082015250565b7f4552433732313a20617070726f76656420717565727920666f72206e6f6e657860008201527f697374656e7420746f6b656e0000000000000000000000000000000000000000602082015250565b7f4552433732313a207472616e73666572206f6620746f6b656e2074686174206960008201527f73206e6f74206f776e0000000000000000000000000000000000000000000000602082015250565b7f4552433732314d657461646174613a2055524920717565727920666f72206e6f60008201527f6e6578697374656e7420746f6b656e0000000000000000000000000000000000602082015250565b7f7b226e616d65223a202200000000000000000000000000000000000000000000600082015250565b7f4552433732313a20617070726f76616c20746f2063757272656e74206f776e6560008201527f7200000000000000000000000000000000000000000000000000000000000000602082015250565b7f46495253545f574f524400000000000000000000000000000000000000000000600082015250565b7f646174613a6170706c69636174696f6e2f6a736f6e3b6261736536342c000000600082015250565b7f4552433732313a207472616e736665722063616c6c6572206973206e6f74206f60008201527f776e6572206e6f7220617070726f766564000000000000000000000000000000602082015250565b7f4e6f204e465473206c656674203a280000000000000000000000000000000000600082015250565b6139ed81613123565b81146139f857600080fd5b50565b613a0481613135565b8114613a0f57600080fd5b50565b613a1b81613141565b8114613a2657600080fd5b50565b613a328161318d565b8114613a3d57600080fd5b5056fe416e204e465420772f20494420257320686173206265656e206d696e74656420746f20254142434445464748494a4b4c4d4e4f505152535455565758595a6162636465666768696a6b6c6d6e6f707172737475767778797a303132333435363738392b2fa2646970667358221220a42c985f06b6103e7c376ebf7be3b405cfe34503269054acdd442e74f6bb6e6764736f6c634300080400333c73766720786d6c6e733d27687474703a2f2f7777772e77332e6f72672f323030302f73766727207072657365727665417370656374526174696f3d27784d696e594d696e206d656574272076696577426f783d273020302033353020333530273e3c7374796c653e2e62617365207b2066696c6c3a206c696d653b20666f6e742d66616d696c793a20636f6e736f6c653b20666f6e742d73697a653a20323070783b20666f6e742d7374796c653a206974616c69633b207d3c2f7374796c653e3c726563742077696474683d273130302527206865696768743d2731303025272066696c6c3d27626c61636b27202f3e3c7465787420783d273530252720793d273530252720636c6173733d27626173652720646f6d696e616e742d626173656c696e653d276d6964646c652720746578742d616e63686f723d276d6964646c65273e",
  "linkReferences": {},
  "deployedLinkReferences": {}
}